:020000040800F2
:1000000060940020E11100084D1100084F11000814
:1000100053110008571100085B1100080000000090
:100020000000000000000000000000006111000856
:100030005F1100080000000063110008651100084E
:1000400067110008691100086B1100086D110008A4
:100050006F11000871110008731100087511000874
:1000600077110008791100087B1100087D11000844
:100070007F11000881110008831100088511000814
:1000800087110008891100088B110008FB11000876
:10009000FB110008FB110008FB1100089511000876
:1000A000FB110008FB110008FB1100089D1100085E
:1000B0009F110008A1110008A3110008A511000854
:1000C000A7110008A9110008AB110008AD11000824
:1000D000AF110008B1110008B3110008B5110008F4
:1000E000B7110008B9110008BB110008FB11000886
:1000F000FB110008FB110008C3110008C51100081E
:10010000C7110008C9110008CB110008CD11000863
:10011000CF110008D1110008D3110008D511000833
:10012000D7110008D9110008DB110008DD11000803
:10013000DFF80CD00DF0A2FF004800476510000862
:1001400060940020704710B50446206810B1206804
:1001500008F088FA606808F05BF8002020606060B2
:1001600010BD2DE9F04F85B004460E464FF480686F
:10017000424603A9206808F001FF8146C1450ADA1A
:10018000F0A04FF43B73F8A2F9A10090FE480EF0E6
:1001900091F907F04DFB0422414603980DF046FF0C
:1001A0004146206809F009F881464FF0000B00BF76
:1001B00003A9206808F0BDFE814602A9306808F056
:1001C0008BFE0746B94501DA484600E038468246CC
:1001D0005246DDE902010DF009FF5146206809F0A1
:1001E00042FF04AB01AA5146306809F0D6F9054632
:1001F000022D00D1DCE7042D09D104AA01A9306841
:1002000009F045FD50B1681F05B0BDE8F08F2946E3
:10021000DEA00EF05DF94FF0FF30F5E70020F3E7C8
:100220002DE9FF4706460D4602A9306808F081FE19
:10023000814603A9286808F04FFE8046C14501DACF
:10024000484600E0404607463A46DDE902100DF018
:10025000CDFE3946306809F006FF82466B4601AA9A
:100260003946286809F099F90446012C06D131462F
:100270002846FFF7D5FF04B0BDE8F087022C04D173
:1002800029463046FFF7CCFFF5E7052C01D10020C9
:10029000F1E7062C13D10198007801280CD16A46A9
:1002A00001A9286809F0F3FC08B1E01FE3E729463B
:1002B0003046FFF7B5FFDEE74FF0FF30DBE72146C2
:1002C000BDA00EF005F94FF0FF30D4E7F8B50446B5
:1002D0000D4616460A20009000231A46194620684B
:1002E00009F0A2FDF8BDF8B504460E461546009586
:1002F000226810460023D2F8F0181A4609F094FD3F
:10030000F8BD034610467047F8B504460E4615463C
:1003100000950023B34A1946206809F085FDF8BD11
:10032000F8B506460C461546009500231A461946B0
:10033000206809F079FDF8BDF8B504460E4615466B
:10034000009500231A461946206809F06DFDF8BD96
:10035000F8B506460C4615460095012300221146C5
:10036000206809F061FDF8BD0346104670470FB4E0
:10037000FEB504460D462068D0F82069206808F0D4
:1003800071F90020984ACDE900200290179B32466F
:100390002046616808F0E6FC002804DA4FF0FF30E0
:1003A000FEBC5DF814FB286808F05CF900222846C2
:1003B000696808F060FD002802DA4FF0FF30EFE7CF
:1003C0000020EDE7F8B504460E46154600950123DA
:1003D00000221146206809F027FDF8BD0FB430B5A2
:1003E00085B004461B9D606808BB03A807F026FE85
:1003F000002805DA6FF0070005B030BC5DF814FB8B
:1004000003986060179890B11A9880B94FF42570DE
:10041000764900221346CDE9002102901146039847
:1004200007F0DFFE002802DA4FF0FF30E4E700209B
:1004300020606D4ACDE900200290169B2A4604A850
:10044000616808F08FFC002802DA4FF0FF30D3E734
:10045000049820600020CFE70FB410B586B00446A2
:10046000002005900490606810BB05A807F0E6FD29
:10047000002805DA6FF0070006B010BC5DF814FB29
:1004800005986060179898B11A9888B900204FF4C1
:100490001872CDE90020564B4FF42972554902904D
:1004A000059807F09EFE002802DA4FF0FF30E3E7E0
:1004B000002204A8616808F0DEFC002802DA4FF090
:1004C000FF30D9E7049820600020D5E70FB4F0B5DD
:1004D00091B005460C462A9E3C221BA968460DF0A9
:1004E00085FD204618A90EC9FFF7B6FF07463C2236
:1004F0001BA968460F960DF079FD284618A90EC96C
:10050000FFF76CFF0746384611B0F0BC5DF814FBEE
:10051000F0B591B007F060FD002803DA36A11A4863
:100520000DF0C8FF08200EF011F8054608200EF067
:100530000DF8064600202860686000213160716077
:1005400000240AE277726974654275664C656E2014
:100550003E3D2028696E743332297265717565736A
:100560007465644C656E00006D61696E2E630000F9
:1005700025733A25642073736C4173736572742814
:100580002573290A00000000480A0020556E65788E
:10059000706563746564206572726F7220696E2085
:1005A00065786368616E6765417070446174613A33
:1005B0002025640A00000000556E6578706563743C
:1005C0006564206572726F7220696E207065726654
:1005D0006F726D48616E647368616B653A20256463
:1005E0000A00000003030008690300080405002056
:1005F00000000020600200206D61747269785373FE
:100600006C4F70656E206661696C65642C2065783E
:100610006974696E672E2E2E000000000020CF49FD
:10062000086504EBC400CE4A02EBC001CDA007F080
:10063000F2F8D1A007F0E9F8C848109004EBC40024
:10064000C74A02EBC00000F10801402268460DF0E5
:10065000CDFC04EBC400C24901EBC007294630467B
:10066000D7E90023FFF732FF002803DAC9A007F01B
:10067000CCF8D0E329463046FFF7D2FD002803DA54
:10068000CFA007F0C2F8C6E3D5A007F0BEF8294610
:100690003046FFF766FD002805DB31462846FFF7A8
:1006A00060FD002803DAD6A007F0AFF802E0B1A0A1
:1006B00007F0ABF8DEA007F0A8F804EBC400A849E7
:1006C00001EBC0002946426B3046FFF77BFE002855
:1006D00003DAE1A007F099F89DE329463046FFF7D9
:1006E0009FFD002803DAE6A007F08FF893E3EAA065
:1006F00007F08BF829463046FFF733FD002805DB6D
:1007000031462846FFF72DFD002803DAE8A007F060
:100710007CF802E097A007F078F8F0A007F075F8F1
:1007200004EBC4008E4A02EBC00000F10801402235
:1007300068460DF05BFC04EBC400894901EBC0077F
:1007400029463046D7E90023FFF711FE002803DAD7
:10075000EDA007F05AF85EE329463046FFF760FD4A
:10076000002803DAF3A007F050F854E3F9A007F0EB
:100770004CF829463046FFF7F4FC002805DB3146EB
:100780002846FFF7EEFC002803DAC9A007F03DF881
:1007900002E078A007F039F8F5A007F036F804EB8E
:1007A000C4006F4901EBC0002946426B3046FFF799
:1007B000CFFD002803DAA8A007F027F82BE3314685
:1007C0002846FFF72DFD002803DAADA007F01DF83D
:1007D00021E3B1A007F019F829463046FFF7C1FC24
:1007E000002805DB31462846FFF7BBFC002803DA6A
:1007F000AFA007F00AF802E05EA007F006F80521B6
:10080000286809F021FCE4A006F0FFFF04EBC40017
:10081000534901EBC0002946426B3046FFF78CFD7F
:10082000002803DAE8A006F0F0FFF4E2294630469B
:10083000FFF7F6FC002803DAEFA006F0E6FFEAE295
:10084000F5A006F0E2FF29463046FFF78AFC0028B3
:1008500005DB31462846FFF784FC002803DA94A024
:1008600006F0D3FF02E043A006F0CFFFF2A006F0AF
:10087000CCFF04EBC4003A4901EBC0002946426BAF
:100880003046FFF74DFD002803DACFA006F0BDFF8C
:10089000C1E231462846FFF7C3FC002803DAD6A0A0
:1008A00006F0B3FFB7E2DCA006F0AFFF2946304602
:1008B000FFF757FC002805DB31462846FFF751FCBF
:1008C000002803DA7AA006F0A0FF02E029A006F0D3
:1008D0009CFFE5A006F099FF04EBC400204901EB62
:1008E000C0002946426B3046FFF70EFD002803DAB0
:1008F000E8A006F08AFF8EE229463046FFF790FC1A
:10090000002803DAEFA006F080FF84E2F9A006F0E9
:100910007CFF29463046FFF724FC002805DB3146E2
:100920002846FFF71EFC002803DA61A006F06DFFE1
:1009300002E010A006F069FFFAA006F066FF04EBE3
:10094000C400074901EBC0002946426B3046FFF75F
:10095000CAFC002800DAF5E1F8E163E2580A002059
:100960009807002054657374696E6720257320739F
:10097000756974650A000000095374616E646172E0
:10098000642068616E647368616B6520746573745C
:100990000A00000009094641494C45443A20696E65
:1009A000697469616C697A696E67205374616E64F9
:1009B0006172642068616E647368616B650A00002F
:1009C00009094641494C45443A205374616E6461BB
:1009D00072642068616E647368616B650A00000070
:1009E00009095041535345443A205374616E646180
:1009F00072642068616E647368616B65000000005A
:100A000020627574204641494C454420746F20652E
:100A1000786368616E676520737276206170706CB0
:100A200069636174696F6E20646174610A0000001B
:100A30000952652D68616E647368616B6520746529
:100A400073742028636C69656E742D696E697469AE
:100A500061746564290A000009094641494C45440E
:100A60003A20696E697469616C697A696E672052AF
:100A7000652D68616E647368616B650A0000000033
:100A800009094641494C45443A2052652D68616E3A
:100A9000647368616B650A0009095041535345440A
:100AA0003A2052652D68616E647368616B65000061
:100AB00020627574204641494C454420746F20657E
:100AC000786368616E6765206170706C69636174DA
:100AD000696F6E20646174610A00000009526573D9
:100AE000756D65642068616E647368616B65207400
:100AF00065737420286E657720636F6E6E6563740E
:100B0000696F6E290A00000009094641494C4544B5
:100B10003A20696E697469616C697A696E672052FE
:100B20006573756D65642068616E647368616B657B
:100B30000A00000009094641494C45443A205265E3
:100B400073756D65642068616E647368616B650AB6
:100B50000000000009095041535345443A205265B2
:100B600073756D65642068616E647368616B6500A0
:100B70000952652D68616E647368616B65207465E8
:100B80007374202873657276657220696E69746962
:100B900061746564290A000009526573756D6564A6
:100BA0002052652D68616E647368616B65207465A1
:100BB00073742028636C69656E7420696E6974694A
:100BC00061746564290A000009094641494C45449D
:100BD0003A20696E697469616C697A696E6720523E
:100BE0006573756D65642052652D68616E64736808
:100BF000616B650A0000000009094641494C454403
:100C00003A20526573756D65642052652D68616E7A
:100C1000647368616B650A00090950415353454488
:100C20003A20526573756D65642052652D68616E5A
:100C3000647368616B65000009526573756D656466
:100C40002052652D68616E647368616B6520746500
:100C50007374202873657276657220696E69746991
:100C600061746564290A0000094368616E67652044
:100C7000636572742063616C6C6261636B205265A2
:100C80002D68616E647368616B6520746573740AA6
:100C90000000000009094641494C45443A20696E6C
:100CA000697420757067726164652063657274434E
:100CB0006261636B2052652D68616E647368616B5D
:100CC000650A000009094641494C45443A205570DF
:100CD000677261646520636572742063616C6C6225
:100CE00061636B2052652D68616E647368616B652A
:100CF0000A00000009095041535345443A205570F9
:100D0000677261646520636572742063616C6C62F4
:100D100061636B2052652D68616E647368616B65F9
:100D200000000000094368616E6765206B65797398
:100D30002052652D68616E647368616B652074650F
:100D400073740A0041A006F060FD64E02946304655
:100D5000FFF766FA002803DA47A006F056FD5AE0CE
:100D60004FA006F052FD29463046FFF7FAF9002859
:100D700005DB31462846FFF7F4F9002804DAAFF224
:100D8000D02006F042FD02E03AA006F03EFD04EB62
:100D9000C4004C4901EBC000806B01283AD104EB40
:100DA000C40001EBC000406C002833D146A006F01F
:100DB0002CFD04EBC400434901EBC0002946426B03
:100DC0003046FFF783FA002803DA49A006F01DFD3C
:100DD00021E029463046FFF723FA002803DA4FA026
:100DE00006F013FD17E058A006F00FFD2946304627
:100DF000FFF7B7F9002805DB31462846FFF7B1F9C0
:100E0000002804DAAFF2583006F0FFFC02E019A027
:100E100006F0FBFC00BF2846FFF795F93046FFF7C8
:100E200092F9641C04EBC400264901EBC000406B3E
:100E300000283FF7F3AB28460DF05AFB30460DF083
:100E400057FB07F0EDF8002011B0F0BD090946414D
:100E5000494C45443A20696E697420757067726127
:100E60006465206B6579732052652D68616E6473CB
:100E700068616B650A00000009094641494C454418
:100E80003A2055706772616465206B6579732052F2
:100E9000652D68616E647368616B650A000000000F
:100EA00009095041535345443A20557067726164B3
:100EB00065206B6579732052652D68616E64736877
:100EC000616B650098070020094368616E676520C3
:100ED0006369706865722073756974652052652D49
:100EE00068616E647368616B6520746573740A0071
:100EF00009094641494C45443A20696E69742063AA
:100F000068616E6765206369706865722052652D3F
:100F100068616E647368616B650A00000909464187
:100F2000494C45443A204368616E676520636970A7
:100F30006865722073756974652052652D68616EED
:100F4000647368616B650A00090950415353454455
:100F50003A204368616E6765206369706865722036
:100F600073756974652052652D68616E647368617C
:100F70006B6500001FB54FF4E13000900020ADF824
:100F80000400ADF80600ADF80800ADF80C000C2028
:100F9000ADF80A00694652480DF042FA0121504866
:100FA0000DF02CFA1FBD08B50420ADF80000182084
:100FB0008DF8030003208DF80200694649480DF0C2
:100FC000B7F80820ADF8000004208DF8030069464A
:100FD00044480DF0ADF808BD10B500214FF0006099
:100FE0000DF0F4F810BD10B50DF012F94FF480308B
:100FF0000DF0A2F90DF0E8F93B49087008460078B9
:10100000012826D110200DF07BF802200DF084F885
:1010100000200DF087F900200DF0B2F94FF4806048
:101020000DF0A4F94FF4E0114FF480300DF0B8F951
:1010300001200DF0AFF900BF39200DF053F9002861
:10104000FAD002200DF0B6F900BF0DF063F90828C0
:10105000FBD1012104200DF0CFF8012148040DF04F
:10106000BFF810BD08B5FFF7BEFFFFF7B5FFFFF7EC
:101070009AFFFFF77FFF1DA00DF02AFA2AA00DF0BE
:1010800027FA012108030DF0ABF84020ADF800006D
:1010900010208DF80300694612480DF049F8FFF75B
:1010A00037FA00BFFEE770B504460D460A2C0AD198
:1010B0000D210B480DF0FAF900BF402108480DF052
:1010C000A7F90028F9D0E1B205480DF0EFF900BF0B
:1010D000402103480DF09CF90028F9D0204670BD4E
:1010E0000044004000080140480900200D0A205338
:1010F000544D333246313078204669726D776172D3
:1011000065204C69627261727920636F6D70696CE1
:10111000656420696E204445425547206D6F6465C3
:101120002E2E2E200A0D00002E2E2E52756E2D749E
:10113000696D6520636865636B696E6720656E61C4
:10114000626C656420200A0D00000000704700BF3B
:10115000FEE700BFFEE700BFFEE700BFFEE7704707
:1011600070477047704770477047704770477047C7
:1011700070477047704770477047704770477047B7
:1011800070477047704770477047704770477047A7
:101190007047704770477047704770477047704797
:1011A0007047704770477047704770477047704787
:1011B0007047704770477047704770477047704777
:1011C0007047704770477047704770477047704767
:1011D000704770477047704770477047704700000E
:1011E0000648804706480047FEE7FEE7FEE7FEE7C1
:1011F000FEE7FEE7FEE7FEE7FEE7FEE74501000843
:101200003101000838B504460D464CB9B5A0792324
:10121000B7A2C1A10090C6480DF04CF906F008FB3A
:1012200015B96FF0050038BD294604F1400000F003
:10123000E7FA04F1400000F07EFA4022214604F172
:10124000400000F094FA1022294604F1400000F01A
:101250008EFA294604F1400000F0D2FA40212046DF
:101260000CF0EBFE1020DEE7F8B504460D461646FE
:1012700004B14DB9AFA072239DA2A7A10090AC48C4
:101280000DF018F906F0D4FA3246294604F1400070
:1012900000F06DFAF8BDF8B505460F461646402E2B
:1012A00009D9AAA05E2392A29BA10090A0480DF0AC
:1012B00001F906F0BDFA002404E0385D80F0360044
:1012C0002855641CB442F8D3344602E03620285531
:1012D000641C402CFADB05F1400000F02CFA40229F
:1012E000294605F1400000F042FA002404E0385D90
:1012F00080F05C002855641CB442F8D3344602E008
:101300005C202855641C402CFADBF8BD2DE9F04721
:10131000C0B006460C4617469846DDF820A1DDF819
:1013200024914A9D402C12D9684600F004FA2246C6
:101330003146684600F01BFA5146684600F060FAF4
:101340002860514648462A680CF050FE01E0B1463C
:101350002C60494618A82A68FFF79DFF4246394687
:1013600018A8FFF781FF514618A8FFF74BFF40B0C0
:10137000BDE8F08738B504460D464CB959A0CE23D8
:101380005BA265A100906A480DF094F806F050FA4F
:1013900015B96FF0050038BD294604F1400000F092
:1013A0008BFC04F1400000F022FC4022214604F1B5
:1013B000400000F03AFC1422294604F1400000F0FD
:1013C00034FC294604F1400000F076FC4021204620
:1013D0000CF033FE1420DEE7F8B504460D46164641
:1013E00004B14DB953A0C72341A24BA1009050486E
:1013F0000DF060F806F01CFA3246294604F1400070
:1014000000F013FCF8BDF8B505460F461646402E11
:1014100009D94EA0B22336A23FA1009044480DF056
:1014200049F806F005FA002404E0385D80F0360043
:101430002855641CB442F8D3344602E036202855BF
:10144000641C402CFAD305F1400000F0D0FB402290
:10145000294605F1400000F0E8FB002404E0385D77
:1014600080F05C002855641CB442F8D3344602E096
:101470005C202855641C402CFADBF8BD2DE9F047B0
:10148000C0B006460C4617469846DDF820A1DDF8A8
:1014900024914A9D402C12D9684600F0A8FB2246B0
:1014A0003146684600F0C1FB5146684600F004FC36
:1014B0002860514648462A680CF098FD01E0B14684
:1014C0002C60494618A82A68FFF79DFF4246394616
:1014D00018A8FFF781FF514618A8FFF74BFF40B04F
:1014E000BDE8F08763747820213D203000000000C3
:1014F0006D617472697873736C2D332D332D6F7039
:10150000656E5C63727970746F5C6469676573742F
:101510005C686D61632E630025733A2564207373E4
:101520006C417373657274282573290A00000000EA
:10153000480A002063747820213D20302026262090
:1015400062756620213D2030000000006B65794CFB
:10155000656E203C3D203634000000002DE9F04748
:1015600092B006464EB9EFA07723F0A2F9A1009001
:10157000FE480CF09FFF06F05BF900241EE006F128
:101580001C00042101FB0400C078010606F11C00C8
:10159000042202FB0400807841EA004106F11C00AD
:1015A00002FB0400407841EA002006F11C0111F81A
:1015B0002410084302A941F82400641C102CDED337
:1015C000B568F768D6F81080D6F81490002425E0A6
:1015D00088EA0900384080EA09002844E449095DA6
:1015E00002AA52F821100844E24951F82410451883
:1015F000E148005D00F01F00C0F1200025FA00F076
:10160000DD49095D01F01F0105FA01F10843C51923
:10161000CA46C146B8462F465546641C102CD7D33F
:1016200026E088EA070000EA090080EA080028446A
:10163000CF49095D02AA52F821100844CD4951F85A
:1016400024104518CC48005D00F01F00C0F12000B8
:1016500025FA00F0C849095D01F01F0105FA01F102
:101660000843C519CA46C146B8462F465546641CAC
:10167000202CD6D324E087EA080080EA0900284419
:10168000BB49095D02AA52F821100844B94951F832
:1016900024104518B848005D00F01F00C0F120007C
:1016A00025FA00F0B449095D01F01F0105FA01F1C6
:1016B0000843C519CA46C146B8462F465546641C5C
:1016C000302CD8D324E067EA090080EA08002844D7
:1016D000A749095D02AA52F821100844A54951F80A
:1016E00024104518A448005D00F01F00C0F1200040
:1016F00025FA00F0A049095D01F01F0105FA01F18A
:101700000843C519CA46C146B8462F465546641C0B
:10171000402CD8D3B0682844B060F068C119F1609B
:10172000306900EB08013161706900EB09017161FA
:1017300012B0BDE8F08738B504464CB979A0F12362
:101740007AA284A1009089480CF0B4FE06F070F8EB
:101750008A48A0608A49E160C14321618849C94340
:1017600061610020A06100212160616038BDF8B591
:1017700004460F46154654B96AA040F203136BA203
:1017800074A1009079480CF095FE06F051F857B915
:101790007CA04FF4827365A26EA1009073480CF098
:1017A00089FE06F045F828E0A069C0F14000A84293
:1017B00001D9284602E0A069C0F14000064604F1C4
:1017C0001C01A2695018324639460CF00FFCA06982
:1017D0003044A0613744AD1BA06940280DD120469C
:1017E000FFF7BCFE4FF40073D4E90020D21840F19B
:1017F0000000C4E900200020A061002DD4D1F8BD74
:101800002DE9F04F8BB004460E4654B945A04FF475
:10181000937346A24FA1009054480CF04BFE06F083
:1018200007F826B96FF005000BB0BDE8F08FA1698D
:10183000C900D4E90030591840F10000C4E9001093
:101840008021A269501CA06104F11C008154A06990
:1018500038280FD906E00021A269501CA06104F1CC
:101860001C008154A0694028F5D32046FFF776FE7E
:101870000020A06106E00021A269501CA06104F1D3
:101880001C008154A0693828F5D33822D4E90078A7
:10189000384641460CF09AFB84F85B003022D4E9CC
:1018A000009A484651460CF091FB84F85A002822D1
:1018B000D4E900B00A9058460A990CF087FB84F8E6
:1018C00059002022D4E90010CDE908010846089902
:1018D0000CF07CFB84F858001822D4E90010CDE904
:1018E0000601084606990CF071FB84F85700102297
:1018F000D4E90010CDE90401084604990CF066FB18
:1019000084F856000822D4E90010CDE90201084607
:1019100002990CF05BFB84F85500206884F85400B1
:10192000204635E06D6420213D2030006D617472E9
:10193000697873736C2D332D332D6F70656E5C6316
:10194000727970746F5C6469676573745C6D64351B
:101950002E63000025733A25642073736C41737302
:10196000657274282573290A00000000480A0020C7
:10197000E8EA000868EB000828EB00080123456747
:1019800089ABCDEF62756620213D2030000000005C
:10199000FFF7E4FD002521E004F1080050F82500E0
:1019A000000E042101FB0561C87004F1080050F825
:1019B0002500000C042101FB0561887004F108007A
:1019C00050F82500000A042101FB0561487004F16C
:1019D000080050F8250006F825006D1C042DDBDBFF
:1019E000602120460CF029FB10201DE72DE9F04F67
:1019F000D1B005464DB9EFA03823F0A2F9A100906F
:101A0000FE480CF057FD05F013FF00241DE005F122
:101A1000200010F82400010605F12000042202FB3A
:101A20000400407841EA004105F1200002FB040077
:101A3000807841EA002005F1200102FB0411C978F9
:101A4000084301A941F82400641C102CDFD3AF68BF
:101A5000EE68D5F81080D5F81490D5F818A01024A9
:101A60002DE0E01E01A951F82000A4F1080101AA0F
:101A700052F821104840A4F10E0152F821104840BC
:101A8000A4F1100152F8211048404100E01E52F824
:101A90002000A4F1080201AB53F822205040A4F129
:101AA0000E0253F822205040A4F1100253F82220D5
:101AB000504041EAD07001A941F82400641C502C28
:101AC000CFD300241CE0780140EAD76188EA0900FE
:101AD000304080EA0900084400EB0A022046641CFA
:101AE00001A951F820001044C54900EB010AB007D4
:101AF00040EA9606D346CA46C146B0463E465F46D1
:101B0000142CE0D31BE0780140EAD76186EA080094
:101B100080EA0900084400EB0A022046641C01A97F
:101B200051F820001044B74900EB010AB00740EA21
:101B30009606D346CA46C146B0463E465F46282C66
:101B4000E1D31EE0780140EAD76206EA080046EADF
:101B5000080101EA09010843104400EB0A0220468B
:101B6000641C01A951F820001044A74900EB010AA8
:101B7000B00740EA9606D346CA46C146B0463E463E
:101B80005F463C2CDED31BE0780140EAD76186EA51
:101B9000080080EA0900084400EB0A022046641CA1
:101BA00001A951F820001044984900EB010AB00740
:101BB00040EA9606D346CA46C146B0463E465F4610
:101BC000502CE1D3A8683844A860E8688119E9601E
:101BD000286900EB08012961686900EB0901696166
:101BE000A86900EB0A01A96151B0BDE8F08F38B5D2
:101BF00004464CB96FA0A82370A27AA100907F4838
:101C00000CF058FC05F014FE8148A0608149E160A9
:101C1000C14321617F49C94361617F49A1610020BE
:101C2000E06100212160616038BDF8B504460F46CF
:101C300015464CB95FA0BB2360A26AA100906F4813
:101C40000CF038FC05F0F4FD4FB974A0BC235BA286
:101C500064A1009069480CF02DFC05F0E9FD28E036
:101C6000E069C0F14000A84201D9284602E0E069DD
:101C7000C0F14000064604F12001E26950183246E6
:101C800039460CF0B3F9E0693044E0613744AD1BEC
:101C9000E06940280DD12046FFF7A8FE4FF40073FD
:101CA000D4E90020D21840F10000C4E9002000204F
:101CB000E061002DD4D1F8BD2DE9F04F8BB0044682
:101CC0000E464CB93BA0DB233CA246A100904B48FA
:101CD0000CF0F0FB05F0ACFDE069402800D226B91D
:101CE0006FF005000BB0BDE8F08FE169C900D4E9E1
:101CF0000030591840F10000C4E900108021E26969
:101D0000501CE06104F120008154E06938280FD9AB
:101D100006E00021E269501CE06104F120008154DA
:101D2000E0694028F5D32046FFF760FE0020E0611F
:101D300006E00021E269501CE06104F120008154BA
:101D4000E0693828F5D33822D4E90078384641468E
:101D50000CF03CF984F858003022D4E9009A484647
:101D600051460CF033F984F859002822D4E900B028
:101D70000A9058460A990CF029F984F85A00202252
:101D8000D4E90010CDE90801084608990CF01EF9C5
:101D900084F85B001822D4E90010CDE9060108465A
:101DA00006990CF013F984F85C001022D4E90010B5
:101DB0003AE000006D6420213D2030006D617472B6
:101DC000697873736C2D332D332D6F70656E5C6382
:101DD000727970746F5C6469676573745C73686151
:101DE000312E630025733A25642073736C4173733D
:101DF000657274282573290A00000000480A002033
:101E00009979825AA1EBD96EDCBC1B8FD6C162CA0C
:101E10000123456789ABCDEFF0E1D2C3627566203F
:101E2000213D203000000000CDE90401084604995E
:101E30000CF0CCF884F85D000822D4E90010CDE95C
:101E40000201084602990CF0C1F884F85E0020688F
:101E500084F85F002046FFF7C9FD002521E004F16A
:101E6000080050F82500000E06F8250004F10800CF
:101E700050F82500000C042101FB0561487004F1B5
:101E8000080050F82500000A042101FB0561887054
:101E900004F1080050F82500042101FB0561C87019
:101EA0006D1C052DDBDB602120460CF0C6F81420EC
:101EB00018E70000F0B503460E46144619688F195E
:101EC00000202060781A012802DA6FF00800F0BDC7
:101ED0000878802806D1491C1960701E20604FF4D4
:101EE0005B70F4E7087800F07F0211F801CB1CF07A
:101EF000800F1AD0042A04D87F2A02D0781A904280
:101F000002D26FF00800E2E7002503E0087840EA1B
:101F10000525491C1000A2F10102F7D1B5F1004FCF
:101F200002D36FF00800D2E72A4619602260002031
:101F3000CDE72DE9FC4107460D4614461E462868AC
:101F4000019084B1019810F8011B019002290AD177
:101F5000611E6A4601A8FFF7ADFF002803DB601E83
:101F60000099884203D26FF01E00BDE8FC81314623
:101F70003846009A01F04EFC10B16FF00700F4E70C
:101F80003046DDE9002101F0F7FC28B1304601F0D0
:101F90009EFB6FF01E00E8E7DDE9001008440190A9
:101FA000019828600020E0E778B505460C46164603
:101FB0002868009064B1009810F8011B0090302947
:101FC00006D1611E32466846FFF774FF002802DA28
:101FD0006FF01E0078BD3068A04202D96FF0080093
:101FE000F8E7009828600020F4E778B505460C462D
:101FF0001646286800907CB1009810F8011B0090EC
:10200000312909D1611E32466846FFF753FF002887
:1020100002DB3068A04202D96FF01E0078BD009844
:1020200028600020FAE72DE9FC4306460D461746D6
:1020300030680190019800EB050965B1019810F82E
:10204000011B0190022906D1691E6A4601A8FFF70B
:1020500031FF002803DA6FF01E00BDE8FC83009812
:10206000042805D80198A9EB00000099884202D203
:102070006FF00800F1E700240198007810F0800F5D
:1020800016D008E00198007880F0FF0040EA0424B0
:102090000198401C01900099481E00900029F1D140
:1020A000A04608F10108C8F10008C7F800800DE05B
:1020B00006E00198007840EA04240198401C019051
:1020C0000099481E00900029F3D13C6001983060CF
:1020D0000020C2E72DE9FE4705460F4616469A4600
:1020E000DDF82C80286802900298C41937B101AA43
:1020F000394602A8FFF758FF002803DA6FF01E00E8
:10210000BDE8FE870298201A012802DA6FF0080065
:10211000F6E70298A4EB0009029810F8011B029060
:1021200006290BD10298211A6A4602A8FFF7C2FEBF
:10213000002803DBDDE90010884202D26FF01E00A8
:10214000DEE70298201A022802DA6FF00800D7E7CB
:10215000BAF1000F0AD0029800782A2806D0029817
:102160004078862802D06FF00900C9E7002030606F
:1021700007E0306802990978084430600298401CF2
:1021800002900099481E00900029F2D10298201A6E
:10219000A9EB00090198A0EB0900C8F8000002981B
:1021A0000078052803D0029828600020A8E702984C
:1021B000201A022802DA6FF00800A1E7D8F8000020
:1021C000801EC8F800000298801C2860002097E755
:1021D0002DE9FF4180460E4615461C4630680390A7
:1021E000682120460BF029FF85B1039810F8011BE8
:1021F000039003290AD1691E02AA03A8FFF75AFE19
:10220000002803DB681E0299884204D26FF01E008A
:1022100004B0BDE8F081039810F8017B039057B13A
:1022200017A04FF49D731BA225A100902A480CF023
:1022300041F905F0FDFA01AA03A80299FFF7B4FEDF
:10224000002810DB04F1180303A94046019AFFF7A8
:1022500070FE002807DB234603A94046019AFFF7DA
:1022600068FE002802DA6FF01E00D1E704F11800C2
:1022700001F0D4FB2066039830600020C8E700001E
:1022800069676E6F72655F62697473203D3D2030CF
:10229000000000006D617472697873736C2D332DCA
:1022A000332D6F70656E5C63727970746F5C6B65F3
:1022B00079666F726D61745C61736E312E630000BC
:1022C00025733A25642073736C41737365727428A7
:1022D0002573290A00000000480A00202DE9FE4F5E
:1022E00082460F4614461D460C9E3868029002989E
:1022F00000EB040994B1029810F8011B0290032925
:102300000CD1611E01AA02A8FFF7D4FD002805DB4D
:102310000298A9EB00000199884203D26FF01E00D9
:10232000BDE8FE8F029810F8018B0290B8F1000F03
:102330000AD0EAA040F29923EDA2F8A10090FD484E
:102340000CF0B8F805F074FA0198401E306030685F
:102350000CF0FCF82860286810B96FF00700DFE780
:102360003268286802990BF041FE306802990844EF
:1023700038600020D4E72DE9F05F884691469A4600
:10238000DDF828B00026D8F800509AE086B9202061
:102390000CF0DCF8064604461CB96FF00700BDE8F7
:1023A000F09F202130460BF048FECBF8006014E08F
:1023B0003746F46901E02746E469002CFBD1202070
:1023C0000CF0C4F8F861F86910B96FF00700E6E79F
:1023D000FC69202120460BF030FE287800F00F0029
:1023E00020606D1C206809283DD2DFE800F0050B55
:1023F00011171D232B313700CFA0016861600079D0
:10240000207238E0CEA0016861600079207232E06D
:10241000CDA00188A1808078A0712CE00B22CBA1F7
:10242000201D0BF0E3FD26E00D22CBA1201D0BF0BB
:10243000DDFD20E0CCA0D0E900128068C4E90112E3
:10244000E06018E0CCA00188A1808078A07112E043
:102450000922CAA1201D0BF0C9FD0CE0CAA207CABF
:10246000231D07C307E0CCA001686160818821813A
:102470008079A07200BF00BF15F8010BA061AAEB24
:102480000500A169884202D26FF0080087E7A169C0
:10249000481C0CF05BF86061606910B96FF00700D0
:1024A0007DE7A269511C60690BF0C7FD2946D4E99C
:1024B00005020BF09BFDA0690544A069801CA9EBF7
:1024C0000009B9F1000F3FF761AFC8F800500020D4
:1024D00065E730B50346002200BF02EB8200B04D35
:1024E00005EB80000069401C01D1401E30BD02EBAD
:1024F0008200AB4D05EB800400210EE0585C655C6A
:10250000A84200D00BE00F2906D102EB8200A44DB7
:1025100005EB80000069E9E7491C1029EEDB00BFEC
:10252000521CDAE72DE9FF4FA3B00E4617469A4634
:10253000309D30682190219800EB070827B96FF093
:10254000050027B0BDE8F08F219800784AF0A0017F
:10255000884201D00020F4E72198401C2190219866
:10256000A8EB00011FAA21A8FFF7A4FC002805DBA7
:102570002198A8EB00001F99884202D26FF01E003C
:10258000DFE72198A8EB00011FAA21A8FFF70CFDA7
:10259000002802DA6FF01E00D3E71F992198441833
:1025A00045E12198211A1EAA21A8FFF7FDFC002869
:1025B00002DA6FF01E00C4E7DDF884B02198201A1B
:1025C000012805DB219810F8011B2190062902D073
:1025D0006FF01E00B5E72198211A1FAA21A8FFF766
:1025E00069FC002804DB2198201A1F99884202D236
:1025F0006FF01E00A5E702A8FFF79DF807E0012293
:1026000002A82199FFF7B3F82198401C21901F9947
:10261000481E1F900029F2D11AA902A8FFF7F0F86E
:102620001AA8FFF756FF81460020209021980078D5
:10263000012813D12198401C2190219810F8011BEA
:102640002190012902D06FF01E007AE7219810F83E
:10265000011B2190002901DD012020902198201AE2
:10266000012812DB219810F8011B219004290CD1BC
:102670002198211A1FAA21A8FFF71CFC002804DBBF
:102680002198201A1F99884202D26FF01E0058E745
:10269000B9F1010F03D0B9F1050F1ED1A0E02198C7
:1026A000211A1FAA21A8FFF77FFC002802DA6FF089
:1026B0001E0046E71F9800B9B8E02198007801286D
:1026C00079D12198401C2190219810F8011B21906C
:1026D000012969D06FF01E0033E79BE069676E6FD8
:1026E00072655F62697473203D3D20300000000018
:1026F0006D617472697873736C2D332D332D6F7027
:10270000656E5C63727970746F5C6B6579666F720D
:102710006D61745C783530392E63000025733A257D
:10272000642073736C417373657274282573290A6E
:1027300000000000480A00206F7468657200000005
:10274000656D61696C000000444E53007834303090
:1027500041646472657373006469726563746F7257
:10276000794E616D6500000065646950617274792D
:102770004E616D650000000055524900695041648A
:1027800064726573730000007265676973746572C3
:102790006564494400000000756E6B6E6F776E00D3
:1027A00078EC000807E0FFE721980078286021987E
:1027B000401C219001E00020286021980078022828
:1027C0000AD12198211A2A1D21A8FFF72CFC0028E4
:1027D00005DA6FF01E00B4E64FF0FF30686025E0C8
:1027E0002198211A1FAA21A8FFF7DEFB002802DA90
:1027F0006FF01E00A5E605F108002346009021A910
:102800001F9A2398FFF7B7FD002802DA6FF01E0029
:1028100097E60BE02198401C21902198A0EB0B003B
:102820001E99081A21990844219000BF00BF2198E1
:10283000A04204D02198007830283FF4B2AE21980D
:10284000306000207DE62DE9FC4782460D461646A5
:102850009846DDE90A74286801901EB96FF01E00E1
:10286000BDE8FC870198007848F0A001884201D0BB
:102870000020F5E70198401C01902246314601A84E
:10288000FFF718FB002802DA6FF01E00E8E7019856
:1028900010F8019B0190B9F1000F0DD0AFF2C410F8
:1028A00040F22353AFF2B812AFF290110090FE48FD
:1028B0000BF000FE04F0BCFF20680BF047FE386010
:1028C000386810B96FF00700CAE7226838680199C4
:1028D0000BF08CFB20680199084428600020BFE7BA
:1028E0002DE9F04F9FB0884691461C46D8F800006D
:1028F0000590DDF814A003AA494605A8FFF754FB8C
:10290000002804DA6FF01E001FB0BDE8F08F0399B5
:1029100005984518289810F0020F10D0A5EB0A0072
:102920002063206B0BF012FEE062E06A10B96FF0DA
:102930000700E9E75146D4E90B020BF057FB06A864
:10294000FFF755F936E10598291A02AA05A8FFF7FD
:102950004CFB002802DA6FF01E00D5E70598291A13
:1029600003AA05A8FFF720FB002802DA6FF01E007B
:10297000CAE70598854212D9059810F8011B059001
:1029800006290CD10598291A01AA05A8FFF792FA81
:10299000002804DB0598281A0199884202D26FF0BA
:1029A0001E00B1E70598C8F800000598281A02280B
:1029B00002DA6FF00800A7E7059810F8011B0590F0
:1029C000552905D1059810F8011B0590042925D03B
:1029D000D8F8000005900598291A0198401C8142FA
:1029E00002D26FF008008FE70198401C0599084457
:1029F00005900598291A03AA05A8FFF75BFA002895
:102A000004DB0598281A0399884202D26FF01E0051
:102A10007AE70399059808440590CBE001980328CC
:102A200003D10598281A022802DA6FF008006BE734
:102A3000059810F801BB0590059810F8017B0590EA
:102A40000598291A03AA05A8FFF734FA002804DB21
:102A50000598281A0399884202D26FF0080053E7BC
:102A600000200490142F0FD004DC0C2F08D0132F5B
:102A700036D104E0162F04D01E2F31D105E000BF5F
:102A800000BF0120049000BF00BF0398801C0BF022
:102A90005DFD064616B96FF0070035E73046039A2C
:102AA00005990BF0A3FA00200399705400210398B4
:102AB000401C3154049858B130460BF0CAFA0399BF
:102AC000884205D030460BF013FD6FF01E001BE767
:102AD00003990598084405900398801C039002E030
:102AE0006FF0090010E700BFABF10300092854D2D2
:102AF000DFE800F0455353051D11532937002068C6
:102B000010B120680BF0F4FC266038B2A086039860
:102B100000B2E08646E0606810B160680BF0E8FC47
:102B2000666038B22087039800B260873AE0A068F8
:102B300010B1A0680BF0DCFCA66038B2A087039847
:102B400000B2E0872EE0E06810B1E0680BF0D0FC46
:102B5000E66038B2A4F84000039800B2A4F842003E
:102B600020E0206910B120690BF0C2FC266138B268
:102B7000A4F84400039800B2A4F8460012E060698B
:102B800010B160690BF0B4FC666138B2A4F848007B
:102B9000039800B2A4F84A0004E030460BF0A8FC09
:102BA000002600BF00BF26B1314606A8039AFFF7F2
:102BB0003CF800BF0598A842FFF4C5AE04F1180127
:102BC00006A8FFF779F80598C8F8000000209BE6F2
:102BD0002DE9FE4F8246884615469946DDE90C6789
:102BE000D8F800000290029844198DB1029810F8AC
:102BF000011B029030290BD1691E01AA02A8FFF720
:102C000059F9002804DB0298201A0199884203D25E
:102C10006FF01E00BDE8FE8F0298201A012807DB26
:102C200002980078172806D002980078182802D059
:102C30006FF01E00EEE702980078C9F800000298D5
:102C4000401C02906A4602A80199FFF733F9002858
:102C500004DB0298201A0099884202D26FF01E000D
:102C6000D8E70098401C0BF071FC3060306810B958
:102C70006FF00700CEE73068009A02990BF0B6F9C2
:102C800000203168009A8854009902980844029004
:102C90000298201A01280ADB02980078172809D028
:102CA00002980078182801E0480A002002D06FF04E
:102CB0001E00AFE70298401C0290DDE90020811A57
:102CC0006A4602A8FFF7F6F8002804DB0298201AEB
:102CD0000099884202D26FF01E009BE70098401CCA
:102CE0000BF034FC3860386810B96FF0070091E7DA
:102CF0003868009A02990BF079F900203968009A37
:102D0000885400990298084402900298C8F800007C
:102D100000207FE72DE9FC4180460E4614461D4603
:102D2000089F3068019001980078822807D00198A8
:102D30000078022803D06FF01E00BDE8FC810198E6
:102D4000401C019054B1611E6A4601A8FFF7B2F819
:102D5000002803DB601E0099884202D26FF01E003B
:102D6000EBE700983860009898B100980BF0EEFB04
:102D70002860286810B96FF00700DEE72868DDE9F1
:102D800000210BF033F9DDE90010084401900198AF
:102D900030600020D1E72DE9FC4105460C4617467E
:102DA0001E46286801901CB96FF01E00BDE8FC812A
:102DB0000198007847F0A001884202D000203060DE
:102DC000F4E70198401C0190611E6A4601A8FFF7D4
:102DD00071F8002803DB601E0099884202D26FF070
:102DE0001E00E3E7324601A80099FFF71CF900280E
:102DF00002DA6FF01E00D9E7019828600020D5E7BD
:102E00002DE9FF4FA1B00E4692469B462E9F4FF4F0
:102E100088700BF09BFB0446CBF8000024B96FF0E0
:102E2000070025B0BDE8F08F4FF4887120460BF005
:102E300004F91F961F9800EB0A0501201D909DE1E3
:102E4000DDF87C801F98291A1EAA1FA8FFF7ACF88E
:102E50001C90002801DA1C98E3E717F0010F18D046
:102E60001F98A0EB08001E990844C4F80801D4F884
:102E700008010BF06BFBC4F80401D4F8040110B98D
:102E80006FF00700CDE7414604F5827005C80BF0EE
:102E9000ADF8DDF87C801F98291A1EAA1FA8FFF73D
:102EA00083F81C90002801DA1C98BAE7DDE91E10AF
:102EB00000EB0109A9EB080003901F98291A23468B
:102EC00000221FA8FFF767FF1C90002801DA1C985A
:102ED000A7E704F1080000901F982A1A231D1FA9D4
:102EE0002198FFF717FF1C90002801DA1C9898E73B
:102EF00002A800901F98291A002304F1C0021FA8FD
:102F0000FFF7E8F81C90002801DA1C9889E702987E
:102F100060B1F9A040F28F13AFF62C02AFF60401B6
:102F20000090F8480BF0C6FA04F082FC00971F9856
:102F30002A1A04F10C031FA92198FFF7D1FC1C9059
:102F4000002801DA1C986CE704F1AC00011FCDE900
:102F500000101F982A1A0B1F1FA92198FFF738FE8F
:102F60001C90002801DA1C985BE700971F982A1A2A
:102F700004F158031FA92198FFF7B2FC1C90002808
:102F800001DA1C984DE71F98291A1EAA1FA8FFF7FF
:102F90000BF81C90002801DA1C9842E702A8009068
:102FA0001F98291A012304F1BC021FA8FFF792F809
:102FB0001C90002801DA1C9833E768200BF0C6FA51
:102FC000C4F8B000D4F8B00010B96FF0070028E7DB
:102FD0006821D4F8B0000BF030F8D4F8BC00A0F5AC
:102FE0000071063902D16FF009001AE7D4F8BC006D
:102FF000A0F50071853915D1D4F8B0301F982A1A80
:103000001FA92198FFF7E4F81C90002801DA1C980A
:1030100007E70121B8200151D4F8B000016EB420B7
:10302000015102E06FF00900FBE61F98007830289C
:103030002AD004F1E800011FCDE900101F982A1AD8
:1030400001231FA92198FFF7FEFB002819DB04F1DB
:10305000F000011FCDE900101F982A1A02231FA9B2
:103060002198FFF7F0FB00280BDB04F1F40000903F
:103070001F982A1A03231FA92198FFF753FA002843
:1030800002DA6FF01E00CCE61F98814502D06FF087
:103090000800C6E602A800901F98291A002304F130
:1030A000C4021FA8FFF716F81C90002801DA1C982C
:1030B000B7E6029860B190A04FF40273AFF6D01259
:1030C000AFF6A81100908F480BF0F4F904F0B0FBB4
:1030D000D4E93001884202D06FF02200A1E6D4F892
:1030E000C000B0F5227F0DD104A8FEF724FB4146B5
:1030F00004A8039AFEF73BFB04F1D00104A8FEF7F5
:103100007FFB12E0D4F8C000A0F5007189390CD122
:1031100004A8FEF76CFD414604A8039AFEF785FD5E
:1031200004F1D00104A8FEF7C7FD04F1CC00009023
:103130001F982A1A04F1C8031FA92198FFF7CEF897
:103140001C90002801DA1C986BE61F98A84213D047
:103150004FF488700BF0FAF9C4F80C01D4F80C01A4
:1031600010B96FF007005CE6D4F80C414FF4887199
:1031700020460AF062FF01E000201D901D98002803
:103180007FF45EAE1F98801B4BE610B504462068A6
:1031900010B120680BF0ACF9606810B160680BF0FA
:1031A000A7F9A06810B1A0680BF0A2F9E06810B10F
:1031B000E0680BF09DF9206910B120690BF098F9D7
:1031C000606910B160690BF093F9E06A10B1E06AD0
:1031D0000BF08EF910BD2DE9F0410646344664E04F
:1031E000D4F8040118B1D4F804010BF081F904F10A
:1031F0000C00FFF7CAFF04F15800FFF7C6FF606834
:1032000010B160680BF074F9D4F8A80018B1D4F8C4
:10321000A8000BF06DF9D4F8AC0018B1D4F8AC00EC
:103220000BF066F9D4F8C80018B1D4F8C8000BF058
:103230005FF9D4F8E40018B1D4F8E4000BF058F9C1
:10324000D4F8EC0018B1D4F8EC000BF051F9FC20E4
:10325000005968B1FC20055908E0D5F81C80686960
:103260000BF046F928460BF043F94546002DF4D102
:10327000D4F8B00098B1D4F8BC00A0F5007185393D
:1032800009D1D4F8B01001F1180000F020FAD4F8F8
:10329000B00000F01CFAD4F8B0000BF029F9D4F813
:1032A0000C7120460BF024F93C46002C98D1BDE867
:1032B000F081F0B58BB005460E4617460A960A987F
:1032C000C4190A98211A02AA0AA8FEF76DFE00285E
:1032D00003DA6FF01E000BB0F0BD03A800900A984F
:1032E000211A002304AA0AA8FEF7F4FE00280BDA2C
:1032F0006FF01E00EFE70000706C656E203D3D2012
:1033000030000000480A0020039868B1AFF21800AE
:1033100040F20F73AFF62842AFF6004100908F489D
:103320000BF0C8F804F084FA0A9810F8011B0A9010
:1033300004290CD10A98211A02AA0AA8FEF7BAFD9C
:10334000002804DB0A98201A0299884202D26FF002
:103350001E00C0E705A8029A0A990AF047FE0498E1
:10336000A0F50071893904D00498A0F50071863960
:1033700005D1029810280ED06FF00800ABE7049832
:10338000582805D10298142805D06FF00800A2E74C
:103390006FF009009FE7294605A8029A0AF061FE2E
:1033A00010B16FF0230096E7002094E72DE9F04F6D
:1033B0008FB00F46164600200390049083461FB935
:1033C000801F0FB0BDE8F08F16B94FF000080AE07B
:1033D000D6F80C0110B16FF00500F2E74FF00108CC
:1033E0000020C6F800013C4604E00020C4F80001BB
:1033F000D4F80C41002CF8D13C46D4F80C512DB92E
:10340000B8F1000F01D0354600E02546A1E028685C
:10341000012808DDD5F8F400002804DC6FF01F0057
:10342000C4F80001CDE7142205F1700104F1240075
:103430000AF017FE20B16FF02000C4F80001C0E7C9
:103440006FF0090AD4F8C400B0F5227F05D0D4F893
:10345000C400A0F50071863903D14FF0050A4FF082
:10346000220BD4F8C400A0F50071893903D14FF0C4
:10347000230B4FF0050A1AF10A0005D16FF0210065
:10348000C4F8000150469CE7BAF1050F43D1BBF1E7
:10349000270F0CD932A040F2B263AFF6AC52AFF6B0
:1034A000845100902D480BF005F804F0C1F9D4F8D0
:1034B000CC000BF04BF88146B9F1000F02D16FF050
:1034C00007007EE704F1C8044846D4E900120AF078
:1034D0008DFD05A8CDE9000B6368A4F1C8044A4638
:1034E000D5F8B010039802F01AFE0490002808DA0C
:1034F0006FF02100C4F8000148460AF0F9FF049873
:103500005FE748460AF0F4FF5A4605A904F1D000E7
:10351000FFF7CFFE04900498002805DA6FF0210031
:10352000C4F8000104984CE70120C4F80001A5424A
:1035300001D100250DE0B54201D1002509E02C465E
:10354000D4F80C512DB9B8F1000F01D0354600E088
:103550002546002D7FF45BAF002032E7480A0020AB
:103560007369674C656E203C3D2073697A656F66B0
:10357000287369674F757429000000002DE9F04138
:1035800007460C461546A8000AF0E0FFA060A068B8
:1035900018B96FF00700BDE8F0810020208028B244
:1035A00060800020A080002605E00020A16841F88E
:1035B0002600701C86B2AE42F7D30020EBE770B550
:1035C00006460C464FF480700AF0C0FFA060A06869
:1035D00010B96FF0070070BD002504E00020A1685D
:1035E00041F825006D1C402DF8DB00202080402094
:1035F00060800020A08000BFEDE72DE9F041044687
:103600000D46B4F90200A84218DAA900A0680BF030
:1036100035FA07461FB96FF00700BDE8F081A760D3
:10362000B4F90260658005E00020A16841F8260039
:10363000701C06B2B4F90200B042F5DC0020ECE7E1
:103640002DE9F04104460D46AC4202D10020BDE810
:10365000F081B5F90200B4F90010884208DAB4F933
:1036600000102846FFF7C9FF070001D03846EEE7F3
:10367000A168A868002602E004C904C0761CB4F959
:103680000020B242F8DC02E0002204C0761CB5F94A
:103690000020B242F8DC20882880A088A880002082
:1036A000D5E703E00188491E09B20180B0F9001096
:1036B000002907DDB0F90010491E826852F8211078
:1036C0000029EFD0018809B900218180704770B5C9
:1036D0000446A06890B1002504E00020A16841F8EC
:1036E00025006D1CB4F90000A842F6DCA0680AF0C1
:1036F000FFFE0020A06020806080A08070BD2DE9CA
:10370000F04F89B005460E4617469846DDE913ABE3
:10371000DDF84890009501960297CDF80C80CDF821
:103720001090CDF814A0CDF818B01598079000208F
:103730000890002404E05DF82400FFF7C8FF641C33
:103740005DF824000028F6D109B0BDE8F08F002311
:10375000838003808268002102E0002308C2491CA4
:10376000B0F902308B42F8DC704770B50246B2F90E
:103770000000B1F90060B04201DD012070BDB2F976
:103780000000B1F90060B04202DA4FF0FF30F5E717
:10379000B2F90000401E966806EB8003B2F9000003
:1037A000401E8E6806EB8004002510E0186826682D
:1037B000B04201D90120E1E718682668B04202D280
:1037C0004FF0FF30DAE7681C05B21B1F241FB2F967
:1037D0000000A842EADC0020D0E730B504460D46E0
:1037E000B4F90400B5F90410884206D0A088012875
:1037F00001D1801E30BD0120FCE7A088012804D142
:1038000021462846FFF7B1FFF4E729462046FFF797
:10381000ACFFEFE72DE9F04105460E461446A0083F
:103820004001022101EB50173A4631462846FFF786
:10383000A5FEBDE8F0812DE9F04104460D46002DBE
:1038400002DC0020BDE8F081B4F90200B4F90010F8
:103850002944884209DA2088284401B22046FFF72B
:10386000CCFE070001D03846ECE722882A4412B289
:103870002280B4F90030A26802EB8302101FB4F971
:103880000030A26802EB8302121FA2EB850122889E
:10389000521E16B205E051F8042940F80429721EA0
:1038A00016B2AE42F7DAA068002603E0002204C098
:1038B000721C16B2AE42F9DB0020C3E72DE9F05FBF
:1038C00082460D46144621465046FFF7B9FE18B110
:1038D0006FF00700BDE8F09F202D0ADBE81705EB2D
:1038E000D06041112046FFF7A6FF10B16FF007002E
:1038F000F0E72846E91705EBD1614911A5EB411521
:10390000ADB30027C5F1200900260FE0A06850F8EC
:10391000260020FA09F8A06850F82600A84038448C
:10392000A16841F826004746701C06B2B4F90000B1
:10393000B042EBDCDFB1B6F5805F18DAB4F9000015
:10394000B4F90210884209D16088401C01B22046B7
:10395000FFF753FE10B16FF00700BBE7B4F900109A
:1039600088B2401C00B22080A06840F82170204638
:10397000FFF797FE0020ADE770B504460E461546EA
:103980002046FFF7E4FEA8084001022101EB501099
:1039900000B22080B4F90200B4F90010884208DABD
:1039A000B4F900102046FFF728FE10B16FF00700B1
:1039B00070BD14E0224608212046FFF77FFF10B1BA
:1039C0006FF00700F4E716F8010BA16809680843D7
:1039D000A16808602088401C00B220806D1E002D68
:1039E000E8DC2046FFF75DFE0020E1E710B5014668
:1039F000088808B9002010BD0888401E400103B2A5
:103A0000B1F90000401E8C6854F8202002E0581CD8
:103A100003B25208002AFAD11846ECE730B5054641
:103A20002846FFF7E3FF0446214614F0070F01D0B4
:103A3000012000E00020CA1701EB527200EBE20007
:103A400030BD30B504460D462046FFF780FEA06825
:103A50000560A068006808B1012000E00020208017
:103A600030BD70B504460E46B4F90000B04203DC28
:103A70002046FFF76CFE70BD002508E0A919A0687C
:103A800050F82100A16841F82500681C05B2B4F97E
:103A90000000801BA842F1DC05E00020A16841F88D
:103AA0002500681C05B2B4F90000A842F5DC2088A6
:103AB000801B00B220802046FFF7F3FD00BFDAE74D
:103AC00070B505460C462846FFF741FE002C01DA8A
:103AD000002070BD2046E11704EBD1614E11B6F510
:103AE000805F02DB6FF00800F3E7701C00B22880F3
:103AF000B5F90000B5F90210884208DDB5F90010EB
:103B00002846FFF77AFD10B16FF00700E1E7204685
:103B1000E11704EBD1614911A4EB4112012191405D
:103B2000AA6842F826100020D3E72DE9F0470546A1
:103B30000C46B4F90210B5F90000401C81420ADAC3
:103B40002888401C01B22046FFF757FD070002D02D
:103B50003846BDE8F087B4F9008028882080A9683D
:103B6000A068002200260EE0D1F800C04FEADC7306
:103B700051F8049B42EA490C40F804CB1A4606F17E
:103B8000010C0FFA8CF6B5F900C0B445ECDC92B12B
:103B9000B4F900C0ACF57069B9F1FF090BD04FF072
:103BA000010CC0F800C0B4F800C00CF1010C0FFA11
:103BB0008CFCA4F800C0B4F90090D4F808C00CEB59
:103BC0008900B4F9006007E04FF0000C40F804CB26
:103BD00006F1010C0FFA8CF64645F5DBA888A080AB
:103BE0000020B6E72DE9F74F84B0074690460598C8
:103BF000B0F90000B7F90010884204DD6FF008004A
:103C000007B0BDE8F08FB8F90200B7F9001088429C
:103C100008DAB7F900104046FFF7EFFC060001D0C4
:103C20003046EDE7B8F9000001900598B0F90000C2
:103C300002903888A8F800000024254600261DE0E0
:103C4000B86850F8260000220599896851F82610B6
:103C5000091942EB0503441A62EB0305D8F8080082
:103C600040F826402022A146AB46484659460AF075
:103C7000ADF9012300EA03040025761C0298864270
:103C8000DEDB14E0B86850F8261000200C1B60EB57
:103C90000505D8F8080040F826402022A2465046E4
:103CA000294603950AF092F904460D46761CB7F9A9
:103CB0000000B042E6DC05E00020D8F8081041F82A
:103CC0002600761C01988642F6DB4046FFF7E9FCA9
:103CD000002095E72DE9F74F84B092460498B0F99B
:103CE000000001900598B0F900100198814203DDB1
:103CF0000598B0F900000190BAF900000090019811
:103D0000AAF80000BAF90000BAF9021088420ADDE8
:103D1000BAF900105046FFF770FC20B16FF00700B1
:103D200007B0BDE8F08F00242546A34632E0049892
:103D3000B0F90000584502DA0026374604E004983E
:103D4000806850F82B6000270598B0F900005845AE
:103D500003DA4FF00008C14605E00598806850F886
:103D60002B804FF0000916EB080147EB09000C19F6
:103D70004541DAF8080040F82B4020222046294629
:103D8000CDE902540AF022F904460D460BF1010078
:103D90000FFA80FB01988345C9DB002184EA01000A
:103DA0006940084322D0BBF5805F1FDABAF90000F2
:103DB000BAF9021088420AD1BAF80200401C01B2D6
:103DC0005046FFF71AFC10B16FF00700A8E7BAF9E8
:103DD000001088B2401C00B2AAF80000DAF808000F
:103DE00040F821400BF101000FFA80FBAAF800B067
:103DF00008E00020DAF8081041F82B000BF1010070
:103E00000FFA80FB00988345F3DB5046FFF749FC2F
:103E1000002085E72DE9F047074688461446B7F9A4
:103E20000460B8F904904E450AD0A6802246414667
:103E30003846FFF74FFF050020D02846BDE8F08741
:103E400041463846FFF791FC401C09D0A680224627
:103E500041463846FFF7C6FE05000FD02846EDE77D
:103E60000EB9012000E00020A080224639464046DD
:103E7000FFF7B8FE050001D02846DFE70020DDE7A8
:103E80002DE9FE4307460C4615461E4604226946A8
:103E90003846FFF773FB18B16FF00700BDE8FE83EB
:103EA00029466846FFF7CDFD324669462046FFF7B2
:103EB000B1FF80466846FFF70AFC4046EEE710B5C2
:103EC00003460C469868026812F0010F02D16FF0A9
:103ED000050010BD901C00F0040002EB400102FB45
:103EE00001F0C0F10200414302FB01F0C0F1020009
:103EF000414302FB01F0C0F102004143484220600F
:103F00004FF00000E5E72DE9F04106460C4620465B
:103F1000FFF76CFD8046C01708EBD0604011A8EB9E
:103F2000401707B92027B4F9000001280DDD2088CB
:103F3000401E07EB4010401E01B23046FFF7C0FDA7
:103F4000050007D02846BDE8F08101213046FFF783
:103F500078FD01277D1E17E031463046FFF7E5FD6D
:103F600010B16FF00700EEE721463046FFF7FDFB8A
:103F7000401C08D0324621463046FFF733FE10B1D0
:103F80006FF00700DFE76D1C202DE5DB0020DAE78E
:103F90002DE9F04107460C461546002C05DC284665
:103FA000FFF7D5FB0020BDE8F08129463846FFF732
:103FB00047FB10B16FF00700F5E7B7F900004001CB
:103FC000A04201DC0020EEE72046E21704EBD262BB
:103FD00052112146E31704EBD3635B11B4EB431397
:103FE00001D0012300E000231A4416B205E00020AE
:103FF000A96841F82600701C06B2B5F90000B0426D
:10400000F5DCE11704EBD1614911AA6852F82110DF
:10401000C4F120034FF0FF32DA4011402046E2178E
:1040200004EBD2625211AB6843F822102846FFF726
:1040300038FB0020B7E72DE9FC5F80468B4616462B
:10404000B6F90210B8F90000401C81420BDAB8F84A
:104050000000401C01B23046FFF7CFFA019010B1CA
:104060000198BDE8FC9FB6F900000090B8F8000088
:104070003080B8F80400B08000242546002715E001
:10408000D8F8080050F82700A0FB0B100C19454188
:10409000B06840F827402022A146AA46484651462B
:1040A00009F094FF04460D46781C07B2B8F90000E9
:1040B000B842E5DC002184EA0100694008430FD0E2
:1040C000B8F80000B0F5805F0AD0B6F9001088B2E9
:1040D000401C00B23080B06840F82140781C07B224
:1040E00005E00020B16841F82700781C07B200986D
:1040F0008742F6DB3046FFF7D4FA0020B1E72DE91E
:10410000FF4F85B014461D46129E002C0FDC294639
:104110000698FFF795FA20B16FF0070009B0BDE8E7
:10412000F08F16B13046FFF712FB0020F6E786B19C
:1041300001A90598FFF743FA10B16FF00700EDE70A
:1041400001AA21460698FFF723FF10B16FF0070878
:1041500047E029460698FFF773FA10B16FF0070899
:104160003FE0202C07DBA346E01704EBD0604111B1
:104170002846FFF776FC2046E11704EBD161491190
:10418000A4EB41173FB30123BB40591EC7F12002E6
:10419000B5F900305B1ED5F808C00CEB83004FF07A
:1041A000000A2B885B1E0FFA83F910E003680B40AE
:1041B00004930368FB400AFA02FC43EA0C03036021
:1041C000001FDDF810A0A9F101030FFA83F9B9F17E
:1041D000000FEBDA00BF2846FFF763FA4FF0000844
:1041E00000BF4EB1314601A8FFF72AFA08B16FF0BF
:1041F000070801A8FFF76BFA40468FE72DE9F04169
:1042000005460C46B4F90200B5F90010884209DAF7
:10421000B5F900102046FFF7F0F918B16FF007006C
:10422000BDE8F081B4F9007028882080B4F90080DE
:10423000D5F808C00CEB880CACF10401B4F900808F
:10424000D4F808C00CEB880CACF104000023B4F8DF
:1042500000C0ACF1010C0FFA8CF610E0D1F800C0F0
:104260000CF0010251F804894FEA580C4CEAC37C67
:1042700040F804C91346A6F1010C0FFA8CF6002E83
:10428000ECDAB4F90080D4F808C00CEB8800B4F97B
:10429000006007E04FF0000C40F804CB06F1010C81
:1042A0000FFA8CF6BE42F5DBA888A0802046FFF707
:1042B000F8F90020B4E72DE9F04780460E46144691
:1042C0001F46A64202D10020BDE8F087B4F9025093
:1042D0005FB1B4F90000022101EB4000A84204DB09
:1042E0002088032101EB400005B22A4631464046B2
:1042F000FFF744F95FEA000901D04846E4E7314698
:104300002046FFF79DF9DFE72DE9F04706460F4607
:104310001446B6F90480B7F90490C8450BD1A4F847
:104320000480224639463046FFF7D4FC05001ED0F3
:104330002846BDE8F08739463046FFF716FA401C9C
:104340000AD1A4F80490224631463846FFF74AFCC9
:1043500005000CD02846ECE7A4F804802246394634
:104360003046FFF73FFC050001D02846E1E700207A
:10437000DFE72DE9FF4F95B0884617469946388804
:1043800008B9012000E00020012804D16FF00800E6
:1043900019B0BDE8F08F39464046FFF7E6F9401CFA
:1043A00011D1229838B140462299FFF749F910B14E
:1043B0006FF00700ECE7B9F1000F02D04846FFF7B5
:1043C000C6F90020E4E7B8F9022007A91598FFF71D
:1043D000D5F8039008B10398DAE7032204A91598E9
:1043E000FFF7CCF8039000B1BEE1002342460DA9CF
:1043F0001598FFF760FF039000B1B1E1B7F9000035
:1044000000EB40020AA91598FFF7B8F8039000B135
:10441000A2E10AA93846FFF713F9039000B197E12A
:10442000B8F90400B7F90410884201D0012000E077
:10443000002002900020ADF82C00ADF838000AA84A
:10444000FFF7D4FAC117019000EBD1604111019838
:10445000A0EB411ABAF11F0F13DACAF11F000FFACD
:1044600080FA0DAA51460DA8FFF728FA039000B173
:104470006EE10AAA51460AA8FFF720FA039010B18C
:1044800066E14FF0000ABDF83400401E06B2BDF8E8
:104490002800401E05B2701B421C10A91598FFF79A
:1044A0006DF8039000B153E1701B401C00B2ADF8F1
:1044B0004000701B01B20AA8FFF7BDF9039000B1DC
:1044C00042E110E0711B129850F82100401C721B51
:1044D000129941F822000DAA0AA90DA8FFF79AFC2B
:1044E000039000B130E10AA90DA8FFF776F9401C4E
:1044F000E8D1701B01B20AA8FFF7B3FA3446DBE03B
:10450000BDF93400A04200DAD4E00F9850F824003E
:104510000C9951F82510884207D14FF0FF31601BEC
:10452000401E129A42F8201025E00F9850F824B04F
:104530000020202213905846139909F038FDCDE948
:104540000001601E0F9951F82000DDE9002310439F
:10455000CDE900030C9850F825C062460023DDE940
:10456000000109F0F3FC0090611B491E129A0098AB
:1045700042F8210000BF601B401E129951F8200034
:10458000401C0A46611B491E42F8210000BF601B07
:10459000401E129951F82000401E0A46611B491E18
:1045A00042F8210007A8FFF7D2F8681E01D50020C5
:1045B00003E0681E0C9951F82000099908600C98D6
:1045C00050F82500099948600220ADF81C00601BD6
:1045D000401E129A52F8201007AA07A8FFF72BFDD9
:1045E000039000B1B0E0A01E01D5002003E0A01EA2
:1045F0000F9951F8200006990860601E01D500202F
:1046000003E0601E0F9951F82000069948600F984A
:1046100050F82400069988600320ADF8100004A922
:1046200007A8FFF7A2F80128B1D0601B401E129A1C
:1046300052F8201007AA0AA8FFF7FDFC039000B16A
:1046400082E0601B401E01B207A8FFF7F4F8039058
:1046500000B179E00DAA07A90DA8FFF7DBFB0390D5
:1046600000B171E0BDF83800012822D107A90AA8DD
:10467000FEF7E6FF039000B166E0601B401E01B24A
:1046800007A8FFF7D8F8039000B15DE00DAA07A9CD
:104690000DA8FFF739FE039000B155E0601B401EE6
:1046A000129951F82000401E0A46611B491E42F82B
:1046B000210000BF601E04B2681C8442BFF620AF18
:1046C000BDF8340008B9002001E0B8F90400ADF8E5
:1046D0003800B9F1000F0ED010A8FEF7E2FF4946EE
:1046E00010A8FEF7ADFF18B16FF0070003902BE0A4
:1046F0000298A9F80400229818B300200DAB524686
:104700000DA900901598FFF7FAFC039000B11BE08B
:10471000B7F9004005E000200F9941F82400601C23
:1047200004B2BDF93400A042F5DC0DA8FEF7B9FFD4
:104730000DA82299FEF784FF18B16FF007000390CF
:1047400002E00020039000BF10A8FEF7C0FF00BFEA
:104750000AA8FEF7BCFF00BF0DA8FEF7B8FF00BF18
:1047600004A8FEF7B4FF00BF07A8FEF7B0FF039848
:104770000EE61EB590E81C008DE81C0091E81C00B8
:1047800080E81C009DE81C0081E81C001EBD2DE98E
:10479000FF4106460F4614461D46B4F9022001A902
:1047A0003046FEF7EBFE5FEA000803D0404604B057
:1047B000BDE8F08101A8002322463946009030462A
:1047C000FFF7D7FD5FEA000804D001A8FEF77FFFDE
:1047D0004046ECE7BDF90800B4F90410884206D061
:1047E0002A46214601A8FFF78FFD804603E02946AF
:1047F00001A8FFF7BEFF01A8FEF769FF4046D6E714
:104800002DE9FF4F8DB09846002005908346069015
:104810000E9801880F980088084407B2B8F9020082
:10482000B84209DA39464046FEF7E7FE20B16FF09C
:10483000070011B0BDE8F08F1A9868B1B9001B9855
:10484000814202D96FF00800F3E71A9801901B9992
:10485000019809F0F2FB0BE0B80009F077FE019037
:1048600010B96FF00700E4E7B900019809F0E5FB23
:10487000002669E00F98B0F90000401EB04201DD4B
:10488000304603E00F98B0F90000401E00B20790D8
:104890000798301A00B208900E988168089801EBCA
:1048A000800004900F988168079801EB80000390C6
:1048B0000E98B0F900100898091A0798401C814218
:1048C00005DA0E98B0F900100898081A01E0079868
:1048D000401C00B20A90DDF818B005980690002040
:1048E0000590099027E0049802C80490039850F8B6
:1048F00004290390A1FB022012EB0B0440F10005F8
:10490000A3462022A146484629460C9509F05EFBA5
:10491000069A841841F1000506942022A2465046CA
:1049200029460B9509F052FB059908440590099812
:10493000401C00B20990DDE909018842D3DB0198EF
:1049400040F826B0701C06B2BE4293DBB8F90000F6
:104950000A90A8F800700E98B0F904000F99B1F908
:1049600004104840A8F80400D8F808000290002677
:1049700009E0019850F82610029801600298001D85
:104980000290701C06B2BE42F3DB07E000210298E1
:1049900001600298001D0290701C06B20A988642BF
:1049A000F4DB4046FEF77DFE1A9810B9019809F035
:1049B0009FFD00203DE72DE9F04786B082460C467A
:1049C00015461E460E9F208829880844401C0FFA71
:1049D00080F9BC4205D1B4F90200484501DDB4F9C3
:1049E00002904A4603A95046FEF7C8FD5FEA000858
:1049F00003D0404606B0BDE8F0870020009003AB2E
:104A00002A46214601905046FFF7FAFE5FEA000869
:104A100004D003A8FEF75BFE4046EBE73B46324678
:104A200003A95046FFF7B3FE804603A8FEF74FFEEA
:104A30004046DFE72DE9FF4F87B08B460998B0F974
:104A40000070149858B17800401C1599884206D817
:104A5000DDF850804046159909F0EFFA11E0790031
:104A6000481C09F073FD8046B8F1000F04D16FF0C7
:104A700007000BB0BDE8F08F7800411C404609F0FC
:104A8000DCFABBF900000290002607E0DBF8080022
:104A900050F8260048F82600701C06B2029886429C
:104AA000F4DB002648E04FF0000A58F826000A9987
:104AB0004843039008EB8609099880680490002019
:104AC00001901EE0DDE9031004C8A1FB022304905D
:104AD0000021D9F8000010EB0A004941141843EBFB
:104AE0000105C9F80040202220462946CDE9055499
:104AF00009F06CFA824609F104090198401C00B2E1
:104B000001900198B842DDDB11E0D9F8000000EB1C
:104B10000A040025C9F80040B4EB0A0175F1000051
:104B200001D2012000E00020824609F10409BAF117
:104B3000000FEAD1701C06B2BE42B4DB08EB870955
:104B4000DBF808000490002608E059F8041B0498DC
:104B500001600498001D0490701C06B2781C864207
:104B6000F3DB07E00021049801600498001D049025
:104B7000701C06B202988642F4DB781C00B2ABF8D7
:104B800000005846FEF78DFD002658460999FEF7AD
:104B9000ECFD401C07D05A4658460999FFF722F809
:104BA00008B16FF007067800401C1599884202D9B9
:104BB000404609F09DFC30465BE72DE9FF4F95B07C
:104BC00016980088400000B2099000208146804677
:104BD00004901798B0F902100998814209DA0999EE
:104BE0001798FEF70AFD20B16FF0070019B0BDE875
:104BF000F08F189870B1099881002298814202D9EB
:104C00006FF00800F2E7189800902299009809F0D8
:104C100014FA0DE00999880009F098FC009010B989
:104C20006FF00700E2E709988100009809F005FAA3
:104C30004FF0000AC5E01698B0F90000401E50453C
:104C400004DA1698B0F90000401E00E0504600B2A9
:104C500006900698AAEB000000B2079016988168AB
:104C6000079801EB8000029016988168069801EB86
:104C7000800003901698B0F900100798091A06985A
:104C8000401C814205DA1698B0F900100798081AFE
:104C900001E00698401C00B20590DDE90601401ACB
:104CA000401C0599B1EB600F01DA059804E0DDE9DD
:104CB0000601401A401C401000B20590C846DDF8BD
:104CC000109000200490089043E0029802C80290DF
:104CD000039850F80429A1FB0267039018EB06041F
:104CE00047F10005A046202220462946CDE90F5471
:104CF00009F06CF910EB090441F10005A1462022EE
:104D0000CB46584629460E9509F060F904990844A7
:104D1000049018EB060447F10005A0462022204627
:104D20002946CDE90C5409F051F9034613EB090467
:104D300041F10005A146202220462946CDE90A542A
:104D400009F044F90499084404900898401C00B202
:104D50000890059908988842B7DB1AF0010F29D10D
:104D6000169880684FEA6A0150F8211016988068FA
:104D70004FEA6A0250F82200A1FB002012EB08065D
:104D800040F10007B046202230463946CDE913767F
:104D900009F01CF9034613EB090641F10007B1467F
:104DA000202230463946CDE9117609F00FF90499F1
:104DB00008440490009840F82A800AF101000FFA94
:104DC00080FA09988245FFF636AF1798B0F90000CF
:104DD00008901799099808801798806801904FF0FB
:104DE000000A0BE0009850F82A1001980160019821
:104DF000001D01900AF101000FFA80FA099882451E
:104E0000F0DB09E00021019801600198001D01908C
:104E10000AF101000FFA80FA08988245F2DB179830
:104E2000FEF73FFC189810B9009809F061FB0020CC
:104E3000DCE62DE9FF4FEBB099466D98FEF7D6FD05
:104E40000446322C01DA022500E0032506A9484673
:104E5000FFF735F8059018B105986FB0BDE8F08FF1
:104E6000B9F90000012101EB400208A96B98FEF797
:104E700085FB059008B10598EFE7494608A8FFF7BC
:104E800042F8059000B1DFE1BDF920200EA96B9832
:104E9000FEF774FB059000B1D6E148466C99FEF729
:104EA00064FC012808D00EAB4A466C996B98FFF75A
:104EB0006EFC059038B1C3E10EA96C98FEF7C0FBFB
:104EC000059000B1BCE10EA84B4608AA0EA90090BF
:104ED0006B98FFF770FD059000B1B1E1BDF93800A6
:104EE000C01CC600304609F031FB070003D16FF04B
:104EF00007000590A4E1681E0122824002EB4200F7
:104F00000BAA02EB800101230EAA6B98FFF7D3F9DD
:104F100018B16FF0070005908EE100242BE0681EA9
:104F20000123834003EB43000BAB03EB8002681EBD
:104F30000123834003EB43000BAB03EB80013B46B3
:104F400000966B98FFF739FE059000B174E1681E7A
:104F50000122824002EB42000BAA02EB8001CDE964
:104F600000764A46069B6B98FFF764FD059000B1FA
:104F700062E1601C04B2681EA042D0DC012101FA8B
:104F800000F0401C04B229E0681E0123834003EBBB
:104F900043000BAB03EB8000B0F90200421C04EBB2
:104FA000440003EB80016B98FEF7E8FA059098B196
:104FB000681E012181400FFA81F80AE008EB4801E0
:104FC0000BAA02EB8100FEF782FB08F101000FFA49
:104FD00080F8A045F2DB2FE1601C04B20120A8405C
:104FE000A042D1DC681E012101FA00F0401C04B28D
:104FF00023E004EB44000BAA02EB8003601E00EBED
:10500000400002EB80010EAACDE900766B98FFF715
:10501000F7FB059000B1FCE004EB44000BAA02EBA7
:105020008001CDE900764A46069B6B98FFF702FDAA
:10503000059000B1EDE0601C04B20120A840A04240
:10504000D7DC0020039001200490002007906D9889
:105050000088401E00B202904FF0000BDA4600BFFD
:105060000498401E00B2049070B90298401C00D110
:105070007BE06D9882680298411E09B2029152F855
:1050800020000790202004900121079801EAD078A1
:10509000079840000790039818B9B8F1000F00D1A5
:1050A000DEE70398012818D1B8F1000F15D13B466F
:1050B00008AA08A900966B98FFF77FFD059000B13C
:1050C000A7E0CDE900764A4608A9069B6B98FFF752
:1050D000B1FC059000B19CE0C2E70BF1010000B209
:1050E0008346291A08FA01F040EA0A0A02200390CE
:1050F000AB4539D1002416E03B4608AA08A9009622
:105100006B98FFF75AFD059000B182E0CDE900767B
:105110004A4608A9069B6B98FFF78CFC059000B1E6
:1051200077E0601C04B2AC42E6DB0AEB4A000BA954
:1051300001EB800208AB08A9CDE900766B98FFF778
:105140005FFB059000B164E0CDE900764A4608A90E
:10515000069B6B98FFF76EFC059000B159E04FF08D
:10516000000BDA46012003907AE700BF039802287B
:105170003AD1BBF1000F37DD002433E03B4608AAEB
:1051800008A900966B98FFF718FD059000B140E064
:10519000CDE900764A4608A9069B6B98FFF74AFCC2
:1051A000059000B135E04FEA4A0A0120A84010EA14
:1051B0000A0F15D008AB0EAA08A9CDE900766B98A6
:1051C000FFF71EFB059000B123E0CDE900764A46CB
:1051D00008A9069B6B98FFF72DFC059000B118E01D
:1051E000601C04B25C45C9DBCDE900764A4608A9DB
:1051F000069B6B98FFF71EFC059000B109E008A81C
:105200007899FEF71DFA059000B102E000200590A4
:1052100000BF681E012181400CB208E004EB44018C
:105220000BAA02EB8100FEF752FA601C04B20120C7
:10523000A840A042F2DC00BF384609F059F900BF8F
:105240000EA8FEF744FA00BF08A8FEF740FA05983A
:1052500003E630B50B4600215A1E05E0445C855C30
:1052600045548454491C521E9142F7DB30BD2DE950
:10527000FF4107460E4614460023324601A9384630
:10528000FFF719F85FEA000803D0404604B0BDE814
:10529000F081002516E003980068C2B22846691C18
:1052A0000DB22254002001AB082201A9009038461B
:1052B000FEF725FF5FEA000804D001A8FEF707FA11
:1052C0004046E3E7BDF8040008B9012000E00020F3
:1052D0000028E0D029462046FFF7BBFF01A8FEF7D3
:1052E000F6F90020D2E7024609B1108810B1908883
:1052F000012802D14FF0FF307047B2F900000128B9
:1053000001DD0120F8E790680068884201D901209A
:10531000F2E790680068884202D24FF0FF30EBE776
:105320000020E9E77CB504460020C4F84802C4F830
:105330004C020821684602F058FA051E01DA284698
:105340007CBD204600F06BF8051E01DA2846F7E721
:1053500022460821684600F070F8051E01DA28464A
:10536000EEE7204600F08CF8051E01DA2846E7E754
:105370000020E5E72DE9FC4104460E46154604F5FC
:105380001274606800F101006060206828442060A9
:105390002068A4F51274B0F5806F14D30821684614
:1053A00002F023FA071E02DA3846BDE8FC812246E5
:1053B0000821684600F041F8071E01DA3846F4E794
:1053C0000020C4F84802D4F84C02202809D3204613
:1053D00000F056F8071E01DA3846E6E70020C4F868
:1053E0004C0222462946304600F0B1F8DDE770B5A0
:1053F000ADF5147D04460D46164654B96846FFF7D0
:1054000091FF324629466846FFF7B4FF0DF5147D3B
:1054100070BD324629462046FFF7ACFFF6E710B5CF
:10542000044614B96FF0050010BD1421204608F0A1
:1054300004FE102020620020F6E7F0B599B0044683
:105440000E46154604B11DB96FF0050019B0F0BD48
:105450006846FCF7CCFB142229466846FCF7E5FBBE
:10546000324621466846FCF7E0FB29466846FCF7D1
:1054700023FC0746142801D03846E7E70020E5E77B
:105480002DE9F047044627464FF0100800260EB1DC
:10549000F0B200E01020A061A069102803DD6FF0D9
:1054A0000500BDE8F08706F48050B0F5805F03D1B9
:1054B000A069C0F11000A06104F1440241462046F9
:1054C00000F0CAFE5FEA000901D04846E9E7002083
:1054D000E06106F480506061002504E0795D04F12C
:1054E000240041556D1C206AA842F7DC606988B928
:1054F00000250BE004F12400405D401CC1B204F122
:1055000024004155405D00B103E06D1CA069A84234
:10551000F0DC12E0206A451E0BE004F12400405D3F
:10552000401CC1B204F124004155405D00B103E0CC
:105530006D1EA069A842F0DD00BF04F1440204F131
:10554000340104F1240001F022F80020A9E72DE93C
:10555000F04707460E4614463146384608F06DFDC2
:10556000B246B946B846206A012808DB206A1028EE
:1055700005DCE069002802DBE069102802DD00207C
:10558000BDE8F08740E0D4E90701884230D1606986
:1055900088B900250BE004F12400405D401CC1B235
:1055A00004F124004155405D00B103E06D1CA06989
:1055B000A842F0DC12E0206A451E0BE004F1240052
:1055C000405D401CC1B204F124004155405D00B172
:1055D00003E06D1EA069A842F0DD00BF04F14402A3
:1055E00004F1340104F1240000F0D1FF0020E06157
:1055F00018F8010BE269511CE16104F13401895C86
:10560000484009F8010B761E002EBCD15046B7E782
:1056100001460020704770B505460C4616462068C6
:10562000402804D2402020606FF0080070BD324650
:1056300040212846FFF78BFF402803D00020206040
:10564000401EF3E7402020600020EFE72DE9F04105
:1056500006460C461546402C03D06FF00500BDE809
:10566000F0812846FFF7DBFE070001D03846F6E759
:105670002A4640213046FFF7E0FE070001D03846B9
:10568000EDE72846FFF7FCFE070001D03846E6E7C5
:105690003846E4E72DE9F04781460F46154698461F
:1056A000DDF820A0A8F10300C61B082E03DA6FF076
:1056B0000800BDE8F0872C4600202070641C84F8A8
:1056C00000A0641CBAF1010F08D102E0FF2004F829
:1056D000010B301EA6F10106F8DC13E0324621462C
:1056E0000020FFF784FE002802DA6FF00600E0E7F2
:1056F00004E0207808B901202070641C301EA6F157
:105700000106F6DC00202070641C3A46494620461B
:1057100008F06CFC4046CCE7F0B504460D46164652
:10572000059F03F10A00854202D26FF00500F0BD2B
:105730002146621911F801CBBCF1000F02D10878A3
:10574000B84202D04FF0FF30F1E7491C07E0012FCB
:1057500004D10878FF2801D0B81EE8E7491C91421F
:1057600002D208780028F2D1491C501A984202D07F
:105770006FF00800DBE703E008783070761C491C06
:105780009142F9D31846D2E72DE9FF4383B0814611
:1057900017461E46484600F015FB3060306820B9B9
:1057A0006FF0070007B0BDE8F08301203168886022
:1057B00030680468002060660498C51901AA39465B
:1057C00004A8FCF7F1FB002805DA306800F018FBAC
:1057D0006FF01E00E6E7DDF810800498291A02AA8F
:1057E00004A8FCF720FC002857DB0298002854D1BD
:1057F00004982A1A04F1180304A94846FCF799FBF7
:1058000000284ADB04982A1A234604A94846FCF7D4
:1058100090FB002841DB04982A1A04F10C0304A928
:105820004846FCF786FB002837DB04982A1A04F167
:10583000480304A94846FCF77CFB00282DDB0498AC
:105840002A1A04F1540304A94846FCF772FB002805
:1058500023DB04982A1A04F1300304A94846FCF714
:1058600068FB002819DB04982A1A04F13C0304A9F8
:105870004846FCF75EFB00280FDB04982A1A04F167
:10588000240304A94846FCF754FB002805DB0498D0
:10589000A0EB08000199884205D0306800F0B0FA0A
:1058A0006FF01E007EE70120606604F11800FEF72D
:1058B000B5F82066206E31684860002072E72DE957
:1058C000F04FB5B00746894690469A4637B1B8F1D1
:1058D000000F03D03F9808B1409850B9E5A040F2BE
:1058E000FD53ECA2F5A10090FA4808F0E3FD01F0A9
:1058F0009FFF409E01250020349056E028212AA8D1
:1059000008F09BFB280E8DF8BC00290C2AA84175D5
:10591000290A8175C5756D1C4A46394602A8FBF7F0
:1059200072FD5246414602A8FBF756FD04222FA9FC
:1059300002A8FBF751FD2AA902A8FBF71BFD1422C0
:105940002AA92FA808F052FB4FF0010B1BE04A4692
:10595000394602A8FBF757FD14222AA902A8FBF733
:105960003BFD2AA902A8FBF705FD002407E02FA8AC
:10597000005D2AA9095D48402FA90855641C142C14
:10598000F5D30BF1010B3E988345E0DB002408E0E2
:105990002FA8025D3498411C34913F990A54761E19
:1059A000641C142C01D2002EF2D1002EA6D1282185
:1059B0002AA808F042FBA02102A808F03EFB35B05F
:1059C000BDE8F08F2DE9FF43ADF5597D80461646C1
:1059D0001D46E49F00203860DA988419002D7BD0A2
:1059E000DA98211AD5AADAA8FCF7DEFA002805DA37
:1059F0004FF0FF300DF55D7DBDE8F083D6A8009037
:105A0000DA98211A0023D7AADAA8FCF763FB00284A
:105A100002DA4FF0FF30EDE7D798A0F50071953925
:105A200002D1D698352802D04FF0FF30E2E7DA985D
:105A3000211AD5AADAA8FCF7B7FA002802DA4FF043
:105A4000FF30D7E7D6A80090DA98211A0023D7AA0A
:105A5000DAA8FCF73FFB002802DA4FF0FF30C9E775
:105A6000D798B0F5257F02D1D698102802D04FF0F4
:105A7000FF30BFE7DA98211AD5AADAA8FCF794FA22
:105A8000002802DA4FF0FF30B4E7DA9810F8011B73
:105A9000DA9004290AD1DA98211AD4AADAA8FCF7F4
:105AA00009FA002802DBD498082802D04FF0FF3012
:105AB000A0E7DA980168059140680690DA98083006
:105AC000DA90DA98211A04AADAA8FCF7ACFA0028CE
:105AD00003DA4FF0FF308DE76BE0D6A80090DA983C
