S315080100000CE000201D00010831000108310001083B
S3150801001031000108310001083100010801F0C2BFB1
S31508010020DFF808D002F021F802F0B6B8F83F001060
S31508010030FEE76E2900F06A84702900F0BB856629FF
S315080100403BF0058565293BF0028567293BF0FF846E
S315080100506129AFF3008003681B0A28BF41F08001BC
S31508010060692900F01784642900F01484752900F0C1
S3150801007011846F2900F04685782900F08785E929DA
S3150801008000F0DE84E42900F0DB84F52900F0D88449
S31508010090EF2900F04385F82900F086850368DB0916
S315080100A028BF41F08001632901F02882732901F0F4
S315080100B02D82E32901F03882F32901F03D820020DF
S315080100C07047000040BA7047C0BA704700BEFEE7E5
S315080100D070477047004870472CEA001053EA020C33
S315080100E000F069802DE9F04B4FF00006002B1FBF89
S315080100F0B3FA83F503FA05F424FA05F65E4012BF4E
S315080101001643B2FA82F502FA05F4C5F120051EBFB7
S3150801011022FA05FC44EA0C04203556EA044C4FEA57
S31508010120144418BF641C4FF000084FF000099042B0
S3150801013071EB030C39D3002919BFB1FA81F701FA1A
S3150801014007F6B0FA80F700FA07F6C7F120071EBFCF
S3150801015020FA07FC46EA0C062037B6FBF4FCA7EBA7
S315080101600507103F07F01F0BCBF120060CFA0BFB16
S315080101702CFA06F644BFB3460026202FA4BF5E46D6
S315080101804FF0000B5BEA060C08BF4FF0010B19EBA9
S315080101900B09ABFB027C48EB0608C01B06FB02CC2D
S315080101A00BFB03CC71EB0C01C1E70B46024641463A
S315080101B04846BDE8F08B13B54FF000004FF000013B
S315080101C000F0F6FABDE81C407047B2F120030AD5E3
S315080101D0C2F1200301FA02F120FA03F300FA02F050
S315080101E041EA0301704700FA03F14FF00000704736
S315080101F0B2F120030AD5C2F1200320FA02F001FA6E
S3150801020003F321FA02F140EA0300704721FA03F0E9
S315080102104FF000017047B2F120030AD5C2F120035D
S3150801022020FA02F001FA03F341FA02F140EA030067
S31508010230704741FA03F04FEAE171704710B54C1067
S3150801024084EA530404D54042C1F1000138BF491E6E
S315080102501B4204D55242C3F1000338BF5B1EFFF7A8
S315080102603DFF14F0804F04D04042C1F1000138BF70
S31508010270491E14F0004F04D05242C3F1000338BF9F
S315080102805B1E10BD7CB515461A460C00009001D0C0
S315080102902044401E074B7B4469460190284600F0DE
S315080102A050FB05461CB10020694600F05DFB284657
S315080102B07CBD0000D906000070B50646FFF70AFFA7
S315080102C00468054630460A22002100F045FD2C60E7
S315080102D070BD00000A460146014800F0C2BD000093
S315080102E030EA00102DE9F04782460E461446984634
S315080102F0DDF8209094B1012C0BD04A46504665088A
S3150801030005FB08673946904700280CD00DDA2C46BC
S31508010310F0E74A4631465046904710B10020BDE8FD
S31508010320F0873046FBE73846F9E7641B641E07EB9E
S315080103300806DFE7401ECAB210F8011F8A4202D03A
S315080103400029F9D10020704740EA010310B59B073F
S315080103500FD1042A0DD310C808C9121F9C42F8D020
S3150801036020BA19BA884201D9012010BD4FF0FF30D1
S3150801037010BD1AB1D30703D0521C07E0002010BDE7
S3150801038010F8013B11F8014B1B1B07D110F8013B73
S3150801039011F8014B1B1B01D1921EF1D1184610BD54
S315080103A040EA0103024630B59B0710D14FF00134EC
S315080103B000E008C208C91D1B9D4315EAC41FF8D0F1
S315080103C013F0FF0102F8011B0DD01B0AF8E711F81B
S315080103D0013B002B02F8013B05D011F8013B002B2C
S315080103E002F8013BF3D130BD10B5431C02E010F809
S315080103F0011B71B18107FAD14FF0013202C88C1A7B
S315080104008C4314EAC211F9D0C01A0A0603D0C01ED9
S3150801041010BDC01A10BD0A0401D0801E10BD090204
S31508010420FCD0401E10BD032A40F2308010F0030CA8
S3150801043000F0158011F8013BBCF1020F624498BF28
S3150801044011F801CB00F8013B38BF11F8013BA2F1C5
S31508010450040298BF00F801CB38BF00F8013B11F040
S31508010460030300F06780083AC0F0088051F8043B9E
S31508010470083A51F804CBA0E80810F5E7121D5CBF4D
S3150801048051F8043B40F8043BAFF30080D20724BF80
S3150801049011F8013B11F801CB48BF11F8012B24BF14
S315080104A000F8013B00F801CB48BF00F8012B704763
S315080104B0431A28BF9A427FF6B6AF032A104411445D
S315080104C040F2268010F0030F1EBF11F8013D521E9F
S315080104D000F8013D10F0030F7FF4F6AF11F00303A6
S315080104E000F06D80083AC0F00B8051F8043D083AD7
S315080104F051F804CD40F8043D40F804CDFFF7F3BFA9
S31508010500121D5CBF51F8043D40F8043DAFF300806D
S31508010510D20724BF11F8013D11F801CD48BF11F8E2
S31508010520012C24BF00F8013D00F801CD48BF00F8B1
S31508010530012C704710B5203AC0F00B80B1E818506D
S31508010540203AA0E81850B1E81850A0E81850BFF4AE
S31508010550F5AF5FEA027C24BFB1E81850A0E818504D
S3150801056044BF18C918C0BDE810405FEA827C24BFA1
S3150801057051F8043B40F8043B08BF7047D20728BF2F
S3150801058031F8023B48BF11F8012B28BF20F8023B7E
S3150801059048BF00F8012B7047431A28BF9A427FF6D5
S315080105A0C9AF104410F0030F11441EBF11F8013DE5
S315080105B0521E00F8013D10F0030F7FF4F6AF103A12
S315080105C0C0F00A8010B531E91850103A20E91850E0
S315080105D0BFF4F9AFBDE81040530724BF31E908104D
S315080105E020E9081044BF51F8043D40F8043D12F0D3
S315080105F0030F08BF7047D20728BF31F8023D48BF2D
S3150801060011F8012C28BF20F8023D48BF00F8012C3B
S31508010610704702F0FF0343EA032242EA024200F06E
S3150801062002B84FF000020429C0F0128010F0030C42
S3150801063000F01B80CCF1040CBCF1020F18BF00F8C6
S31508010640012BA8BF20F8022BA1EB0C0100F00DB875
S315080106505FEAC17C24BF00F8012B00F8012B48BFD3
S3150801066000F8012B70474FF0000200B51346944677
S315080106709646203922BFA0E80C50A0E80C50B1F1EB
S315080106802001BFF4F7AF090728BFA0E80C5048BFFF
S315080106900CC05DF804EB890028BF40F8042B08BF9D
S315080106A0704748BF20F8022B11F0804F18BF00F899
S315080106B0012B704710B5044610F0030F08BF11F05F
S315080106C0030F40F015804FF0013E121FC0F20E8055
S315080106D051F8043BA3EB0E0C2CEA030C1CEACE1CC6
S315080106E008BF40F8043BF0D0A1F1040102F104026D
S315080106F0521E08DB11F8013B002B00F8013BF7D12C
S315080107001146FFF78EFF204610BD00004FF0013C51
S3150801071050F8042B51F8043B9A4221D1A2EB0C0361
S31508010720934313EACC1317D150F8042B51F8043B21
S315080107309A4215D1A2EB0C03934313EACC130BD1BE
S3150801074050F8042B51F8043B9A4209D1A2EB0C0349
S31508010750934313EACC13DBD04FF00000704700BF78
S31508010760D01A01BAB1FA81F101F0180122FA01F0A1
S31508010770CB40C1F12001DBB2C0B2C01A2CFA01F399
S31508010780D11A914311EAC311E6D1704770B5064CE7
S315080107907C44064D7D4403E0206820448047241D9F
S315080107A0AC42F9D170BD0000B0380400B838040075
S315080107B02CF0EAB810B5FFF78DFC006810BD10B52E
S315080107C00446FFF787FC046010BD70B504468569C9
S315080107D00068C10601D5302600E02026C00708D0EA
S315080107E070BDD4E9012130469047206A00F1010025
S315080107F020626D1EF5D570BD70B504468569006821
S31508010800C00708D170BDD4E9012120209047206A8C
S3150801081000F1010020626D1EF5D570BD09684A0513
S3150801082001D540B27047C905FCD500B270470968C1
S315080108304A0501D5C0B27047C905FCD580B27047D3
S3150801084070B505460C46012A05D02868800600D5EC
S31508010850EA69002302E0012305E05B1C934202D208
S31508010860E05C0028F9D1A869E618C01AA861286AC7
S31508010870184428622846FFF7A8FF04E0D5E90121B4
S3150801088014F8010B9047B442F8D32846FFF7B4FF92
S3150801089070BD00002DE9F04107460025106875294D
S315080108A0394616A411D0FFF7B9FF002803DAC0F1BB
S315080108B0000013A407E039688A0701D511A402E0EC
S315080108C0490704D510A4012501E0FFF7B0FF00216F
S315080108D00A2307F1240607E0B0FBF3F203FB120033
S315080108E0303070541046491C0028F5D12B46224653
S315080108F03846BDE8F04100F08CBB0000000000005E
S315080109002D0000002B00000020000000116802687D
S31508010910006A530501D508700BE0D30501D5088097
S3150801092007E0130603D5C217C1E9000201E0520622
S31508010930086001207047000001694A1C02610878B5
S31508010940704700B58FB0CDE9013100210591054900
S315080109507944CDE903101146684600F037F90FB01E
S3150801096000BD0000E5FFFFFF0A6802F8010B0A60F7
S315080109707047D1E900239A4202D2531C0B601070CA
S31508010980704700002DE9FF5F04468A461546DFF8E1
S31508010990AC80F8440027D8E900103E46CDE900109E
S315080109A011E03AF816106A4602A800F018FE411C32
S315080109B007D02168890603D5E269391891420ED80C
S315080109C0074406F101062068800602D5E069B842A7
S315080109D005DDAE42E5DB3AF816000028E1D1A0694B
S315080109E0C01BA0612046FFF7F0FED8E90010CDE94B
S315080109F00010002016E03AF818106A4602A800F01E
S31508010A00EEFD8146401C0BD000250DF1080B05E0D3
S31508010A10D4E901211BF8050090476D1C4D45F7D314
S31508010A2008F10100B0428046E5DB206A38442062BD
S31508010A302046FFF7E1FEBDE8FF9F0000522B0400A8
S31508010A402DE9F0418046D21D22F007020026D2E99F
S31508010A500002F52914A512D0002A06DA0023D0EBE4
S31508010A60030063EB020211A508E0D8F800108B0712
S31508010A7001D50FA502E0490701D50EA501261146A4
S31508010A80002408F1240704E000F07EFA30323A55D2
S31508010A90641C50EA0102F7D133462A4621464046EC
S31508010AA0BDE8F04100F0B5BA000000002D000000D5
S31508010AB02B0000002000000030B4002100F12404BE
S31508010AC00CE002F0070505F130054FEAD20242EAC9
S31508010AD04372655401F101014FEAD30352EA030552
S31508010AE0EFD10468002310A2250708D504F02004D5
S31508010AF00C4304D0C46901230CA2641EC46130BC32
S31508010B0000F087BA10B5044621461068FFF78FFE34
S31508010B1002462046BDE810400023CDE7D21D22F04B
S31508010B200701D1E90023C7E70000000030000000F3
S31508010B30F0B40F460168090502D5234C7C4402E04E
S31508010B40214C7C440E34002100F124050BE002F00F
S31508010B500F064FEA1212A65D42EA03724FEA131311
S31508010B606E5401F1010152EA0306F0D122460468E6
S31508010B700023240704D5702F05D009B111320223A9
S31508010B80F0BC00F046BA10320123F9E770B5044605
S31508010B900D4621461068FFF74AFE024629462046B9
S31508010BA0BDE870400023C3E7D21D22F00703D3E94D
S31508010BB00023BDE70368126843F020030360082396
S31508010BC0C3610023B4E70000B02904002DE9F05FF2
S31508010BD0044689464FF0000ADFF878B1FB44C0F8AD
S31508010BE020A02046E1688847002875D0252806D028
S31508010BF0D4E901219047206A401C2062F1E70026CA
S31508010C005F462046E16888472028054608DB312DDE
S31508010C1006D207EB050010F8200C08B10643F0E7E9
S31508010C20B00701D526F00406C4F81CA00027C4F8AD
S31508010C3018A02A2D09D028462BF0D5FE38B304EB87
S31508010C408708303DC8F8185019E059F8041B2046A2
S31508010C5004EB87029161E1688847012F054618D19F
S31508010C60E069002820DA26F020061DE0D8F81800E9
S31508010C7000EB800005EB40003038C8F81800204624
S31508010C80E168884705462BF0AEFE0028EED1012F14
S31508010C900AD02E2D08D12046E16888477F1C0546D3
S31508010CA0022F46F02006C4DBA069002803DA404279
S31508010CB046F00106A061F00701D026F010066C2D5A
S31508010CC00BD0682D09D04C2D39D06A2D35D0742D0D
S31508010CD035D07A2D33D016E038E0E1682F46204624
S31508010CE08847B842054609D16C2F26D04FF4806053
S31508010CF0E168064320468847054604E06C2F1AD06A
S31508010D004FF4807006430DB3A5F14100192802D8A6
S31508010D10203546F400664A462946204626604E4650
S31508010D20FFF787F980B101280BD0F61D26F00700D9
S31508010D3000F1080955E74020E4E78020D8E70020BC
S31508010D40D6E706F104094CE7284651E7206ABDE8CB
S31508010D50F09F0000382904002DE9F0470F46914617
S31508010D6080460446002614F8015B2DB100F000F90F
S31508010D700068405DC007F6D12B2D02D02D2D18D065
S31508010D80641E4A463946204600F0DAFB27B139681F
S31508010D90A14201D1C7F800804FF0020471050BD5B5
S31508010DA04042002803DDFFF795F90460A007BDE876
S31508010DB0F08746F48066E4E70028F8DAFFF78AF94F
S31508010DC004606FF00040F2E770B50646484231EA22
S31508010DD000000FD02A20741C0025307000F0D0F8CE
S31508010DE00346002053F82520110F120109292BD992
S31508010DF057312AE0042913D004DC012908D0022935
S31508010E0004D109E008290FD0102911D0002070BD9E
S31508010E1000F0B6F800680EE000F0B2F840680AE0A3
S31508010E2000F0AEF8806806E000F0AAF8C06802E0B3
S31508010E3000F0A6F8006928B120F0030050F8041C58
S31508010E40084470BD48A070BD3031401C082804F81C
S31508010E50011BC9DB6D1C052DC3DB00202070304644
S31508010E6070BD2DE9F04709B14B0902D00020BDE854
S31508010E70F08732B113782A2B06D0BDE8F04700F087
S31508010E8025B8BDE8F0479FE7551C81460F464FF048
S31508010E90010800240026314615F8010B392801D826
S31508010EA0303800E05738491C082940EA0616F3DBB2
S31508010EB008FA04F0384203D000F062F840F82460DA
S31508010EC0641C052CE6DB39464846DAE72DE9F0418C
S31508010ED006460C46154688070AD51146234878441E
S31508010EE039F030FC07003CD000F04AF87F1C476017
S31508010EF0E0070AD029461D4878441A38AFF300801E
S31508010F0007002ED000F03CF8076060070AD529468D
S31508010F10164878443438AFF30080070021D000F032
S31508010F202FF8876020070AD52946104878444E3895
S31508010F3039F01EFC070014D000F022F8C760E0065D
S31508010F400AD52946094878446838AFF30080050070
S31508010F5007D000F015F8056121463046BDE8F04195
S31508010F6032E7BDE8F081000043000000323004009A
S31508010F7010B500F005F8001D10BD00BFC9970300A4
S31508010F80004870475CEA001030B5B0F10A024FEA32
S31508010F90900E71F100034EEA817EB0EB0E0061EB13
S31508010FA091014FEA101E4EEA017E10EB0E0041EB4D
S31508010FB011114FEA102E4EEA016E10EB0E0041EBAD
S31508010FC011214FEA104E4EEA014E10EB0E0041EB8D
S31508010FD01141401841F100014FEAD00040EA417041
S31508010FE04FEAD10110EB80054FEA810444EA907477
S31508010FF044EB01046D1944EB0404521BA3414FF061
S31508011000000348BF0A3200D530BD401C41F100013A
S3150801101030BD2DE9F0470D4604469246994600F142
S3150801102024080168880604D5E06921F010012160C9
S3150801103000E00120A84202DDA0EB050700E0002739
S31508011040A16907EB050202EB0300A1EB0000A06111
S315080110502068C00602D42046FFF7B7FB002608E041
S31508011060D4E901211AF806009047206A401C761C2B
S3150801107020624E45F4DB2068C0060AD52046FFF7F4
S31508011080A4FB06E0D4E9012130209047206A401CE0
S315080110902062381EA7F10107F4DC07E0D4E9012133
S315080110A018F805009047206A401C2062281EA5F101
S315080110B00105F3DC2046FFF79FFB2068000602D5F1
S315080110C00220BDE8F0870120FBE770472DE9FF4FB5
S315080110D00C461E464FF0FF378BB0D2E90001DDF80A
S315080110E060800A908A46C1F30A5505B93D46002132
S315080110F008464FF00000BAF1000F00F4400005DA87
S3150801110000EB80004FF4400101EA50004FEA905984
S31508011110B9F1010F00DDB9460A9850EA4A000ED026
S3150801112044F61050A5F2FF3545432F14B8F1000FC8
S315080111301ED07542291E1EDDC9F100021CE0B8F158
S31508011140010F4FF0000001D1F24307E0302101E021
S315080111502154401CB042FBDB3046002200212154B9
S315080111600B99C1F80880C1E900200FB0BDE8F08FDE
S31508011170BD1B6D1CDEE74A4600DA694206A800F087
S315080111809DFA06AB07CB03AB07C350460A9900F095
S3150801119007FB8DE80700A0F500501F38009003985B
S315080111A0002D09DD42F21F014A46084403A90390AE
S315080111B0684600F066FD08E0A0F500504A461F386B
S315080111C003A90390684600F070FD8DE80700000446
S315080111D0000C03D04FF0FF30410800E01046B8F18B
S315080111E0000F03D00022009215461FE0751E06D493
S315080111F0FFF7CAFE02F1300262556D1EF8D5B346F5
S315080112000122084302D000227F1C04E020783028FE
S3150801121001D100227F1E002A099787D01DE0112DD2
S3150801122007DAFFF7B1FE303262556D1C50EA01024A
S31508011230F5D108430FD10021681E05E0235C625CE5
S315080112406354491C2254401E8142F7DBAB46A81B56
S31508011250401E099001E0009848B1002004F80B00EF
S315080112600B98099AC0F80880C0E9002B7DE711267A
S315080112704FF000085AE72DE9F04F88460446D21D7B
S3150801128022F0070191B0D1E90001CDE90A0127F061
S3150801129028FC02460B98C00F01D02D2007E02068D4
S315080112A0810701D52B2002E0202101EAC000032A8B
S315080112B0099001D0072A05DB03464146204600F07E
S315080112C0AFF90EE12068800601D5E06900E0062045
S315080112D0B8F1650F814606D0B8F1660F18D0B8F196
S315080112E0670F72D132E00020B9F1110F009048461C
S315080112F001DB112300E0431C0AAA01A90CA8FFF788
S31508011300E5FEDDE90C70002609F10105834648E092
S3150801131001204B4600904FF000470AAA01A90CA8E4
S31508011320FFF7D4FEDDE90C050E990026AB4619B97F
S3150801133009F1010100EB0105B9EB050003D4C0F180
S31508011340FF3609F10105A5EB09002BE0B9F1010FFB
S3150801135001DA4FF001090020B9F1110F0090484652
S3150801136001DD112300E003460AAA01A90CA8FFF72B
S31508011370ADFEDDE90C704D46002683462068000760
S315080113800AD4AB4500DA5D4601A8012D04DD4119F1
S3150801139011F8011C302907D04F4502DA17F1040F5D
S315080113A004DA0120824610E06D1EEEE7002F02DC0A
S315080113B0ED1B3E4403E0781CA84200DD0546A7EB79
S315080113C0060000F1010A4FF000472068000703D420
S315080113D0AA4501DB4FF0FF3A0021B7F1004F0DF1A5
S315080113E043088DF8431022D002202B23002F01DA5F
S315080113F07F422D230A22011EA0F1010000DC4FB114
S3150801140097FBF2F102FB117C0F460CF1300C08F840
S3150801141001CDF0E7A8F1010003702168090501D59E
S31508011420452100E06521A0F1010800F8011C099891
S315080114300FA9A1EB080707F1070700B1012000EB87
S31508011440050101EBEA70A1693844A1EB0000A0F19E
S315080114500100A0612068C00602D42046FFF7B5F94D
S31508011460099830B1D4E901219047206A00F10100B9
S3150801147020622068C00620D52046FFF7A6F91CE0A1
S31508011480002E04DBB34502DD01A8805D00E03020B3
S31508011490D4E901219047206A761C401CBAF1010A59
S315080114A020620AD1FFF76CFDC0680168405CD4E987
S315080114B001219047206A401C2062281EA5F10105DA
S315080114C0DEDC07E0D4E9012118F8010B9047206A10
S315080114D0401C2062381EA7F10107F3DC2046FFF7FE
S315080114E08BF9022011B041E610B5436913B1AFF388
S315080114F0008001E0FFF7A4F9012010BD126800F190
S3150801150024010A7000224A700122EDE711684FF0A2
S31508011510FF32E9E710B5436913B1AFF3008001E083
S31508011520FFF730FA012010BD126800F12401828408
S315080115300022C2840122EDE711684FF0FF32E9E784
S315080115402DE9F05F824604468B461546641C002742
S31508011550B9460078302801D09DB113E014F8010B83
S315080115600127782803D0582801D045B10AE00DB1E2
S31508011570102D07D1002714F8010B102502E00825C4
S3150801158000E00A250026B0460EE005FB080005FB2B
S3150801159006F101271FFA80F801EB1046B6F5803FE0
S315080115A000D3B94614F8010B294600F079F800284A
S315080115B0EBDABBF1000F05D00FB1641E00E054460B
S315080115C0CBF80040B9F1000F06D0FEF783FD0221E2
S315080115D00160C81EBDE8F09F48EA0640FAE770B503
S315080115E005460C461646FFF7C3FC036893F8010146
S315080115F0012806D0FF2C0FD8185D68B101202C7080
S3150801160070BDD3F807013246214603442846BDE892
S31508011610704003F2071318474FF0FF3070BD000002
S315080116202DE9F04104461F4603260168072A01F4FD
S31508011630006004DB08B116A505E016A503E008B1AC
S3150801164015A500E015A521F010002060A069C01EAF
S31508011650A0610FB1401EA0612046FFF7B6F84FB151
S31508011660D4E9012138469047206A401C2062C01CF3
S31508011670206206E0206AFAE7D4E9012115F8010B90
S315080116809047761EF8D22046FFF7B6F8BDE8F081F6
S315080116904E414E006E616E00494E4600696E660007
S315080116A03A2800D2303820F02002412A01D3A2F18B
S315080116B03700884201D34FF0FF3070472DE9F047D4
S315080116C0814616468AB035487844D0E900238068B1
S315080116D00092CDE90130314878440C38D0E902232B
S315080116E0006903924FF03702CDE9043041F69B3089
S315080116F0014491FBF2F0A0F1800502FB10141B3C9A
S3150801170002D56442012000E00020DFF890A080465F
S315080117100027FA44AAF1C60A0DE0E00709D03246C5
S31508011720684607EB47010AEB810100F0BEFA8DE82E
S31508011730070064107F1C002CEFD1184F7F44B43F7B
S3150801174017E0E80713D007EB04100DF1180A90E823
S315080117500E00AAE80E00C068F04201D19819089057
S31508011760324606A903A800F0A0FA03AB07C36D1019
S31508011770641C002DE5D132466946B8F1000F03A86D
S3150801178002D000F07EFA01E000F08FFAC9E9000103
S31508011790C9F808200AB0BDE8F087000090200400C7
S315080117A05FEA400C08BF91F0000F4FEA8C234FEA1D
S315080117B0C12243EA51514FEA1C5018BF00F5F040C7
S315080117C04FEA300018BF41F000415FEA6C5C00F057
S315080117D02980BCF1FF3F08BF40F080407047130CD9
S315080117E006BF12044FF0100C4FF0000C130E04BF85
S315080117F012020CF1080C130F04BF12010CF1040CB0
S31508011800930F04BF92000CF1020CD30F04BF5200D0
S315080118100CF1010C11464FF00002A0F11F00A0EBDC
S315080118200C00704711F0004F08BF704731F00041B6
S315080118303FF4D5AF0B0C06BF09044FF0100C4FF05F
S31508011840000C0B0E04BF09020CF1080C0B0F04BFA8
S3150801185009010CF1040C8B0F04BF89000CF1020C71
S31508011860CB0F04BF49000CF1010CCCF12003A0EB0E
S315080118700C0022FA03F302FA0CF241EA030100F121
S315080118800100704720F07F4C80EA030023F07F4770
S31508011890ACEB070303F57C5300F0004003F1FF03AB
S315080118A02DE980494FEA154B09B44FEA144325EA55
S315080118B00B4E24EA03480FF2042606EB13274908C0
S315080118C03E785FEA320203FB0667C7F5000707FBA6
S315080118D006F64FEA54374FEAD64606F1020607FBE3
S315080118E0066CCCF1005C4FEA1C472CEA074C07FB57
S315080118F006F40CFB06F504EB15464FEA961634BFBB
S3150801190000204FF000404FEAD13706FB07FC4FEAAB
S315080119101C4C0CFB0BF7D21B03FB0CF761EB070105
S315080119200CFB0EF7B0EB074072EB17420CFB08F7FE
S3150801193034BFA2EB0742B2EB074261EB17414FEA0C
S315080119400C444FEA910706FB07FC4FEA1C4C0CFBBB
S315080119500BF7B0EBC74072EB573203FB0CF734BFFA
S31508011960A2EBC742B2EBC74261EB57310CFB0EF74C
S31508011970B0EBC70072EB57720CFB08F734BFA2EB4A
S31508011980C702B2EBC70261EB5771039F4FEA816148
S3150801199041EA921104EBCC044FEAD1374FEA82624D
S315080119A006FB07FC42EA90124FEA80604FEA1C4C9C
S315080119B00CFB0BF7D21B03FB0CF761EB07010CFBC6
S315080119C00EF7B0EB074072EB17420CFB08F734BF72
S315080119D0A2EB0742B2EB074261EB17414FEA8C557E
S315080119E04FEA910704EB9C2406FB07FC4FEA1C4CC3
S315080119F00CFB0BF7B0EBC74072EB573203FB0CF746
S31508011A0034BFA2EBC742B2EBC74261EB57310CFBBD
S31508011A100EF7B0EBC70072EB57720CFB08F734BF31
S31508011A20A2EBC702B2EBC70261EB577115EB4C2566
S31508011A304FEA816141EA92114FEA82624FEAD13750
S31508011A4042EA901206FB07FC44F100044FEA806063
S31508011A504FEA1C4C0CFB0BF7D21B03FB0CF761EB93
S31508011A6007010CFB0EF7B0EB074072EB17420CFBB4
S31508011A7008F734BFA2EB0742B2EB074261EB174105
S31508011A8015EB1C154FEA813141EA92414FEA823240
S31508011A9042EA90424FEA80304FEA0C7644F100045C
S31508011AA048EA03434EEA0B484FF0000EB2EB080C26
S31508011AB071EB030724BF624639464EEB0E0E4FF013
S31508011AC0000B0018524149414BEB0B0BB2EB080CCA
S31508011AD071EB03077BF1000B24BF624639464EEBD7
S31508011AE00E0E4FF0000B0018524149414BEB0B0B00
S31508011AF0B2EB080C71EB03077BF1000B24BF6246BE
S31508011B0039464EEB0E0E51EA020718BF46F001069A
S31508011B1016EB0E7655F1000254F1000103D5BDE826
S31508011B208901BDE80088BDE88901BDE80048B61904
S31508011B30524141EB0101A3F10103704780807F7E89
S31508011B407D7C7B7A79787776767574737271717024
S31508011B506F6E6E6D6C6C6B6A6A69686867666665D6
S31508011B606464636362616160605F5F5E5E5D5D5C64
S31508011B705C5B5B5A5A5959585857575656555555D5
S31508011B805454535352525251515050504F4F4F4E35
S31508011B904E4D4D4D4C4C4C4B4B4B4A4A4A49494983
S31508011BA048484847474747464646454545444444C5
S31508011BB0444343434342424242414141002B26D4D6
S31508011BC0770021D01CB54FEA370703B44FF0100050
S31508011BD04FF010014FF000000FBCBDE810400BF1AB
S31508011BE0010BBBF1010F08BF5FEA170722BF12F10C
S31508011BF0010211F101014FF0004143F1000300F028
S31508011C00004043EA00007047F9D35708DAE746EA85
S31508011C10064613F1400F4FEA16461FDD13F1200F52
S31508011C20DFBF16430A46002120335B42C8D0C3F101
S31508011C30200746EA064602FA07F74FEA164646EA33
S31508011C400706C3F1200722FA03F201FA07F721FA78
S31508011C5003F14FF0000342EA0702B1E746EA02063A
S31508011C6046EA06464FEA164646EA0106BCBF46EA72
S31508011C700646360C4FF000034FF000024FF0000104
S31508011C809EE72DE9C048934630B491E8380007C865
S31508011C9031EA400C48BF34EA430C03D5FFF7F2FD9D
S31508011CA0FFF78CFFF0BCBDE800882DE9C0489346D4
S31508011CB030B491E8380007C810F0804F08BF13F018
S31508011CC0804F03D100F005F8FFF778FFF0BCBDE8B7
S31508011CD0008820F07F4780EA030023F07F4C07EB5A
S31508011CE00C03A3F57C5300F00040A3F1FE0392F028
S31508011CF0000F00F0B38095F0000F00F077802DE912
S31508011D0001494FEA11404FEA144621EA004800FB0F
S31508011D1006FC24EA064708FB06F607FB08F800FB5B
S31508011D2007F718EB06484CEB164C4FEA124B18EB23
S31508011D3007484FEA15464CEB174022EA0B4E0BFBB8
S31508011D4006FC25EA06470EFB06F607FB0EFE0BFB0D
S31508011D5007F71EEB064E4CEB164C4FF000061EEB32
S31508011D60074E4CEB174B18EB0B0840F1000018EB2C
S31508011D700E0B58EB000840F100008F1A4FF00001D6
S31508011D803CBFC943661B14BFB5EB040C00213CBF1D
S31508011D90C943F61B4FEA17444EEA8E0E27EA044555
S31508011DA04FEA1C4704FB07622CEA074C05FB07F7B9
S31508011DB00CFB05F604FB0CFC16EB074642EB174237
S31508011DC016EB0C4642EB1C421BEB060658EB0202CD
S31508011DD0414146EA9E0601D5BDE80189B619524137
S31508011DE041EB0101A3F10103BDE801894FEA14455D
S31508011DF04FEA114724EA054621EA074C05FB07F491
S31508011E0006FB07F70CFB06F105FB0CFC11EB07417A
S31508011E1044EB17444FEA124711EB0C4144EB1C44BF
S31508011E2022EA074C05FB07F206FB07F70CFB06F649
S31508011E3005FB0CFC16EB074642EB174216EB0C4664
S31508011E4042EB1C456A1854F1000148BF7047B619A0
S31508011E50524141EB0101A3F10103704795F0000FCF
S31508011E6037D04FEA11424FEA144721EA024624EADB
S31508011E70074C02FB07F106FB07F70CFB06F402FB0E
S31508011E800CFC14EB074441EB17414FEA154714EBD9
S31508011E900C4441EB1C4125EA074C02FB07F506FBFE
S31508011EA007F70CFB06F602FB0CFC16EB074645EB9F
S31508011EB0174516EB0C4645EB1C42121951F1000168
S31508011EC048BF7047B619524141EB0101A3F101031D
S31508011ED070474FEA14454FEA114724EA054621EAB5
S31508011EE0074C05FB07F106FB07F70CFB06F24FF05B
S31508011EF0000605FB0CFC12EB074241EB174112EBFE
S31508011F000C4251EB1C4148BF7047921841EB010145
S31508011F10A3F1010370470000814208BF7047042AF4
S31508011F2006D950F8043B121F41F8043B042AF8D895
S31508011F30002A08BF704710F8013B01F8013B521E01
S31508011F40F9D170470022042904D9091F40F8042B46
S31508011F500429FAD8002908BF704700F8012B491E41
S31508011F60FBD1704710B507480749084AFFF7D4FF60
S31508011F7007480849084AFFF7CFFFBDE81040074858
S31508011F800749DFE70C6F0608004000100000000053
S31508011F900C6F0608004000101005000010450010DF
S31508011FA0B0AA0000FEF73CB810B472B6334801680F
S31508011FB041F470010160324C0122626031480168C6
S31508011FC021F4027101603048016841F4FE61016043
S31508011FD02E48016841F001010160016811F0020F04
S31508011FE0FBD0DFF8ACC00023CCF80030016821F043
S31508011FF0A0610160016841F480310160016811F452
S31508012000003FFBD02168CCB22249112C0CBF40F20B
S31508012010056440F205740C60204C1F492160016873
S3150801202041F080710160016811F0007FFBD049F22F
S315080120300241CCF80010DFF868C04FF48011CCF8E3
S3150801204000100CF104010B60091D0B60154B4FF0D4
S315080120508051196089131B1D1960016821F001015E
S3150801206001601148026010BC704710B5FFF79CFF6C
S3150801207001F09EFFBDE81040FFF774BF88ED00E050
S31508012080002004E014ED00E0FCED00E00038024019
S3150801209008380240003C0240085440070438024010
S315080120A0303802404038024000380140EFF31082D0
S315080120B072B602607047016881F310887047EFF3C2
S315080120C00581006809B14FF001007047016881F385
S315080120D01088704772B670470168EFF3108281F372
S315080120E0108882F310887047EFF31080EFF30581AB
S315080120F080F0010009B14FF000007047EFF310803E
S3150801210072B680F001007047EFF3108062B680F076
S3150801211001007047EFF3108172B6016070470168DC
S3150801212081F310887047000070477047144A1307F7
S315080121301168586AD2F800C08C45F9D1704730B594
S3150801214083B0044600216846FFF7B0FFFFF7EEFFAC
S3150801215005462046FFF7E9FF032894BF0024C41E5D
S31508012160FFF7E4FF401BA042FAD96846FFF7A3FF31
S3150801217003B030BDA8214843401F00F01FB9000035
S31508012180240400408068406870478068806870470A
S315080121900168491E0160704710B584B06FF00300ED
S315080121A032496844884228BF314A03D340F8042992
S315080121B08842FBD2304C2F4860603048A06000F05E
S315080121C0C9FD2F482F490844A1680844A06003F0B7
S315080121D0A7F9206001F047F802F078FB01F05CF8F6
S315080121E00020034600900222042127A000F065FC86
S315080121F02BA32EA2304931A000F05FFC364937A047
S3150801220000F05BFC01A902A800F098FDDDE90110C8
S31508012210FEF707FA38A02FF06BFE274937A02FF0F3
S3150801222067FE38A135A02FF063FE20A138A02FF054
S315080122305FFE1BA136A02FF05BFE01214EF6602042
S3150801224003F0A6FC0121022003F03CFE0121084609
S3150801225003F09CFC03F094F830A02FF049FE38A057
S315080122602AF076FC05F076FA04B010BD00000010DD
S315080122700DF0ADBA00000108004000100C6F050012
S3150801228000000000100500002E4E65744D462076AC
S3150801229025642E25642E25642E25640D0A0000006A
S315080122A031303A34373A3230000000004D61792036
S315080122B0323920323031320028BC040825732C20EB
S315080122C04275696C6420446174653A0D0A0925737F
S315080122D02025730D0A000000A744060041524D202F
S315080122E0436F6D70696C65722076657273696F6E7E
S315080122F02025640D0A0000000C000000252D31354B
S31508012300730D0A004275696C6420446174653A006C
S315080123102020252D3133730D0A0000000C6D6169EB
S315080123206E2065786974656421213F3F3F2E202020
S3150801233048616C74696E67204350550D0A000000A8
S315080123406D61696E2065786974656421213F3F3F37
S315080123502E202048616C74696E67204350550D0A1A
S315080123600000000010B502F039FEBDE8104005F086
S31508012370F1B9000004B02DE9FF0F6846EFF30581B6
S31508012380FFF7F0BF81B000B52DE9FF5F6846EFF3AF
S315080123900381C163AFF3008010B582B00446002102
S315080123A06846FFF783FE0021204602F017FE05F076
S315080123B0D1F96846FFF77FFE02B010BD001FFDDCAC
S315080123C0F7460068002818BF012070470168491CB4
S315080123D00160704710B506490446002008602CF0D4
S315080123E093FF002C08BF10BDBDE810402CF07CBF40
S315080123F0A844001000B583B000216846FFF756FED1
S315080124002CF09AFF6846FFF756FE03B000BD0000A0
S3150801241010B504462DF000F909482DF00BF92046B0
S3150801242000F012FD074C40B12DF03CF92DF00EF9E4
S315080124302DF01EF80120206010BD0020206010BD7F
S3150801244005690108A844001070B50546002403E093
S31508012450284600F02BFD04442DF094F908B9082C00
S31508012460F6D3BDE870402DF00FBA00000E4810B53E
S3150801247000680C46002808BF10BD002C04BF0020C8
S3150801248010BDA02002F068FB002808BF10BD204639
S3150801249001F078FD002808BF10BD05F099FA2DF066
S315080124A0C5F9002010BD0000A8440010034951F8E1
S315080124B02020521E41F82020704700005045001088
S315080124C0034951F820000028CCBF0120002070479D
S315080124D050450010034951F82020521C41F820208C
S315080124E070470000504500102DE9F04F8046BE4860
S315080124F0BE499BB0081AC01C16904FEA186017907F
S315080125001FFA88F04FF0000B18904FF0000A0AF0F6
S3150801251081FC002302220421B5A0CDF800B026F0E3
S3150801252035F807F0ADFBBBA026F030F8BD4CC4F872
S31508012530008016F06FFE0028C0F20D81BAA026F0C1
S3150801254025F8C8F3074020B1BB48016841F00041AE
S315080125500160B94816F058FE0028C0F2FC80B7A001
S3150801256026F014F80CF026FA01202071DFF8B4924F
S31508012570B7A026F00BF816989B4920F003079B4D48
S315080125800C4601AA68460BF0E9FD00281CBF009914
S31508012590002907D0C868896889688847006810F0E3
S315080125A0020F0FD0002000283DDB2A462146ACA0A9
S315080125B025F0ECFF291B0022204601F071FEB049E7
S315080125C0086026E00C21384607F04FFB060008BFD5
S315080125D04FF07A40E7D0DDE9001E0346C8688968EE
S315080125E03A46D1F80CC07146E04700280EBF4FF0B5
S315080125F077403446F519D6D0D4E76A462146484687
S3150801260025F0ECFE00280EDB606E2044C01C20F08D
S31508012610030404F17C00A84204D2204626F0A2F95C
S315080126200028EAD1002000287DDB96A025F0AEFF20
S3150801263050210AA811F094FE18B99BA025F0A6FF0F
S3150801264067E01398C26880688168104688470AA9B6
S315080126507C2691EC080A8DEC080ADDE91212CDE90F
S3150801266008120068CDF850B0C0F340044CB90121F6
S31508012670304607F01DFB1490002845D03146FDF77A
S31508012680D0FF7742324614A9684611F0B8FF80B3E5
S31508012690149D284626F02EF958B3686EC01C20F002
S315080126A003052CB90C21284607F0DFFA1590F8B175
S315080126B001223946684611F0F9FF2A4615A96846E6
S315080126C011F09DFFA8B1159D284626F04BF958B182
S315080126D082A025F05BFF19AA2946484625F07EFE09
S315080126E0002807DA0CB10FE074B9159807F0CEFA8D
S315080126F007E005E01998016941F008010161C1E7A0
S3150801270014B9149807F0C2FA0AA811F05DFE002858
S3150801271097D179A025F03AFF7B4810F0CDFD002826
S3150801272015DB7A4800E012E01BF0F8F8764811F05C
S3150801273021FC00280BDB76A025F028FF00213E4866
S31508012740189A18F07FFA75A025F020FF03E00146D4
S3150801275074A025F01BFF384C206810F0005F16D1D5
S31508012760206820F440602060206840F40060206002
S31508012770012000906F4800231A4600680921006865
S3150801278007F061FA1798002818BF0CF055FD206864
S3150801279010F0005F20D0A06810F0010F1AD00521B3
S315080127A031EA00000CBF0120002060F31748002021
S315080127B0FFF7A4FC55481BF056FC16F03BFD1948DB
S315080127C080F804B001F0ACF800F066FD0020FFF7D0
S315080127D09BFC9AE605F008F8BAF1000F7FF495AE6E
S315080127E01BB0BDE8F08F0000504005080C6F0608C5
S315080127F00D0A54696E79434C5220284275696C64F6
S315080128002025642E25642E25642E2564290D0A0D9E
S315080128100A0000005374617274696E672E2E2E0DBC
S315080128200A00000010400010437265617465642057
S3150801283045452E0D0A000000485300105374617275
S315080128407465642048617264776172652E0D0A00A9
S315080128504372656174652054532E0D0A0000000009
S31508012860204C6F6164696E672073746172742061AC
S31508012870742025782C20656E642025780D0A0000C1
S31508012880984000104C6F6164696E67204465706CEE
S315080128906F796D656E7420417373656D626C6965D8
S315080128A0732E0D0A000000004552524F523A20433A
S315080128B06F756C64206E6F742066696E642064653A
S315080128C07669636520666F72204445504C4F594DB1
S315080128D0454E542075736167650D0A00417474612C
S315080128E06368696E67206465706C6F7965642066D4
S315080128F0696C652E0D0A00005265736F6C76696EF8
S31508012900672E0D0A000000007C560010005A0010C0
S3150801291052656164792E0D0A00000000446F6E65E8
S315080129202E0D0A004572726F723A20253038780DDD
S315080129300A0000008C40001030B583B0044600211F
S315080129406846FFF7B3FB0648016801EA0405016812
S31508012950A14301606846FFF7AEFB03B0284630BDC8
S315080129606440001010B582B0044600216846FFF79E
S315080129709DFB0748016821430160416800291CBF86
S31508012980806888476846FFF796FB02B010BD0000CD
S31508012990644000102DE9F04389B00500109E0F46EA
S315080129A098467CD03C68002C11BF002A002009B04B
S315080129B0BDE8F08304F1B0003860A2F10109B02145
S315080129C02046FDF750FEB8F1000F08BFA846C4F827
S315080129D00080287860606878A0606888E060002ECA
S315080129E018BF306814D0C4F8980060681B2856D2FE
S315080129F0DFE800F0551717171717171717171717BF
S31508012A001717171C374141453755555555174F0067
S31508012A10294602A813F0D4FF0028A8BF0398E4DBCF
S31508012A20E1E7D5E90101C4E9040138E06D688DB132
S31508012A302846C4F8945000F0C0F9C4F890007F28DD
S31508012A4028BF7F2003462A46802104F1100000F0A2
S31508012A50F1FB24E00020C4F89400C4F89000207427
S31508012A601DE0686800234A4639460096FFF792FF3B
S31508012A7009B0BDE8F0836868C4F898000FE0E86813
S31508012A80C4F89C00E888C4F8A000A868C4F8A400A3
S31508012A9005E06868C4F8A800A868C4F8AC0009B0DD
S31508012AA00120BDE8F08305F013B80120704713F043
S31508012AB037BA00F053BC06F0C9BA0FB410B503A96A
S31508012AC0029800F01FF910BC5DF814FB194801685B
S31508012AD041F000710160016821F0807101600168AF
S31508012AE041F400010160016821F4FC0101600168FB
S31508012AF041F480010160016841F480310160016897
S31508012B0021F44041016001680160016821F47C51AA
S31508012B100160016841F400510160016821F08001FA
S31508012B200160016821F07C010160016821F0020160
S31508012B3001607047009002401548816921F0806163
S31508012B408161816941F000718161816921F080713A
S31508012B508161816921F400118161816921F4E03182
S31508012B608161816941F4E0318161816921F08001E6
S31508012B708161816921F040018161816921F0180132
S31508012B80816181698161816921F0040181617047EF
S31508012B90009002400F48816989B28161816941F0DB
S31508012BA080018161816921F03001816181698161D9
S31508012BB0816921F008018161816921F0040181613E
S31508012BC0816921F002018161816921F00101816137
S31508012BD070470000008002401848416821F0004112
S31508012BE04160416821F480614160416821F40071C6
S31508012BF04160416821F480714160416821F0C0015A
S31508012C004160416841F040014160416821F020017D
S31508012C104160416821F010014160416821F00801D5
S31508012C204160416821F004014160416821F00201D7
S31508012C304160416821F0010141607047008002400E
S31508012C400448C16B41F40071C163C16B41F00801CD
S31508012C50C16370470080024004F062BF002313F08D
S31508012C608DB913F099B908B5DDF808C0CDF800C0DB
S31508012C7013F094F908BD00B583B09DED040ADDEDA6
S31508012C80050A8DED000ACDED010A13F08FF903B09F
S31508012C9000BD002313F098B90020704706F088BAE2
S31508012CA006F034BB084900208A6942F480128A6119
S31508012CB040F6FF728B6903F48013002B18BF82421A
S31508012CC088BF401CF6D87047009002400FB410B573
S31508012CD004AA039900F07AF810BC5DF814FB10F801
S31508012CE0012B412A02D35A2AD8BF203211F8013BB7
S31508012CF0412B02D35A2BD8BF20330AB19A42EED0C0
S31508012D00D01A7047034603480A461946406900F037
S31508012D105DB800003040001010B582B004460021AD
S31508012D206846FFF7C3F904480168A143016068468C
S31508012D30FFF7C1F902B010BD64400010034A0260F2
S31508012D400348801A001D0860704700000000002033
S31508012D50F8DF012010B538F094FDBDE8104002A156
S31508012D601F20FDF7B7BA00000000000000207047D9
S31508012D7012F0FEBF13F03AB905F000BD0FB410B555
S31508012D8005AB049A00F06DFA10BC5DF814FB70B53A
S31508012D9005000B4614461CBF002C002B05D0104617
S31508012DA000F00BF8401C984201D9012070BD21465C
S31508012DB02846FDF7F5FA002070BD014611F8012BEA
S31508012DC0002AFBD1081A401E7047000070B5134649
S31508012DD0ADF5007D04460A464FF40071684600F0D9
S31508012DE040FA054604F47F40B0F5407F0FD006DC73
S31508012DF0B0F5807F18BFB0F5007F1FD107E06E469A
S31508012E00B0F5A06F11D0B0F5C06F17D105E02A460D
S31508012E106946204601F0D9F910E00A48016869B106
S31508012E20002070553046884708E00024002D05DD4E
S31508012E30305D02F0B1FD641CA542F9DC0DF5007D9B
S31508012E40284670BD0C40001010B504462CF04DFB09
S31508012E502CF036FD2CF0FCFA2CF0A8FC002808BF53
S31508012E6010BD2CF031FB2CF0BBFC002808BF10BDAF
S31508012E7001202CF065FC002808BF10BD2CF0B0FA23
S31508012E80002808BF10BD04F12F002CF0B7FB012064
S31508012E9010BD00000448016921F01C0101610169A6
S31508012EA041F00401016170470080024070B5054692
S31508012EB02CF0F0F978B103220146104631F0FAFDFB
S31508012EC004000CD000F03DFC06462146284601F0D8
S31508012ED003FA304670BDBDE8704003F027BDBDE872
S31508012EE07040AFF3008070B5002425462CF04AFCEB
S31508012EF068B92CF01BFC002818BF01252CF004FD2D
S31508012F002CF08AFC641C2CF03DFC2843F1D02046A9
S31508012F1070BD0420704700000F4910B50A6812F405
S31508012F20807F0FD10A6842F480720A600B49002239
S31508012F30C1F80423CA624A6001228A60084ACA6043
S31508012F40084A0A6101F030FA00220123114601F00C
S31508012F5044FA012010BD0000443802400020014017
S31508012F60922449029224491270B59EB004460E462F
S31508012F7000214348CDE900011AA8694613F0AAF8C9
S31508012F800EA9204601F0F8FD002871DB03A9304699
S31508012F9001F0F2FD00286BDB9DF8100070B19DF879
S31508012FA03E00002808BF4FF0224061D0002221468A
S31508012FB068460EF0C1FB00285ADB58E031466846E0
S31508012FC00EF050FC002853DB9DF83C0003A9A8B17C
S31508012FD09DF8120028B90C3168460EF0D3F800287E
S31508012FE046DBBDF80200012818BFFDF76FF8DDE9D9
S31508012FF00001029AA260C4E9000138E09DF80000C8
S31508013000102808D1019830B10278122A03D14078E4
S3150801301010F0100F03D02078102822D112E0207862
S31508013020102808D1606830B10278122A03D1407895
S3150801303010F0100F15D00C3168460EF0A3F80028D1
S3150801304016DB0EE0606860B10278122A09D1407871
S3150801305010F0100F05D10C3168460EF067FA0028FA
S3150801306006DB694620460EF0BDFD002800DB002080
S3150801307005461AA813F054F81EB0284670BD00007C
S31508013080100001007047000010B542694FF4B4738F
S31508013090526892FBF3FC03FB1C220A4B83FB0232A8
S315080130A0A2EBE272002AB8BF3C32074B002903EBB8
S315080130B0820214BFB2F90210B2F900100FF046FBF2
S315080130C0002010BDABAAAA2A64BC040802207047D6
S315080130D00C291CBF0020704710B504460948016831
S315080130E041F000510160002201231146201D01F023
S315080130F074F90548002C14BF4FF480310121016091
S31508013100012010BD403802400074004070477047E6
S3150801311012F0F0B812F007B912F00AB90020704798
S3150801312040F281207047002070470120704712F055
S3150801313001BF00B583B09DED040ADDED050A8DEDED
S31508013140000ACDED010A12F053FF03B000BD00F0ED
S31508013150ABBE05F035BB2DE9F04105000E46174615
S3150801316001D0042E01DBFCF7B1FF05EB86042069CB
S3150801317008B1A06A08B1FCF7A9FF20690268511CC9
S31508013180082908BF00210123D0F808C0BCF1000FA7
S3150801319018BF4FF000080BD1D0F804C08C4508BF02
S315080131A08360016002EB021100EB810000F10C085B
S315080131B0206903FA06F1806838606879FFF7DCFD53
S315080131C04046BDE8F08170B504000D46164601D0AB
S315080131D0042D01DBFCF77AFF04EB8504206900283E
S315080131E01ABFA06A0028FCF771FFA6B10020216961
S315080131F0D1E90032934202BF8B68002B70BD531C84
S31508013200082B08BF0023C1E9013002EB021001EBCC
S3150801321080000C3070BD2069D0E900218A4207BFC1
S315080132208268002A01EB011100EB810008BF00202A
S31508013230EFD170BD10B594461A46002819BFBCF1E6
S31508013240000F0029012010BD541C00238C4282BFA7
S315080132500370012010BD83546146FDF72BFA002047
S3150801326010BDFDF70FB810B501F050F9012010BDDA
S31508013270112101600120704710B5054A05493D2015
S3150801328003F044F9BDE81040014800F00FBE000004
S3150801329048EF0010F523010800B5254883B00079E9
S315080132A004281CBF23A029F053FC0FF013F809F0DA
S315080132B043FB002001900090694601A800F06AFFCF
S315080132C0DDE9001002F0E0F900F0D2F900F08CFD1A
S315080132D001F0AAF800F07AFE0020FEF715FF0AF0C1
S315080132E07BFE02F059FC0AF0A7FEFFF710FF13F068
S315080132F0D3F8FFF70BFF13F0D0F800F036F803F018
S3150801330011FA00F02DF800F05FFE01F081FC00F0E3
S31508013310AEFB00F04AFE00F03BFF01F055FB00F062
S3150801332091FF00F01FF803B05DF804EB02F0D4BB7F
S3150801333000C00008436F6E66696775726174696FCC
S315080133406E2076657273696F6E20213D20766572EF
S3150801335073696F6E0A00000011F0ECBF11F0ECBF43
S3150801336004F056BB4FF04A407047012070470000F1
S31508013370042824BF0020704730B420490B5C091D7E
S315080133800A5C01F1080000EB83001D4950F8040CA2
S3150801339010F4803F18BF1B49C0F3842C01240D6823
S315080133A004FA0CFC15EA0C0F11D10D6845EA0C0C50
S315080133B0C1F800C0842101808482012B18BF082B23
S315080133C005D1B0F8441041F40041A0F8441000EBCF
S315080133D0820300219986682312F0010F18BF4FF462
S315080133E0D04300F1180112F0020F18BF00F11C01B9
S315080133F008881843088030BC0120704760290508F1
S315080134004038024044380240002808BF704730B5AA
S3150801341083B004460D4600216846FEF747FE0022A2
S315080134202946204603F070F86846FEF744FE03B0C5
S3150801343030BD012070470020704700002DE9F04794
S3150801344084B007000C4690464FF0000638D03D7808
S3150801345044F480300090D8F800000190D8F80400B0
S315080134600290A54208BF012623D0192C12D0102C90
S3150801347016D0DFF86CA005EB85095AF8290010F477
S31508013480003F08BFFCF722FE0AEB890040790428B1
S3150801349016D119E0102D04BF7868002805D106E079
S315080134A00198002808BF192D01D0002600E0012641
S315080134B036B13C70D8F800007860D8F80400B860D6
S315080134C004B03046BDE8F08704EB84000AEB8000BF
S315080134D0407904283CBF2C460126F1D2E9E70000D1
S315080134E05403050804F02CBE30B4C0680024002833
S315080134F004BF30BC7047438803EB000C0378012BEB
S3150801350018BF022B06D0032B09D0FF2B10D030BCD5
S31508013510002070478B4204BF30BC70471AE003296C
S3150801352018D155884378EDB2AB4213D130BC7047F8
S3150801353003791578AB420DD143795578AB4209D158
S31508013540C3885588AB4205D103899588AB4204BF28
S3150801355030BC7047002C08BF6046CCD030BC7047E1
S3150801356004F018BE04F094BE40F6746101600120AF
S3150801357070470FB410B505AB049A00F043F910BCB7
S315080135805DF814FB4FF0FF3CC3F800C0C2F800C059
S31508013590C1F800C0032828BF7047DFF818C01CF817
S315080135A000C0C1F800C00449095C11600349085C00
S315080135B01860704738BC04083BBC04083EBC0408C4
S315080135C000487047007A030A0A21A0FB01017047E7
S315080135D010B40A22A0FB023401FB02414FF0000C91
S315080135E000FB0C1110BC18467047B0F90000B1F980
S315080135F00010401A704711F0A1BE11F0D7BE08B5E8
S31508013600DDF808C0CDF800C011F0D2FE08BD00B53E
S3150801361083B09DED040ADDED050A8DED000ACDEDB9
S31508013620010A11F01DFF03B000BD11F03EBF0020D5
S3150801363070470420704708B5DDF808C0CDF800C00A
S3150801364001F034F908BD08B5DDF808C0CDF800C0A9
S3150801365001F034F908BD00207047012070470722A0
S315080136600FF016BE014804F09BBA0000D89200106C
S31508013670014804F09FBA0000D892001008B50B461D
S3150801368000920246014804F0CBFA08BDD892001010
S3150801369010B50120FEF71EFF0220FEF71BFF4FF6AD
S315080136A0FD7081070882FEF741FD084AD2E900321A
S315080136B0C01A71EB020028BF09F0F2F80220FEF7E2
S315080136C0F5FEBDE810400120FEF7F0BE28400010C7
S315080136D0F0B583B005460C46164600216846FEF746
S315080136E0E5FC0027002C18BF00240FD005EB840148
S315080136F0086940B1896A31B9076047608760214620
S31508013700284600F09DF8641C042CEFDB002E18BF38
S3150801371000200DD005EB8002116900291CBF926AB1
S31508013720002A02D00F604F608F60401C0428F1DB2D
S315080137306846FEF7C0FC03B0F0BD04F018BE04F0FD
S3150801374051BE70B50024064625462CF01BF8A0B9D3
S315080137502BF0AAFE0146304600F08DFA06462BF0FC
S31508013760E5FF002818BF01252CF0CEF82CF054F8F7
S31508013770641C2CF007F82843EAD0204670BD0000E7
S3150801378010B41F4B002240F6FF7C1C6904F00104AB
S31508013790002C18BF944588BF521CF6D8624526D01E
S315080137A01A6922F478421A611A6942F400621A61A6
S315080137B01A6922F4F8621A611A694FF4F86404EA7C
S315080137C0801010431861186920F002001861186901
S315080137D040F00100186100201A6902F00102002A6E
S315080137E018BF844588BF401CF6D8604502D110BC75
S315080137F0002070475869088010BC012070470000F6
S315080138000080024070B505460C4609680068FFF756
S3150801381028FD012111EBE07208BF20682968002301
S31508013820014429600B702168081A2060104670BD92
S31508013830002814BF002001487047000010930010AB
S3150801384070B582B004000D4605D004EB8500016908
S3150801385009B1806A10B102B0002070BD4FF0A046D0
S3150801386000216846FEF722FC06EB451000F530619B
S31508013870D0F8002B12F0004F0BD1621992F82420D0
S3150801388042F40022C0F8102BD0F8000B40F0044097
S3150801389008606846FEF70FFC02B0012070BD000003
S315080138A0034A10B50021116003F046FC002010BD43
S315080138B0A44300107047000010B504460420208078
S315080138C0022060800020A080E080372308A23821EA
S315080138D004F10800FFF7AEFC0E4830220E49D0F875
S315080138E05004206404F14400FCF79DFD012010BD3D
S315080138F0436F70797269676874204F6265726F6E7B
S31508013900206D6963726F73797374656D732C2049C1
S315080139106E632E0000C0000854C4000811F0C7BD2C
S3150801392070B51E4D002455F82400002818BF80479D
S31508013930641C102CF7D300F057F800F031F801F0A9
S315080139406BF901F0AFFF00F092FC01F063F901F0A9
S31508013950FBFA02F0FBFC00F025F801F0D2FB01F0BE
S315080139608DFE02F04BFB03F053F912F098FD0AF0B5
S31508013970C9FB01F047F801F0A1F901F06FFE01F06A
S315080139801DFD0020FEF7BAFB00F0D0FE00F0CAFAD2
S315080139900EF07CFCBDE8704008F05EBF10450010D3
S315080139A004F058B84FF04A4070478020704700002D
S315080139B000B587B00146684613F002F800280EDB09
S315080139C003980849C07B00EB800051F820004FF4AA
S315080139D0C02131EA000002BF012007B000BD002066
S315080139E007B000BD540305080120704740F20120C5
S315080139F070470020704700001649174AFF23095CE3
S31508013A00125C164812F0010F00EB810050F8040C05
S31508013A1018BF4FF47F4300F1180112F0020F18BFC7
S31508013A2000F11C010A889A430A80018B828B114393
S31508013A300DD10B4910F4803F18BF0A49C0F3842001
S31508013A40012202FA00F00A6822EA00000860012051
S31508013A507047000060290508642905086C290508CE
S31508013A6040380240443802404FF4007070477047AE
S31508013A702DE9F041DFF84080044682B0D8F800000D
S31508013A800D4616461F46002804BF02B0BDE8F08160
S31508013A9000216846FEF70AFB300440EA042040EAA2
S31508013AA005013A46D8F8000002F02EFD6846FEF7F1
S31508013AB002FB02B0BDE8F081A443001001F042BB4D
S31508013AC001F042BB01F042BB0120704710B5044624
S31508013AD00120FEF7FFFC0220FEF7FCFC104850F817
S31508013AE02430ABB10F4924F003004058A107090F50
S31508013AF0C8400D4900F00F0051F824200B4901EB8D
S31508013B008021096944EA0010E14001F00101984762
S31508013B100220FEF7CBFCBDE810400120FEF7C6BC2B
S31508013B207046001008380140B046001000000240F7
S31508013B3013460A460146014804F082B8D892001095
S31508013B4000B583B09DED040ADDED050A8DED000A89
S31508013B50CDED010A05F012F803B000BD70B50446B3
S31508013B6090F84700B4F86450A84238BF05462A467B
S31508013B70216E206CFCF757FC84F84450206E002116
S31508013B8028442066B4F86400401BA4F8640094F83D
S31508013B904700A84218BFA4F866100BD1B4F866000E
S31508013BA0401B0004000CA4F866001EBFAFF25300C8
S31508013BB0E06570BDE16570BD30B50C46154600225D
S31508013BC00221FFF791FC002808BF30BD00F10D0264
S31508013BD041880144206878B1904288BF81422ED934
S31508013BE02B68934228BF994229D94278052A04BFEE
S31508013BF00278072A23D10BE000202260286020687A
S31508013C0088421CD24378042B0BD0052B0ED010E02A
S31508013C105A78042A01BF1A78092AC01D20600ED1D4
S31508013C20EEE70278092A08BF286002E0007807282B
S31508013C3007D020680278104420608842E2D3002029
S31508013C4030BD012030BD04F0F5BB2DE9F041064633
S31508013C500C46002540F2F25707E06289701961683F
S31508013C60FCF7E1FB608924680544002C18BFAF42C4
S31508013C70F3D8BDE8F08170B504460E46002507E085
S31508013C80628971196068FCF7CEFB6089246805446E
S31508013C9014B1B5F5807FF3D3204670BD10B41E4B21
S31508013CA0002240F6FF7C1C6904F00104002C18BFB1
S31508013CB0944588BF521CF6D862452AD01A6922F45F
S31508013CC078421A611A6942F400621A611A6922F481
S31508013CD0F8621A611A694FF4F86404EA801010430D
S31508013CE01861186940F0020018615961186940F0B5
S31508013CF0010018610020196901F00101002918BFA6
S31508013D00844588BF401CF6D860451EBF012010BCFB
S31508013D107047002010BC70470080024010B44FF075
S31508013D20FF3C019C0628C4F800C0C3F800C0C2F8CD
S31508013D3000C0C1F800C024BF10BC7047DFF828C016
S31508013D4003281CF800C0C1F800C00849095C1160C5
S31508013D5024BF10BC70470649095C19600549085C0F
S31508013D60206010BC704700008E10050894100508E5
S31508013D70881005088B10050800F47F4310B54FF02D
S31508013D80000CC0B2B3F5807F06D0B3F5007F07D02B
S31508013D90B3F5407F0DD108E0401EFEF78CFE02E028
S31508013DA0401E03F01FFD844603E0401EFEF7E0FFB8
S31508013DB08446604610BD000010B5094830F0F8FD8C
S31508013DC00020FEF707FB0749002008602BF038FDA5
S31508013DD000F078FCBDE810403D2002F0B8BD0000B7
S31508013DE048EF0010E84300100349002008604860C6
S31508013DF0024908600120704780EC001064400010F9
S31508013E0001490968084070476440001010B5044626
S31508013E1084B014A0FEF7D1FF002212A1CDE900213A
S31508013E201346029002220421204608F06BFC16482C
S31508013E30D0F8040100281CBF4069002804F1400499
S31508013E4009D0818BC28B038C408C21806280A38030
S31508013E50E08004B010BD002020806080A080E08052
S31508013E6004B010BD436F70797269676874204F6238
S31508013E7065726F6E206D6963726F73797374656DA0
S31508013E80732C20496E632E007C56001000B583B052
S31508013E909DED040ADDED050A8DED000ACDED010A59
S31508013EA011F01EFB03B000BD11F05ABB10B5044654
S31508013EB00246094909480EF017FA09480023094933
S31508013EC0224683610EF010FABDE81040064A002327
S31508013ED0034808F01BBD00004924010890EF0010B3
S31508013EE0A0EF00106970010880841E000020704749
S31508013EF08AB20023C1B20420FFF7BABD01F0AABBFA
S31508013F0001F0AABB014803F0E6BE0000D8920010F2
S31508013F1008B50B4600920246014803F0FDFE08BDAE
S31508013F20D8920010014803F0C1BF0000D8920010D2
S31508013F3010B50446007994F84610884208BF10BDAA
S31508013F40052804D1012211462046FFF7C1FB94F842
S31508013F5046002071072811D2DFE800F00408080896
S31508013F60080908000020A4F86400E06510BD204691
S31508013F700022BDE810400121FFF7AABBBDE81040A9
S31508013F80FCF7A4B870B50546048940F2F25084429C
S31508013F9084BF002070BD2BF08FFA2946FFF755FE26
S31508013FA020462BF0A7FC012070BD012070470000B8
S31508013FB00448016840F2FF121143016000211F20E5
S31508013FC001F09EBF3038024010F0AEBC01207047A8
S31508013FD0032070470048704740420F0000281CBF65
S31508013FE0012070472DE9F04F8046634885B0016886
S31508013FF041F080010160614C4FF0A04500216846FF
S31508014000FEF754F85E49022008608020A8605D48E2
S31508014010E8604FF41020A863081F016841F0030106
S315080140200160A86B40F40010A8634FF0010A04F17F
S31508014030A800C4F8B4A06065042084F858000022DA
S3150801404051462046FFF750FA002814BFC07A0820C7
S3150801405084F8470094F8581001204FF00009012907
S31508014060C8BF40210BDD04EB8002C2F82890221854
S31508014070401C82F8241094F858208242F3DC00266A
S315080140803746CDF8089003AA02A92046CDF80C9028
S31508014090FFF792FD002818BFDFF8ECB065D002984B
S315080140A094F85820807800F07F018A425DDD039AF2
S315080140B09278032A59D810F0800F1CBF04EB8100AF
S315080140C0C0F828A002988088082818BF102803D0AD
S315080140D0202818BF402848D1621882F824008B206E
S315080140E078430BEB800004EB8102C0F80090C0F81E
S315080140F00490C0F80890106102987F1CC07800F0FF
S31508014100030001282AD049008840064303AA02A9C8
S315080141102046FFF751FD0028C1D136B3A4F8B06097
S315080141204FF47A70FEF70BF80021404600F020FAAA
S3150801413000221649432002F0E9F9002213492A20F0
S3150801414002F0E4F94FF0FF3068614FF48050A8613E
S31508014150C5F83498A86840F00100A8606846FDF7DC
S31508014160AAFF05B00020BDE8F08F6846FDF7A3FF5A
S3150801417005B00120BDE8F08F3438024010930010D5
S3150801418004080050400C0040C893001071710108E2
S3150801419001207047002202600A60704700F47F41DF
S315080141A0C0B2B1F5807F0AD0B1F5007F0AD0B1F56A
S315080141B0407F1CBF00207047401EFEF7B6BF401E59
S315080141C0FEF76CBD401E03F0BABB2DE9F0470F465A
S315080141D0164600F47F494FF000086424C5B22BE067
S315080141E0B9F5807F06D0B9F5007F09D0B9F5407FCA
S315080141F014D10BE0681E32463946FEF751FD0AE036
S31508014200681E3246394603F09CFB04E0681E3246B6
S315080142103946FEF78CFF002811DB09D10020FDF78E
S3150801422063FF60B100210122202000F08FFE03E028
S315080142303224361A074480440EB1641ED0D2404651
S31508014240BDE8F0874FF04A40704710B504281CBFF7
S315080142500228FBF73BFF4FF48040BDE81040FEF70C
S3150801426081BB002070470020704711F07BB9704769
S3150801427070B506460024304611F064FB05000AD1E4
S3150801428064224FF48041202000F060FE01F009FB12
S31508014290641C322CEFDB284670BD11F097B900007B
S315080142A04B1E0029C8BF08490CDD10F801CB8CEA62
S315080142B0126C51F82CC08CEA0222B3F1000CA3F15E
S315080142C00103F2DC1046704760090508704704F0DF
S315080142D0CBBC4FF0FF30704710B50C46014602695A
S315080142E020469047002808BF10BD2046BDE810406B
S315080142F030F07EBF70B5044682B00D46164610EE04
S31508014300100A37F04DFA41EC100B32468DED000BD1
S3150801431029462046FEF732FD02B070BD2DE9FF4F52
S3150801432082468DB04069171E8B46C26BDDE91A6855
S3150801433089B2DDF87090104400EBC1054FF0000416
S315080143402BD92988504609F013FE1099FCF7DEF996
S31508014350F8B996B12A465146684617F0C6FC7069FF
S31508014360816D084400EB0802314606A817F0C5FC22
S3150801437006A968460FF086FD58B1DAF80C000BEB72
S31508014380040141EA0040C9F8000011B00120BDE866
S31508014390F08F641C0835BC42D3D30020C9F800004D
S315080143A011B0BDE8F08F0000042824BF4FF0FF309C
S315080143B070470249085C091D085C7047B22905085F
S315080143C010B5FA210160084601F0DCFA012010BD9A
S315080143D0502834BF032000207047502828BF704753
S315080143E010B504468C4603F00F001146012808BF94
S315080143F0032102D0002818BF02216246204601F097
S31508014400DDFC00232046BDE810401A46194602F095
S31508014410C3B8002203238A4228BF7047502ABCBF6B
S315080144208354521CF7DB704710B51420002100F0A5
S3150801443019FC0020164A014622F81010401C0528CE
S31508014440FADB1448016000221349062002F05EF8DF
S3150801445000221249072002F059F8002210490820C3
S3150801446002F054F800220F49092002F04FF8002201
S315080144700D490A2002F04AF800220C49172002F0D9
S3150801448045F800220A49282002F040F8012010BD0B
S3150801449064460010003C0140395D0108495D010888
S315080144A0595D0108695D0108795D0108895D0108A1
S315080144B005600108502824BF0020704770B50E46D4
S315080144C0040900F00F00012101FA00F582B000216C
S315080144D06846FDF7EBFD0C49002E31F8140008BFBC
S315080144E0A84309D0284208BF284305D06846FDF7E6
S315080144F0E2FD02B0002070BD21F814006846FDF700
S31508014500DAFD02B0012070BD6446001012494FF071
S31508014510FF30086048608860C1F80001C1F80401ED
S31508014520C1F808010E480D498160C1600161416108
S315080145308161C16201638163BFF35F8F0A4AC16307
S3150801454008491160A2F1040108600848016841F4AC
S31508014550E02101607047000080E100E07523010851
S3150801456000FE01200007FA050CED00E024ED00E04D
S315080145702DE9F0412D4C82B00D46B4F8B000002863
S3150801458004BF02B0BDE8F08100216846FDF78EFD43
S31508014590274FD4F8B40000264FF0010835B3002898
S315080145A03DD1C4F8B480386840F00200386094F808
S315080145B058000125012813DD04EB8500016900294E
S315080145C01CBF806A002806D0012229462046FEF72C
S315080145D0FAFD0028F8D194F858006D1CA842EBDCC6
S315080145E084F846602046FFF7A3FC18E0B8B1A22577
S315080145F000222B4611460B20C4F8B460FFF7EDFEE6
S3150801460000222B4611460C20FFF7E7FE386820F0FA
S315080146100200386084F846802046FFF789FC684620
S31508014620FDF749FD02B00120BDE8F08110930010A5
S315080146300408005070B582B0041E0D461CBF94F8DC
S315080146405800A842DEBF002002B070BD4FF0A04658
S3150801465000216846FDF72AFD04EB8500016900295A
S315080146601CBF806A002812D0606D30F8150010F062
S31508014670010F12D0012229462046FEF7A4FD002883
S31508014680F8D16846FDF717FD02B0012070BD6846EE
S31508014690FDF711FD02B0002070BD6846FDF70FFD5C
S315080146A018B12146304602F00AFA2A462146304612
S315080146B002F08EF9E5E702282CBF4FF0FF30001D06
S315080146C07047000010B5044808F076F9BDE81040B7
S315080146D002480DF041BE0000A0EF001090EF001057
S315080146E001480249FBF79DBF00E00120881A000036
S315080146F070B504460D460B4808F05EF9002C08BF54
S3150801470070BD084801230849224683610DF0ECFD76
S315080147104FF47A7005FB00F1BDE87040014808F0D6
S3150801472058B8000080EC00101D74010810B5024845
S3150801473008F042F9012010BD80EC00102DE9F04F78
S3150801474087B05748DFF85091CDF81090DFF84CA1A3
S31508014750046800260AF16008002C04BF07B0BDE80A
S31508014760F08FD4E9021089688847074630200390FC
S3150801477001A80290D4E902100DF1140B896806AD5F
S315080147808847DDE902215B46009523F02FFF38684B
S3150801479010F0020F08D1D4E902C040F60C12DCF879
S315080147A00CC03E4B0199E047DFF8F8B0002558F8F0
S315080147B02500B0F1FF3F03D010EB0B0027D125E010
S315080147C001F06FF8386810F0020F10D008EB850079
S315080147D001F0ABFB4FF0000CCDF800C0D4E902168E
S315080147E00422D1F810C0014604AB30460DE00AEBAD
S315080147F085005346C0F8609000200090D4E902C0B5
S3150801480040F60C12DCF810C00199E04701266D1C30
S31508014810002E3CD1322DCAD30598B96900EB800028
S3150801482001EB800501F03DF8A86831F065F806004E
S315080148302DD0386810F0020F05D0AA6830460199C4
S31508014840FBF7F1FD07E0D4E902C00199DCF80CC0D9
S31508014850AA683346E047FF22C82106F16000FBF744
S31508014860D8FEC6F86090D4E902200199526A9047A9
S3150801487001F017F80020AA680090D4E902C001994E
S31508014880DCF810C03346E047304631F033F802F021
S31508014890ABFF07B0BDE8F08F444C544200C0000896
S315080148A05C400010BCB3ABBD10F07CB908B5DDF8AF
S315080148B008C0CDF800C010F01CF908BD08B5DDF830
S315080148C008C0CDF800C010F0EDF908BD214830B494
S315080148D04FF0FF310A0CC0E900121F48016841F088
S315080148E0030101601D484FF0010CC0F808C00423FC
S315080148F040040380202181800021018102228281D6
S31508014900018381835322028541634A1EC262A0F84C
S3150801491014C0134A1380131D1980124C17232380C0
S31508014920231D1980104B19801B1D4FF6FF71196045
S315080149300E49A1F800C0118841F0010111800188D2
S3150801494041F001010180002230BC09491C2001F017
S31508014950DDBD00002840001040380240002004E078
S3150801496000040040080400402804004014040040E4
S315080149709136010870B582B004460D460021684695
S31508014980FDF794FB09484FF08046C0E9004574637A
S31508014990FDF7CCFB001B71EB050024BF0220B0829A
S315080149A06846FDF788FB02B070BD0000284000107C
S315080149B00149086000207047A44300100020704791
S315080149C04FF0FF3070477047014808F029B80000DA
S315080149D0C89200100020704713460A46014601484E
S315080149E003F06EBAD89200100146014803F092BA54
S315080149F0D8920010014803F00FBB0000D8920010AE
S31508014A0004F062B904F074B904F088B990F8441056
S31508014A10002904BF02207047016C4A780A2A13D27A
S31508014A20DFE802F005071209120B12120D0F00F04A
S31508014A300DB801F063B800F0EFBB00F0C7BB01F099
S31508014A401DBE012201F036BE02F0EABB81B000228A
S31508014A50ADF800204A88002A04BFCA88022A24D150
S31508014A6090F84630032B20D00A7812F00F0208BFBF
S31508014A7000F150011CD0012A02D0022A05D014E007
S31508014A80052B08BF694610D112E0042B01D18A888B
S31508014A905AB98A8802F07F028A8090F858108A42A9
S31508014AA03CBF416D01EB420102D3012001B07047C1
S31508014AB001660221A0F864100249C165002001B00F
S31508014AC0704700005D3B01080FB40A4608B505A901
S31508014AD0009101460348049B03F006F901B05DF80D
S31508014AE014FB0000D89200101648C16941F48031C0
S31508014AF0C161C16941F40041C161C16941F4005113
S31508014B00C161C16941F40071C161C16941F4807132
S31508014B10C161C16941F08001C161C16941F04001CA
S31508014B20C161C16941F02001C161C16941F010014A
S31508014B30C161C16941F00801C161C16941F0020160
S31508014B40C16170470090024000B583B08DED000B3E
S31508014B50FEF714F903B000BD70B5054600242AF026
S31508014B601BFE002818BFA54288BF641CF7D8AC42B3
S31508014B700CBF0020012070BD2DE9F04105000C464F
S31508014B8003D02878142808BF6D68002701262560F8
S31508014B9095B12878102801D1686868B1294604F1C9
S31508014BA0080011F00DFF0028B8BFBDE8F081277194
S31508014BB0287810280BD103E0267167718E7122E0DF
S31508014BC06868407810F0100F18BF012000D1002046
S31508014BD06071A16801F06002202A18BF402A06D038
S31508014BE001F01F0101291CBF0829102901D0A6714E
S31508014BF009E030B90549E068896B884218BF002089
S31508014C0000D10120A0710020BDE8F08108550010EF
S31508014C1001207047012070470FF0BCBE70470000A5
S31508014C20054810B50068FEF7CFFCBDE8104042F212
S31508014C3010720023FBF752BA1C400010502070472F
S31508014C40502824BF002070470109054A02EB81213B
S31508014C50096900F00F0021FA00F000F00100704721
S31508014C60000002400022134610B5121A73EB010226
S31508014C700BDA42F21072821A71F1000105DA00F0BC
S31508014C80A2FF03490860012010BD002010BD0000E5
S31508014C901C400010502828BF7047020900F00F0079
S31508014CA0054B03EB8222012303FA00F080B20029A7
S31508014CB014BF1083508370470000024070470000FC
S31508014CC030B50446006A294985B051F820000189A2
S31508014CD011F0800FFBD100210180E069002818BF7F
S31508014CE0FDF748FA606800280CBF012100212068F9
S31508014CF0FFF7D0FFA0680125002818BF022503ABDE
S31508014D0002AA01A9206AFEF73DFC00231A461946A4
S31508014D100095019800F04CFF002301251A46194613
S31508014D200095029800F044FF00231A46194600959B
S31508014D30039800F03DFF206A68B10D49012804BFB8
S31508014D40086820F480400CD0022804BF086820F4C3
S31508014D50004006D006E00748016821F48051016049
S31508014D6000E0086005B0012030BD000044BC04081D
S31508014D7040380240443802400628B2BF032A0020C0
S31508014D8070472DE9F04387B00446894690461F4689
S31508014D90002102A80F9EFDF789F954485449052CAC
S31508014DA050F82450534804BF0A6842F020020ED036
S31508014DB0002C04BF0A6842F0100208D04E48016868
S31508014DC04FF48032A240114301604C4800E00A606A
S31508014DD000EB6900B0FBF9F028810C20092F08BF08
S31508014DE041F20C00B8F1000F06D040F48060B8F12A
S31508014DF0010F08BF40F40070A881012F08BF0027E2
S31508014E0038032882002016F0040F18BF4FF40070EB
S31508014E1016F0020F18BF40F48070A88204A800900B
S31508014E2001AB06AA05A92046FEF778FF7220032CD6
S31508014E30A8BF8220C7B23B46002202210598FFF788
S31508014E40CCFA3B46012200210698FFF7C6FA16F06E
S31508014E50040F02D00198401C1CD000223B46114683
S31508014E600198FFF7BAFA16F0020F02D00498401C0F
S31508014E7010D03B46012200210498FFF7AEFA002123
S31508014E80204600F037FB062C24D2DFE804F00A0E90
S31508014E9012161A1E02A8FDF70EF907B00020BDE882
S31508014EA0F08300221649252012E000221549262002
S31508014EB00EE00022144927200AE000221349342073
S31508014EC006E000221249352002E000221149472056
S31508014ED001F01CFBA88940F40050A88102A8FDF73F
S31508014EE0EAF807B00120BDE8F08300009C10050828
S31508014EF04438024000BD01054038024080DE800288
S31508014F0045620108716201089D620108C9620108CA
S31508014F10F5620108216301080620704710B50446A9
S31508014F202A2001F014FD432001F011FD012120463C
S31508014F30FFF71EFB0348016821F08001016000208C
S31508014F4010BD000034380240012070472DE9F043B6
S31508014F50814685B00F46104600F035FE04460D46DB
S31508014F60002102A8FDF7A2F8FDF7E0F804194D4162
S31508014F7001263846FEF744FF38B1804602A8FDF7F8
S31508014F809AF805B04046BDE8F083FDF7CFF8001B57
S31508014F9071EB050006D302A8FDF78DF805B00020D0
S31508014FA0BDE8F0831EB10220FDF78AFA60B1002040
S31508014FB0CDE9007001264A462046294607F0C6FC77
S31508014FC002A8FDF789F8D4E702A8FDF77FF80DF0E6
S31508014FD091F9064602A8FDF77DF8CAE730B50C46F1
S31508014FE083B0054600210120CDE900010A460823C0
S31508014FF04FF4E1310020FEF7A3FD24B1214612A0AA
S3150801500000F094F902E015A000F090F916A0E96BFA
S3150801501000F08CF918A0A96B00F088F91AA0696B41
S3150801502000F084F905F140011BA000F07FF9002486
S31508015030214655F824201CA000F078F9641C0C2C94
S31508015040F6DD03B030BD0000455843455054494F7D
S315080150504E203078253032783A0D0A004552524FA3
S31508015060523A0D0A000000002020637073723D3029
S3150801507078253038780D0A002020706320203D30CD
S3150801508078253038780D0A0020206C7220203D30B2
S3150801509078253038780D0A002020737020203D309D
S315080150A078253038780D0A002020722530326420A0
S315080150B03D3078253038780D0A00000030B50C46A9
S315080150C00546011D808885B0022806D103AA6846CF
S315080150D017F0ACFF08B1039810B105B0284630BDEA
S315080150E0294620460CF054FD019A0099201D926F1D
S315080150F089B202EBC101496819F0F8FA05B02046F0
S3150801510030BD4FF04A40704730B505460B4887B069
S315080151102A46D0F8B0410A48CDE90004694603A8F1
S315080151200CF0C6FC0028BEBF002007B030BD04F154
S315080151301400617C07B001FB050030BD485300101F
S31508015140100001000FF0F0BD0FF060BE0FF090BE29
S3150801515000B5FCF7EBFF5DF804EBFEF739BAFEF78D
S3150801516037BA1622026017200860704781777047A0
S315080151700020704770B50020FCF7C6FF044610F002
S3150801518061FA0546002C1CBF0020FCF7B7FF28462C
S3150801519070BD000004282EBF4FF0FF300149085C9E
S315080151A0704700006829050810F070BC00B583B087
S315080151B09DED040ADDED050A8DED000ACDED010A26
S315080151C010F070FA03B000BD0120704710B504460F
S315080151D048887F289CBF8A88002A04BFC988002975
S315080151E003D194F84610052901D3012010BD10F00A
S315080151F0FF0084F845000CBF0320042084F846000C
S315080152002046FEF795FE0020A4F864000148E065F3
S31508015210032010BD5D3B010810B50446C888002867
S3150801522032D194F84620032A2ED0087810F00F00C0
S3150801523005D0012808BF10BD022825D114E04888E9
S31508015240012821D10A4602212046FEF74DF9D8B197
S31508015250C07A10F0200F05D0B4F8500040F00200D3
S31508015260A4F8500006201CE0042A01D1888858B900
S31508015270888800F07F00888000281CBF94F8582091
S31508015280824201D94A880AB1012010BD626D32F8FD
S31508015290103043F0010322F81030888884F8590049
S315080152A004200021A4F864100149E16510BD00003D
S315080152B05D3B010808B5009313460A4601460248B4
S315080152C002F012FD08BD0000D89200101648C16907
S315080152D021F48031C161C16921F40041C161C1690B
S315080152E021F40051C161C16921F40071C161C1692B
S315080152F021F48071C161C16921F08001C161C1696F
S3150801530021F04001C161C16921F02001C161C16972
S3150801531021F01001C161C16921F00801C161C169AA
S3150801532021F00201C1617047009002400FB4FF21CC
S3150801533010B5C0B043AB6846429AFDF792FF0446E2
S315080153400020FDF7ABFC224669460020FDF7A8FCC4
S315080153500020FDF7A3FC40B010BC5DF814FB00006B
S3150801536001460648006838B190F838208A4208BFD5
S31508015370704700680028F7D100207047DC43001009
S3150801538000213222084662F30F0061F3174010B577
S31508015390012161F31F60FDF7A7F8BDE8104001A0E0
S315080153A027F0D6BB45786974696E672E0D0A000029
S315080153B0002070474B210170012070470D4910B537
S315080153C000200860062001F0C2FA072001F0BFFAA2
S315080153D0082001F0BCFA092001F0B9FA0A2001F007
S315080153E0B6FA172001F0B3FA282001F0B0FA012025
S315080153F010BD0000003C014030B50446006A83B088
S31508015400032822BF002003B030BD68B13649012800
S3150801541004BF086840F480400CD0022804BF08681D
S3150801542040F4004006D006E03048016841F4805156
S31508015430016000E008602E48226A216950F822308E
S315080154404FF45170002918BF40F64430A16800296D
S3150801545018BF40F00300E168002908BF80F0010089
S315080154604AF21041002A18BF45F208216269B1EBD8
S31508015470C20F84BF090940F02000B1EB420F84BF77
S31508015480890840F010008A4238BF40F008001880A9
S3150801549002AB01AA6946206AFEF774F8216A40F24E
S315080154A05220022908BF40F26220C3B21D460122DA
S315080154B000210098FEF791FF00222B46114601981C
S315080154C0FEF78BFF2B46012200210298FEF785FF86
S315080154D0D4E9000100F014FDA069002818BFFCF703
S315080154E049FE012003B030BD40380240443802402D
S315080154F044BC040800B5034641B1002101F0B4FFDC
S31508015500002118465DF804EB01F0C8BF012101F03E
