S315080000000CE000201D00000831000008310000083F
S3150800001031000008310000083100000800F058BE21
S31508000020DFF808D000F0B7FE00F048BFF8BF01209F
S31508000030FEE76E2900F07882702900F0C9836629E8
S31508000040AFF300806529AFF300806729AFF300801E
S315080000506129AFF3008003681B0A28BF41F08001BD
S31508000060692900F02582642900F02282752900F0AA
S315080000701F826F2900F05483782900F09583E929B7
S3150800008000F0EC82E42900F0E982F52900F0E68226
S31508000090EF2900F05183F82900F094830368DB09FF
S315080000A028BF41F08001632900F07E85732900F09E
S315080000B08385E32900F08E85F32900F093850020D7
S315080000C07047000040BA7047C0BA704700BEFEE7E6
S315080000D0704770477CB515461A460C00009001D04B
S315080000E02044401E074B7B4469460190284600F091
S315080000F036FA05461CB10020694600F043FA284640
S315080001007CBD0000A504000040EA010310B59B076A
S315080001100FD1042A0DD310C808C9121F9C42F8D063
S3150800012020BA19BA884201D9012010BD4FF0FF3014
S3150800013010BD1AB1D30703D0521C07E0002010BD2A
S3150800014010F8013B11F8014B1B1B07D110F8013BB6
S3150800015011F8014B1B1B01D1921EF1D1184610BD97
S31508000160032A40F2308010F0030C00F0158011F8D5
S31508000170013BBCF1020F624498BF11F801CB00F8AD
S31508000180013B38BF11F8013BA2F1040298BF00F801
S3150800019001CB38BF00F8013B11F0030300F0EA83F6
S315080001A0083AC0F0088051F8043B083A51F804CBE5
S315080001B0A0E80810F5E7121D5CBF51F8043B40F8AB
S315080001C0043BAFF30080D20724BF11F8013B11F8B6
S315080001D001CB48BF11F8012B24BF00F8013B00F8FA
S315080001E001CB48BF00F8012B7047431A28BF9A4233
S315080001F07FF6B6AF032A1044114440F2268010F069
S31508000200030F1EBF11F8013D521E00F8013D10F004
S31508000210030F7FF4F6AF11F0030300F0F083083AFA
S31508000220C0F00B8051F8043D083A51F804CD40F867
S31508000230043D40F804CDFFF7F3BF121D5CBF51F82B
S31508000240043D40F8043DAFF30080D20724BF11F8FF
S31508000250013D11F801CD48BF11F8012C24BF00F863
S31508000260013D00F801CD48BF00F8012C704702F0A7
S31508000270FF0343EA032242EA024200F002B84FF0C3
S3150800028000020429C0F0128010F0030C00F01B8055
S31508000290CCF1040CBCF1020F18BF00F8012BA8BF63
S315080002A020F8022BA1EB0C0100F00DB85FEAC17C27
S315080002B024BF00F8012B00F8012B48BF00F8012BDA
S315080002C070474FF0000200B513469446964620390B
S315080002D022BFA0E80C50A0E80C50B1F12001BFF4F1
S315080002E0F7AF090728BFA0E80C5048BF0CC05DF857
S315080002F004EB890028BF40F8042B08BF704748BFA5
S3150800030020F8022B11F0804F18BF00F8012B704718
S3150800031010B5044610F0030F08BF11F0030F40F0A4
S3150800032015804FF0013E121FC0F20E8051F8043BB3
S31508000330A3EB0E0C2CEA030C1CEACE1C08BF40F8F3
S31508000340043BF0D0A1F1040102F10402521E08DBBD
S3150800035011F8013B002B00F8013BF7D11146FFF7D6
S315080003608EFF204610BD00004FF0013C50F8042BCC
S3150800037051F8043B9A4221D1A2EB0C03934313EAAA
S31508000380CC1317D150F8042B51F8043B9A4215D1D7
S31508000390A2EB0C03934313EACC130BD150F8042BAE
S315080003A051F8043B9A4209D1A2EB0C03934313EA92
S315080003B0CC13DBD04FF00000704700BFD01A01BA4B
S315080003C0B1FA81F101F0180122FA01F0CB40C1F12E
S315080003D02001DBB2C0B2C01A2CFA01F3D11A91433C
S315080003E011EAC311E6D1704770B5044685690068FD
S315080003F0C10601D5302600E02026C00708D070BD0A
S31508000400D4E9012130469047206A00F101002062B4
S315080004106D1EF5D570BD70B5044685690068C007C0
S3150800042008D170BDD4E9012120209047206A00F147
S31508000430010020626D1EF5D570BD09684A0501D513
S3150800044040B27047C905FCD500B2704709684A052D
S3150800045001D5C0B27047C905FCD580B2704770B5E2
S3150800046005460C46012A05D02868800600D5EA69A3
S31508000470002302E0012305E05B1C934202D2E05C04
S315080004800028F9D1A869E618C01AA861286A18448C
S3150800049028622846FFF7A8FF04E0D5E9012114F8E9
S315080004A0010B9047B442F8D32846FFF7B4FF70BD56
S315080004B02DE9F0410746002510687529394616A426
S315080004C011D0FFF7BAFF002803DAC0F1000013A421
S315080004D007E039688A0701D511A402E0490704D55F
S315080004E010A4012501E0FFF7B1FF00210A2307F157
S315080004F0240607E0B0FBF3F203FB12003030705419
S315080005001046491C0028F5D12B4622463846BDE838
S31508000510F04100F0E3BA0000000000002D000000E2
S315080005202B0000002000000011680268006A5305CD
S3150800053001D508700BE0D30501D5088007E013063E
S3150800054003D5C217C1E9000201E05206086001207E
S315080005507047000001694A1C02610878704700B5B7
S315080005608FB0CDE901310021059105497944CDE9DE
S3150800057003101146684600F037F90FB000BD0000B9
S31508000580E5FFFFFF0A6802F8010B0A607047D1E928
S3150800059000239A4202D2531C0B6010707047000069
S315080005A02DE9FF5F04468A461546DFF8AC80F84415
S315080005B00027D8E900103E46CDE9001011E03AF8C8
S315080005C016106A4602A800F011FB411C07D02168E4
S315080005D0890603D5E269391891420ED8074406F10F
S315080005E001062068800602D5E069B84205DDAE42FC
S315080005F0E5DB3AF816000028E1D1A069C01BA06126
S315080006002046FFF7F1FED8E90010CDE900100020DA
S3150800061016E03AF818106A4602A800F0E7FA81468A
S31508000620401C0BD000250DF1080B05E0D4E901218B
S315080006301BF8050090476D1C4D45F7D308F10100DE
S31508000640B0428046E5DB206A384420622046FFF740
S31508000650E2FEBDE8FF9F0000D27600002DE9F041DA
S315080006608046D21D22F007020026D2E90002F529AB
S3150800067014A512D0002A06DA0023D0EB030063EB98
S31508000680020211A508E0D8F800108B0701D50FA5BE
S3150800069002E0490701D50EA501261146002408F1F6
S315080006A0240704E000F0D5F930323A55641C50EAC4
S315080006B00102F7D133462A4621464046BDE8F041B5
S315080006C000F00CBA000000002D0000002B0000000E
S315080006D02000000030B4002100F124040CE002F0F0
S315080006E0070505F130054FEAD20242EA437265541E
S315080006F001F101014FEAD30352EA0305EFD1046879
S31508000700002310A2250708D504F020040C4304D0C2
S31508000710C46901230CA2641EC46130BC00F0DEB9B2
S3150800072010B5044621461068FFF790FE024620469B
S31508000730BDE810400023CDE7D21D22F00701D1E91C
S315080007400023C7E70000000030000000F0B40F46A1
S315080007500168090502D5234C7C4402E0214C7C44FF
S315080007600E34002100F124050BE002F00F064FEAD3
S315080007701212A65D42EA03724FEA13136E5401F190
S31508000780010152EA0306F0D1224604680023240731
S3150800079004D5702F05D009B111320223F0BC00F040
S315080007A09DB910320123F9E770B504460D46214676
S315080007B01068FFF74BFE024629462046BDE8704002
S315080007C00023C3E7D21D22F00703D3E90023BDE7C0
S315080007D00368126843F0200303600823C3610023FB
S315080007E0B4E70000307500002DE9F05F044689463D
S315080007F04FF0000ADFF878B1FB44C0F820A0204685
S31508000800E1688847002875D0252806D0D4E9012153
S315080008109047206A401C2062F1E700265F46204682
S31508000820E16888472028054608DB312D06D207EB04
S31508000830050010F8200C08B10643F0E7B00701D50B
S3150800084026F00406C4F81CA00027C4F818A02A2D10
S3150800085009D0284606F012FE38B304EB8708303D67
S31508000860C8F8185019E059F8041B204604EB87020B
S315080008709161E1688847012F054618D1E06900288B
S3150800088020DA26F020061DE0D8F8180000EB8000D4
S3150800089005EB40003038C8F818002046E16888475C
S315080008A0054606F0EBFD0028EED1012F0AD02E2DC5
S315080008B008D12046E16888477F1C0546022F46F086
S315080008C02006C4DBA069002803DA404246F0010688
S315080008D0A061F00701D026F010066C2D0BD0682D0C
S315080008E009D04C2D39D06A2D35D0742D35D07A2DB6
S315080008F033D016E038E0E1682F4620468847B842EC
S31508000900054609D16C2F26D04FF48060E16806436E
S3150800091020468847054604E06C2F1AD04FF48070AD
S3150800092006430DB3A5F14100192802D8203546F42F
S3150800093000664A462946204626604E46FFF779FB5A
S3150800094080B101280BD0F61D26F0070000F1080932
S3150800095055E74020E4E78020D8E70020D6E706F1EF
S3150800096004094CE7284651E7206ABDE8F09F0000D5
S31508000970B874000010B5203AC0F00B80B1E81850E2
S31508000980203AA0E81850B1E81850A0E81850BFF46B
S31508000990F5AF5FEA027C24BFB1E81850A0E818500A
S315080009A044BF18C918C0BDE810405FEA827C24BF5E
S315080009B051F8043B40F8043B08BF7047D20728BFEC
S315080009C031F8023B48BF11F8012B28BF20F8023B3B
S315080009D048BF00F8012B7047431A28BF9A427FF692
S315080009E0C9AF104410F0030F11441EBF11F8013DA2
S315080009F0521E00F8013D10F0030F7FF4F6AF103ACF
S31508000A00C0F00A8010B531E91850103A20E918509C
S31508000A10BFF4F9AFBDE81040530724BF31E9081009
S31508000A2020E9081044BF51F8043D40F8043D12F08F
S31508000A30030F08BF7047D20728BF31F8023D48BFE9
S31508000A4011F8012C28BF20F8023D48BF00F8012CF8
S31508000A50704730B5B0F10A024FEA900E71F1000303
S31508000A604EEA817EB0EB0E0061EB91014FEA101E53
S31508000A704EEA017E10EB0E0041EB11114FEA102EE3
S31508000A804EEA016E10EB0E0041EB11214FEA104EB3
S31508000A904EEA014E10EB0E0041EB1141401841F1B0
S31508000AA000014FEAD00040EA41704FEAD10110EB4D
S31508000AB080054FEA810444EA907444EB01046D19F9
S31508000AC044EB0404521BA3414FF0000348BF0A320B
S31508000AD000D530BD401C41F1000130BD2DE9F0477D
S31508000AE00D4604469246994600F124080168880690
S31508000AF004D5E06921F01001216000E00120A84238
S31508000B0002DDA0EB050700E00027A16907EB050257
S31508000B1002EB0300A1EB0000A0612068C00602D426
S31508000B202046FFF761FC002608E0D4E901211AF8FF
S31508000B3006009047206A401C761C20624E45F4DB6E
S31508000B402068C0060AD52046FFF74EFC06E0D4E921
S31508000B50012130209047206A401C2062381EA7F1E8
S31508000B600107F4DC07E0D4E9012118F805009047ED
S31508000B70206A401C2062281EA5F10105F3DC2046E8
S31508000B80FFF749FC2068000602D50220BDE8F08779
S31508000B900120FBE710B5436913B1AFF3008001E00C
S31508000BA0FFF75DFC012010BD126800F124010A70F0
S31508000BB000224A700122EDE711684FF0FF32E9E79B
S31508000BC010B5436913B1AFF3008001E0FFF7E8FC05
S31508000BD0012010BD126800F1240182840022C2841B
S31508000BE00122EDE711684FF0FF32E9E770B50546D7
S31508000BF00C46164600F01AF8036893F80101012816
S31508000C0006D0FF2C0FD8185D68B101202C7070BD76
S31508000C10D3F807013246214603442846BDE870400A
S31508000C2003F2071318474FF0FF3070BD10B500F0F8
S31508000C3005F8001D10BD00BFAD68000000487047EC
S31508000C40A01F0120814208BF7047042A06D950F820
S31508000C50043B121F41F8043B042AF8D8002A08BFAF
S31508000C60704710F8013B01F8013B521EF9D1704755
S31508000C700022042904D9091F40F8042B0429FAD8AC
S31508000C80002908BF704700F8012B491EFBD17047A1
S31508000C9010B507480749084AFFF7D4FF0748084927
S31508000CA0084AFFF7CFFFBDE8104007480749DFE7C6
S31508000CB0E48600080000012000000000E486000821
S31508000CC0000001203C0100003C010120FC2B000033
S31508000CD0FFF7A6B910B472B63348016841F470013B
S31508000CE00160324C012262603148016821F40271C8
S31508000CF001603048016841F4FE6101602E480168D0
S31508000D0041F001010160016811F0020FFBD0DFF824
S31508000D10ACC00023CCF80030016821F0A061016066
S31508000D20016841F480310160016811F4003FFBD08D
S31508000D302168CCB22249112C0CBF40F2056440F25E
S31508000D4005740C60204C1F492160016841F08071D0
S31508000D500160016811F0007FFBD049F20241CCF82E
S31508000D600010DFF868C04FF48011CCF800100CF1C1
S31508000D7004010B60091D0B60154B4FF0805119607B
S31508000D8089131B1D1960016821F0010101601148D2
S31508000D90026010BC704710B5FFF79CFF01F078F8A9
S31508000DA0BDE81040FFF774BF88ED00E0002004E0BE
S31508000DB014ED00E0FCED00E000380240083802407F
S31508000DC0003C0240085440070438024030380240CC
S31508000DD04038024000380140EFF3108272B60260D4
S31508000DE07047016881F310887047EFF30581006842
S31508000DF009B14FF001007047016881F31088704708
S31508000E0072B670470168EFF3108281F3108882F397
S31508000E1010887047EFF31080EFF3058180F001002A
S31508000E2009B14FF000007047EFF3108072B680F0FA
S31508000E3001007047EFF3108062B680F0010070473A
S31508000E40EFF3108172B601607047016881F310886C
S31508000E507047000070477047144A13071168586AAC
S31508000E60D2F800C08C45F9D1704730B583B0044636
S31508000E7000216846FFF7B0FFFFF7EEFF054620465C
S31508000E80FFF7E9FF032894BF0024C41EFFF7E4FF19
S31508000E90401BA042FAD96846FFF7A3FF03B030BD4E
S31508000EA0A8214843401F00F021B90000240400404F
S31508000EB080684068704780688068704710B584B05D
S31508000EC06FF0030032496844884228BF314A03D389
S31508000ED040F804298842FBD2304C2F4860603048DD
S31508000EE0A06000F09FFB2F482F490844A1680844DA
S31508000EF0A06001F0A5FF206000F070FC01F0F0FA98
S31508000F0000F072FC0020034600900222042127A06C
S31508000F1000F028F92BA32EA2304931A000F022F9BF
S31508000F20364937A000F01EF901A902A800F06EFBA9
S31508000F30DDE90110FFF7A3F938A006F0C3FA27493F
S31508000F4037A006F0BFFA38A135A006F0BBFA20A1F3
S31508000F5038A006F0B7FA1BA136A006F0B3FA0121AD
S31508000F604EF6602002F036F90121022002F04EFA10
S31508000F700121084602F02CF901F044FE30A006F0E3
S31508000F80A1FA38A006F082FA03F0ABF804B010BD57
S31508000F90008001200DF0ADBA0000000834000120E1
S31508000FA0E4860000000000003C0100002E4E657437
S31508000FB04D46207625642E25642E25642E25640D3F
S31508000FC00A00000031303A34363A3538000000005D
S31508000FD04D61792032392032303132002C750008C3
S31508000FE025732C204275696C6420446174653A0D3A
S31508000FF00A0925732025730D0A000000A744060078
S3150800100041524D20436F6D70696C6572207665722A
S3150800101073696F6E2025640D0A0000000C0000003D
S31508001020252D3135730D0A004275696C64204461BB
S3150800103074653A002020252D3133730D0A0000000F
S315080010400C6D61696E2065786974656421213F3F7E
S315080010503F2E202048616C74696E67204350550DF9
S315080010600A0000006D61696E2065786974656421FF
S31508001070213F3F3F2E202048616C74696E672043EC
S3150800108050550D0A000000000020704700207047E8
S315080010900020704710B501F0B3FCBDE8104003F01E
S315080010A020B8000004B02DE9FF0F6846EFF305816C
S315080010B0FFF7F0BF81B000B52DE9FF5F6846EFF393
S315080010C00381C163AFF3008010B582B004460021E6
S315080010D06846FFF781FE0021204601F091FC03F0E7
S315080010E000F86846FFF77DFE02B010BD001FFDDC64
S315080010F0F7460000034951F82020521E41F82020E7
S315080011007047000008020120034951F82000002812
S31508001110CCBF01200020704708020120034951F87E
S315080011202020521C41F820207047000008020120A8
S3150800113010B582B0044600216846FFF74DFE074801
S31508001140016821430160416800291CBF80688847FF
S315080011506846FFF746FE02B010BD00009000012069
S3150800116003F0ACBF0FB410B503A9029800F010F84D
S3150800117010BC5DF814FB04F053B804F0FFB80FB4C4
S3150800118010B504AA039900F05BFA10BC5DF814FBCD
S31508001190034603480A461946406900F051BA00005A
S315080011A00C0001202DE9FF4F89B00546014603F0E2
S315080011B00F0B08AA01A805F0DDFA002800F09D81AA
S315080011C00198C2688068816810468847049001982B
S315080011D003AE02ACC2688068816810468847234619
S315080011E03246294606F008F9002868D00498DDE951
S315080011F00A97816903984FF0010A00EB800001EB1A
S31508001200800001688068691AB1FBF0F200FB1210D1
S315080012100590002803DA00200590FEF757FF04988A
S3150800122003994069884240F29C81049804238169A5
S31508001230039800EB800001EB80040298216900EB1B
S31508001240400003EB80000A582168A06802FB0012E0
S31508001250691AB1FBF0F605990792401A0690002024
S3150800126005906068B04217D90698484534BF80464D
S31508001270C846A0680690029B216903EB4302082032
S3150800128000EB82000858B0422BD2581C0290E16845
S3150800129081421AD8FEF71AFFB9F1000F40F36181AF
S315080012A0BAF1000F00F05D810020029003980499BE
S315080012B0401C039049698842B7D300F052B92946C1
S315080012C0AA4806F0E3F800F02AB900EB4002042029
S315080012D0216900EB8200A2680858216800FB021009
S315080012E00790BBF1000F18BFBBF1010F08D0BBF187
S315080012F0020F4CD0BBF1030F00F0D08000F0EBB822
S315080013000498006810F0020F13D0BBF1000F06D046
S31508001310424629463846FEF723FF00F0DCB80B980C
S3150800132041460268284600F009FF0B99086000F05C
S31508001330D2B8BBF1000F05D1404606F0D0F8070039
S3150800134000F0ED80019829464246D0F80CA0806846
S315080013503B46D0F80CC05046E0475FEA000A03D087
S31508001360BBF1000F07D0B6E0BBF1000F04BF38464B
S3150800137006F0B3F8AFE00B9841460268384600F02D
S31508001380DDFE0B990860384606F0A7F8A3E0294663
S31508001390019802F017FA002804BF0DB0BDE8F08FD7
S315080013A02169029800EB400051F8201070488843E4
S315080013B00FD0A268206806FB020A554524D1019879
S315080013C05146D0F80CC08068036A60469847D8B979
S315080013D013E0079885422DD166480068002818BF93
S315080013E006F07BF800206349486040F60C1006F0CA
S315080013F076F801465F4801603AE001985146C368AD
S315080014008068426A18469047019800210091D0F8F2
S315080014100CA0806842463B46D0F810C02946504684
S31508001420E0475FEA000A56D14246294652A006F02E
S315080014302DF850E04F4A0A995068084440F60C11B6
S31508001440884215D906F04BF80090002804BF0DB065
S31508001450BDE8F08F4748426801680098FEF780FEAD
S315080014604448006806F039F842480099016006E0E9
S3150800147040480068002804BF0DB0BDE8F08F3D481D
S315080014800A9A0168406808443946FEF769FE3948F1
S315080014900A9940680144374841601CE0294601988A
S315080014A002F090F9002804BF0DB0BDE8F08F21695D
S315080014B0029800EB400051F820102D4888430AD0C6
S315080014C00198A2682168C368806806FB0211426A0F
S315080014D0184690478246A9EB0809B9F1000F40DD86
S315080014E0BAF1000F3DD0002F18BF47444544606845
S315080014F0761CB0423FF6B8AED6E60A9829182A48AE
S31508001500D0E9063018449D4228BFA84201D9814235
S3150800151009D90090294625A00A9A05F0B7FF0DB00B
S315080015200020BDE8F08FBBF1000F1AD0BBF1010F08
S3150800153004BF2946DDE90A200AD0BBF1020F04BF21
S315080015402846DDE90A2103D0BBF1030F03D008E0E2
S31508001550FEF706FE05E00A9919B1FF222846FEF7AE
S3150800156086FE0DB00120BDE8F08F0000EC7500087E
S31508001570304001404C000120204661696C656420BA
S315080015805772697465536563746F72206174206C51
S315080015906F636174696F6E2025782C2073697A658C
S315080015A0202578200D0A00000C00012020496E76BF
S315080015B0616C6964206164647265737320257820A0
S315080015C0616E642072616E67652025782052616DB0
S315080015D02053746172742025782C2052616D206521
S315080015E06E642025780D0A0010B582B004460021E5
S315080015F06846FFF7F1FB04480168A14301606846A5
S31508001600FFF7EFFB02B010BD90000120034A02600D
S315080016100348801A001D08607047000000C00120BA
S31508001620F8FF012070470020704703F0EFB8014625
S3150800163011F8012B002AFBD1081A401E704700003A
S3150800164070B51346ADF5007D04460A464FF40071A1
S31508001650684600F0C1F8054604F47F40B0F5407FBF
S315080016600FD006DCB0F5807F18BFB0F5007F1FD11C
S3150800167007E06E46B0F5A06F11D0B0F5C06F17D170
S3150800168005E02A466946204600F015FD10E00A489E
S31508001690016869B1002070553046884708E0002483
S315080016A0002D05DD305D01F047FD641CA542F9DC1F
S315080016B00DF5007D284670BD48000120704770472B
S315080016C0002070470020704703F0C2B82DE9F041AA
S315080016D005000E46174601D0042E01DBFEF7F6FC80
S315080016E005EB8604206908B1A06A08B1FEF7EEFC8E
S315080016F020690268511C082908BF00210123D0F877
S3150800170008C0BCF1000F18BF4FF000080BD1D0F885
S3150800171004C08C4508BF8360016002EB021100EB30
S31508001720810000F10C08206903FA06F18068386028
S315080017306879FFF77AFF4046BDE8F08170B5040086
S315080017400D46164601D0042D01DBFEF7BFFC04EB5F
S315080017508504206900281ABFA06A0028FEF7B6FC8F
S31508001760A6B100202169D1E90032934202BF8B68F5
S31508001770002B70BD531C082B08BF0023C1E901309C
S3150800178002EB021001EB80000C3070BD2069D0E935
S3150800179000218A4207BF8268002A01EB011100EB8B
S315080017A0810008BF0020EFD170BD10B594461A46D7
S315080017B0002819BFBCF1000F0029012010BD541CD8
S315080017C000238C4282BF0370012010BD83546146FA
S315080017D0FEF79EFD002010BDFEF77CBC10B500F09C
S315080017E0A9FD012010BD000000B5244883B000798A
S315080017F004281CBF22A005F049FE05F03DF804F0B8
S315080018002DFD002001900090694601A800F030FCEB
S31508001810DDE9001001F028FB00F05EF900F0FAFAA5
S3150800182000F042FD00F042FB0020FFF703FB04F046
S315080018300BFF01F0D1FC04F037FFFFF740FF05F07E
S315080018401DFBFFF73BFF05F01AFB00F030F800F030
S3150800185029F800F029FB00F065FF00F0D4F900F044
S3150800186015FB00F003FC00F0ADFE00F061FC00F093
S315080018701BF803B05DF804EB01F05FBCC87C0008F8
S31508001880436F6E66696775726174696F6E207665F7
S315080018907273696F6E20213D2076657273696F6E6B
S315080018A00A000000002070474FF04A4070470120A8
S315080018B0704702F0B5BC30B4C0680024002804BFE5
S315080018C030BC7047438803EB000C0378012B18BF24
S315080018D0022B06D0032B09D0FF2B10D030BC0020DA
S315080018E070478B4204BF30BC70471AE0032918D1F1
S315080018F055884378EDB2AB4213D130BC70470379B3
S315080019001578AB420DD143795578AB4209D1C388D6
S315080019105588AB4205D103899588AB4204BF30BCD4
S315080019207047002C08BF6046CCD030BC704702F028
S31508001930A1BC02F01DBD10B40A22A0FB023401FBB3
S3150800194002414FF0000C00FB0C1110BC1846704702
S3150800195000B583B04FF0000CCDF800C0CDF804C038
S3150800196000F002F803B000BD2DE9F05F0546ADF5BD
S31508001970825D0DF580500026D0E91AA8D0181446C5
S3150800198005EB010B02903046202206A90A54401C9A
S31508001990B0F5805FFADB5D4570D27ED2B8F1000FF4
S315080019A005D028466D1C04AA0121C04703E015F896
S315080019B0010B8DF81000002000900298844272D224
S315080019C00099012088409DF8101008420AD0AB45BE
S315080019D063D9B8F1000F53D028466D1C03AA01211C
S315080019E0C04751E05D4558D2B8F1000F05D06F1CCD
S315080019F001AA01212846C04704E015F8010B8DF815
S31508001A0004002F465F4548D2B8F1000F05D07D1C6B
S31508001A1005AA01213846C04703E038788DF8140036
S31508001A207D1C9DF8140000F00F01CF1C9DF80410D2
S31508001A304FEA101001EB0020C0F30B0000F110096B
S31508001A403ED0C9F30B0006A9C6F30B02085C8DF855
S31508001A500400885402998C421FD2BAF1000F08BFBD
S31508001A6004F8010B04D02046641C01AA0121D047C2
S31508001A70761C09F101097F1EE3D121E029E00CE07B
S31508001A8015F8010B8DF80C00C6F30B0206A99DF894
S31508001A900C00885402998C4206D34FF0FF300DF59E
S31508001AA0825DBDE8F09F11E0BAF1000F08BF04F8A7
S31508001AB0010B04D02046641C03AA0121D047761CDA
S31508001AC00098401C00900828FFF677AF5D45FFF4A4
S31508001AD064AF0120E3E70000014802F06BBB000099
S31508001AE0681F012010B50120FFF718FB0220FFF739
S31508001AF015FB4FF6FD7081070882FFF7ADF9084A16
S31508001B00D2E90032C01A71EB020028BF04F070FB5C
S31508001B100220FFF7EFFABDE810400120FFF7EABA06
S31508001B2058000120F0B583B005460C46164600213C
S31508001B306846FFF751F90027002C18BF00240FD07C
S31508001B4005EB8401086940B1896A31B907604760C5
S31508001B5087602146284600F025F8641C042CEFDB34
S31508001B60002E18BF00200DD005EB80021169002950
S31508001B701CBF926A002A02D00F604F608F60401C1B
S31508001B800428F1DB6846FFF72CF903B0F0BD02F034
S31508001B905EBC0000002814BF002001487047000002
S31508001BA06402012070B582B004000D4605D004EB2E
S31508001BB08500016909B1806A10B102B0002070BDC4
S31508001BC04FF0A04600216846FFF706F906EB4510D8
S31508001BD000F53061D0F8002B12F0004F0BD16219D6
S31508001BE092F8242042F40022C0F8102BD0F8000BFB
S31508001BF040F0044008606846FFF7F3F802B0012099
S31508001C0070BD01207047704710B504460120FFF7E4
S31508001C1085FA0220FFF782FA104850F82430ABB153
S31508001C200F4924F003004058A107090FC8400D4981
S31508001C3000F00F0051F824200B4901EB80210969B7
S31508001C4044EA0010E14001F0010198470220FFF73D
S31508001C5051FABDE810400120FFF74CBA48010120AF
S31508001C6008380140880101200000024000B583B011
S31508001C709DED040ADDED050A8DED000ACDED010A9C
S31508001C8003F09AF803B000BD70B5044690F8470013
S31508001C90B4F86450A84238BF05462A46216E206C1F
S31508001CA0FEF75EFA84F84450206E00212844206628
S31508001CB0B4F86400401BA4F8640094F84700A842EE
S31508001CC018BFA4F866100BD1B4F86600401B0004D0
S31508001CD0000CA4F866001EBFAFF25300E06570BDA5
S31508001CE0E16570BD30B50C46154600220221FFF7A6
S31508001CF0E2FD002808BF30BD00F10D02418801440D
S31508001D00206878B1904288BF81422ED92B689342C9
S31508001D1028BF994229D94278052A04BF0278072A9A
S31508001D2023D10BE0002022602860206888421CD25C
S31508001D304378042B0BD0052B0ED010E05A78042AD2
S31508001D4001BF1A78092AC01D20600ED1EEE7027875
S31508001D50092A08BF286002E00078072807D020680B
S31508001D600278104420608842E2D3002030BD01206A
S31508001D7030BD02F0A7BB704710B44FF0FF3C019C82
S31508001D800628C4F800C0C3F800C0C2F800C0C1F8ED
S31508001D9000C024BF10BC7047DFF828C003281CF811
S31508001DA000C0C1F800C00849095C116024BF10BC16
S31508001DB070470649095C19600549085C206010BC33
S31508001DC0704700007A760008807600087476000866
S31508001DD07776000800F47F4310B54FF0000CC0B2C8
S31508001DE0B3F5807F06D0B3F5007F07D0B3F5407F03
S31508001DF00DD108E0401EFFF7B3F902E0401E02F0DD
S31508001E0071F9844603E0401EFFF70DFC84466046E0
S31508001E1010BD0000034900200860486002490860B8
S31508001E2001207047C8210120900001200149096856
S31508001E30084070479000012010B50446007994F8D0
S31508001E404610884208BF10BD052804D10122114654
S31508001E502046FFF767FE94F846002071072811D23E
S31508001E60DFE800F004080808080908000020A4F8BC
S31508001E706400E06510BD20460022BDE8104001213F
S31508001E80FFF750BEBDE81040FEF720B901207047A5
S31508001E900448016840F2FF121143016000211F2027
S31508001EA001F0D2BA3038024004F02EBF0120704744
S31508001EB00048704740420F0000281CBF01207047A9
S31508001EC02DE9F04F8046634885B0016841F08001EE
S31508001ED00160614C4FF0A04500216846FEF77CFF83
S31508001EE05E49022008608020A8605D48E8604FF4DB
S31508001EF01020A863081F016841F003010160A86B60
S31508001F0040F40010A8634FF0010A04F1A800C4F8D1
S31508001F10B4A06065042084F8580000225146204683
S31508001F20FFF7C9FC002814BFC07A082084F84700C8
S31508001F3094F8581001204FF000090129C8BF402124
S31508001F400BDD04EB8002C2F828902218401C82F8A8
S31508001F50241094F858208242F3DC00263746CDF840
S31508001F60089003AA02A92046CDF80C90FFF7BAFEFE
S31508001F70002818BFDFF8ECB065D0029894F858200E
S31508001F80807800F07F018A425DDD039A9278032A01
S31508001F9059D810F0800F1CBF04EB8100C0F828A0A8
S31508001FA002988088082818BF102803D0202818BF50
S31508001FB0402848D1621882F824008B2078430BEB1E
S31508001FC0800004EB8102C0F80090C0F80490C0F8C5
S31508001FD00890106102987F1CC07800F00300012861
S31508001FE02AD049008840064303AA02A92046FFF7DB
S31508001FF079FE0028C1D136B3A4F8B0604FF47A70E0
S31508002000FEF733FF0021404600F0C6F900221649C4
S31508002010432001F0BFFB002213492A2001F0BAFB36
S315080020204FF0FF3068614FF48050A861C5F83498C6
S31508002030A86840F00100A8606846FEF7D2FE05B021
S315080020400020BDE8F08F6846FEF7CBFE05B00120FC
S31508002050BDE8F08F343802406402012004080050BD
S31508002060400C00401C0301205D3E0008012070471B
S31508002070034A02600348801A001D08607047000082
S3150800208050410120F84F012000F47F41C0B2B1F55C
S31508002090807F0AD0B1F5007F0AD0B1F5407F1CBF1A
S315080020A000207047401EFFF70BBB401EFFF763B8C2
S315080020B0401E02F07AB82DE9F0470F46164600F49E
S315080020C07F494FF000086424C5B22BE0B9F5807F3C
S315080020D006D0B9F5007F09D0B9F5407F14D10BE0D9
S315080020E0681E32463946FFF748F80AE0681E324647
S315080020F0394602F05CF804E0681E32463946FFF7B6
S31508002100E1FA002811DB09D10020FEF783FE60B151
S3150800211000210122202000F02BFC03E03224361A8D
S31508002120074480440EB1641ED0D24046BDE8F0870D
S315080021304FF04A4070470120704700004B1E0029A7
S31508002140C8BF08490CDD10F801CB8CEA126C51F8AF
S315080021502CC08CEA0222B3F1000CA3F10103F2DCD5
S3150800216010467047A0760008002808BF704770B56B
S3150800217050F8041C1B4DA0F11404A94205D01AA05E
S31508002180A268FEF7EFFFFEF795FFA268201F115819
S31508002190A94204D024A0FEF7E5FFFEF78BFF3249DB
S315080021A0E160206858B1C2688A4208D1A26883688B
S315080021B01A44A26000682060002818BF446060685E
S315080021C0002808BF70BDC2688A4218BF70BD816802
S315080021D0A2681144816021680160002918BF48601F
S315080021E070BD00000DF0B1BA53696D706C65486535
S315080021F061705F52656C656173653A204D656D6FF8
S31508002200727920626C6F636B206865616420636F06
S315080022107272757074696F6E3A2025303878202589
S315080022203038780D0A00000053696D706C65486592
S3150800223061705F52656C656173653A204D656D6FB7
S31508002240727920626C6F636B207461696C20636FAE
S315080022507272757074696F6E3A2025303878202549
S315080022603038780D0A000000EFBEADDE02F01ABE67
S31508002270502828BF704710B504468C4603F00F0057
S315080022801146012808BF032102D0002818BF0221E1
S315080022906246204601F048F800232046BDE8104073
S315080022A01A46194601F0D0BA10B51420002100F0DC
S315080022B04DFA0020164A014622F81010401C05283F
S315080022C0FADB1448016000221349062001F062FA7D
S315080022D000221249072001F05DFA00221049082061
S315080022E001F058FA00220F49092001F053FA00229A
S315080022F00D490A2001F04EFA00220C49172001F078
S3150800230049FA00220A49282001F044FA012010BDA2
S315080023103C010120003C0140A5320008B532000806
S31508002320C5320008D5320008E5320008F532000843
S315080023307534000812494FF0FF300860486088601D
S31508002340C1F80001C1F80401C1F808010E480D4999
S315080023508160C160016141618161C162016381631C
S31508002360BFF35F8F0A4AC16308491160A2F10401ED
S3150800237008600848016841F4E021016070470000E0
S3150800238080E100E0A5100008004001200007FA05DA
S315080023900CED00E024ED00E02DE9F0412D4C82B073
S315080023A00D46B4F8B000002804BF02B0BDE8F081BD
S315080023B000216846FEF710FD274FD4F8B400002622
S315080023C04FF0010835B300283DD1C4F8B480386809
S315080023D040F00200386094F858000125012813DD02
S315080023E004EB8500016900291CBF806A002806D015
S315080023F0012229462046FFF7A1F90028F8D194F8CA
S3150800240058006D1CA842EBDC84F846602046FFF7AE
S3150800241013FD18E0B8B1A22500222B4611460B2061
S31508002420C4F8B460FFF724FF00222B4611460C209F
S31508002430FFF71EFF386820F00200386084F84680EF
S315080024402046FFF7F9FC6846FEF7CBFC02B00120F0
S31508002450BDE8F081640201200408005070B582B01E
S31508002460041E0D461CBF94F85800A842DEBF002083
S3150800247002B070BD4FF0A04600216846FEF7ACFCDE
S3150800248004EB8500016900291CBF806A002812D068
S31508002490606D30F8150010F0010F12D001222946A0
S315080024A02046FFF74BF90028F8D16846FEF799FC55
S315080024B002B0012070BD6846FEF793FC02B000200A
S315080024C070BD6846FEF791FC18B12146304601F00A
S315080024D03EFB2A462146304601F0C2FAE5E70000EF
S315080024E0214830B44FF0FF310A0CC0E900121F48EA
S315080024F0016841F0030101601D484FF0010CC0F866
S3150800250008C0042340040380202181800021018122
S3150800251002228281018381835322028541634A1EF6
S31508002520C262A0F814C0134A1380131D1980124CF6
S3150800253017232380231D1980104B19801B1D4FF666
S31508002540FF7119600E49A1F800C0118841F0010118
S315080025501180018841F001010180002230BC09493F
S315080025601C2001F017B9000058000120403802402D
S31508002570002004E00004004008040040280400404D
S3150800258014040040E51A000870B582B004460D46EA
S3150800259000216846FEF720FC09484FF08046C0E94E
S315080025A000457463FEF758FC001B71EB050024BF59
S315080025B00220B0826846FEF714FC02B070BD000027
S315080025C0580001204FF07740704700001A4910B5AF
S315080025D01B300A6820F00301002A18BF174825D0C7
S315080025E0D36883421FD193688B421CD301F128001C
S315080025F083420DD910461A18521A0368C2E90030E8
S315080026000260002B18BF5A60916083685B1A83606A
S3150800261062B10B48D0600B4810619168131FC8500F
S3150800262002F1140010BD1268002AD9D106A0FEF7DF
S3150800263099FD002010BD00008C000120EFBEADDE24
S315080026405EBEADDE0DF0B1BA202020204D656D6F5F
S3150800265072793A204F55544F464D454D4F525921A0
S31508002660212025640D0A000090F84410002904BFB3
S3150800267002207047016C4A780A2A13D2DFE802F072
S3150800268005071209120B12120D0F00F00DB800F013
S3150800269057BD00F04FBA00F027BA01F047B901223A
S315080026A001F060B901F034BC81B00022ADF8002019
S315080026B04A88002A04BFCA88022A24D190F84630DC
S315080026C0032B20D00A7812F00F0208BF00F1500140
S315080026D01CD0012A02D0022A05D014E0052B08BF17
S315080026E0694610D112E0042B01D18A885AB98A8822
S315080026F002F07F028A8090F858108A423CBF416DEA
S3150800270001EB420102D3012001B0704701660221A4
S31508002710A0F864100249C165002001B070470000A6
S31508002720891C000801207047502824BF00207047E4
S315080027300109054A02EB8121096900F00F0021FA17
S3150800274000F000F001007047000002400022134626
S3150800275010B5121A73EB01020BDA42F21072821AE2
S3150800276071F1000105DA00F04EFD03490860012009
S3150800277010BD002010BD000000000120502828BF11
S315080027807047020900F00F00054B03EB8222012374
S3150800279003FA00F080B2002914BF108350837047F3
S315080027A0000002400628B2BF032A002070472DE920
S315080027B0F04387B00446894690461F46002102A882
S315080027C00F9EFEF709FB54485449052C50F824502F
S315080027D0534804BF0A6842F020020ED0002C04BFFA
S315080027E00A6842F0100208D04E4801684FF4803259
S315080027F0A240114301604C4800E00A6000EB690002
S31508002800B0FBF9F028810C20092F08BF41F20C0013
S31508002810B8F1000F06D040F48060B8F1010F08BF88
S3150800282040F40070A881012F08BF002738032882CA
S31508002830002016F0040F18BF4FF4007016F0020FB0
S3150800284018BF40F48070A88204A8009001AB06AABD
S3150800285005A92046FFF790FA7220032CA8BF82200C
S31508002860C7B23B46002202210598FFF701FD3B4609
S31508002870012200210698FFF7FBFC16F0040F02D090
S315080028800198401C1CD000223B4611460198FFF7D0
S31508002890EFFC16F0020F02D00498401C10D03B46FD
S315080028A0012200210498FFF7E3FC0021204600F0EE
S315080028B0B1FA062C24D2DFE804F00A0E12161A1E04
S315080028C002A8FEF78EFA07B00020BDE8F0830022C2
S315080028D01649252012E00022154926200EE000227E
S315080028E0144927200AE000221349342006E0002272
S315080028F01249352002E000221149472000F04AFF1C
S31508002900A88940F40050A88102A8FEF76AFA07B021
S315080029100120BDE8F08300008876000844380240AC
S3150800292000BD01054038024080DE8002A934000857
S31508002930D5340008013500082D350008593500083A
S315080029408535000810B504462A2001F07BF8432097
S3150800295001F078F801212046FFF71EFD03480168BB
S3150800296021F080010160002010BD000034380240CB
S315080029702DE9F043814685B00F46104600F043FC2A
S3150800298004460D46002102A8FEF726FAFEF764FA69
S3150800299004194D4101263846FFF748FA38B18046F2
S315080029A002A8FEF71EFA05B04046BDE8F083FEF71A
S315080029B053FA001B71EB050006D302A8FEF711FABD
S315080029C005B00020BDE8F0831EB10220FEF79CFB8F
S315080029D060B10020CDE9007001264A462046294606
S315080029E003F046FC02A8FEF70DFAD4E702A8FEF7A4
S315080029F003FA03F04BFF064602A8FEF701FACAE7F8
S31508002A0030B50C4683B0054600210120CDE900010A
S31508002A100A4608234FF4E1310020FFF727F924B1CD
S31508002A20214612A000F0D4F802E015A000F0D0F874
S31508002A3016A0E96B00F0CCF818A0A96B00F0C8F84E
S31508002A401AA0696B00F0C4F805F140011BA000F05C
S31508002A50BFF80024214655F824201CA000F0B8F839
S31508002A60641C0C2CF6DD03B030BD00004558434508
S31508002A705054494F4E203078253032783A0D0A00A6
S31508002A804552524F523A0D0A00000000202063704A
S31508002A9073723D3078253038780D0A00202070632F
S31508002AA020203D3078253038780D0A0020206C72B9
S31508002AB020203D3078253038780D0A0020207370A4
S31508002AC020203D3078253038780D0A0020207225E0
S31508002AD0303264203D3078253038780D0A00000001
S31508002AE0FEF729BF0120704710B5044648887F289D
S31508002AF09CBF8A88002A04BFC988002903D194F894
S31508002B004610052901D3012010BD10F0FF0084F8F6
S31508002B1045000CBF0320042084F846002046FFF732
S31508002B208BF90020A4F864000148E065032010BD75
S31508002B30891C000810B50446C888002832D194F8C4
S31508002B404620032A2ED0087810F00F0005D0012859
S31508002B5008BF10BD022825D114E04888012821D1D4
S31508002B600A4602212046FEF7A6FED8B1C07A10F022
S31508002B70200F05D0B4F8500040F00200A4F8500029
S31508002B8006201CE0042A01D1888858B9888800F0F4
S31508002B907F00888000281CBF94F85820824201D9FB
S31508002BA04A880AB1012010BD626D32F8103043F030
S31508002BB0010322F81030888884F85900042000217F
S31508002BC0A4F864100149E16510BD0000891C0008DD
S31508002BD00FB4FF2110B5C0B043AB6846429AFEF762
S31508002BE0FBFD04460020FEF7C6FA22466946002089
S31508002BF0FEF7C3FA0020FEF7BEFA40B010BC5DF837
S31508002C0014FB00002DE9F04188B044F620600290DC
S31508002C1003A906A8FEF7FAFC0399069800F024F91A
S31508002C20544C5548616802F0C9FC02A9534804F09F
S31508002C30D3FA002818BF012028B902A800F0D2FB51
S31508002C40002800F06F8001F0AFFA002500950223F6
S31508002C5004224BA140F201500195FEF790FA4FA0CD
S31508002C60009051A3534A54A140F20150FEF787FA47
S31508002C70606800F0D9FA00221146104600F098FC68
S31508002C80E068FFF701FA0023022204213CA0009520
S31508002C90FEF768FA41A344A246494EA0FEF762FA37
S31508002CA0524953A0FEF75EFAE068FFF7EDF90120F6
S31508002CB0049004A80090082301220021534803F039
S31508002CC07DFAFEF7C9F8DFF8488106460F468521E2
S31508002CD02020029AFFF74CFE040018BFFEF784FC7A
S31508002CE014F0800F04D0002202A9012000F060FC35
S31508002CF014F0050F1CBF204802F04DFE1E48D0F800
S31508002D00040810F0020F1BD020F00200C8F80000DB
S31508002D10002202A9022000F04BFCFEF79DF80646A9
S31508002D200F46D4E7144802F0DDFF002804BF4FF031
S31508002D30FF30029087D001F0D7F908B0BDE8F081DE
S31508002D400298411CC3D000F05EFA04460D46FEF711
S31508002D5083F8801B61EB0701201A75EB0100B6D2D8
S31508002D6000221146072000F023FC034802F0BAFFB0
S31508002D70ADE700000C000120E81501201024012011
S31508002D8054696E79426F6F746572207625642E25B4
S31508002D90642E25642E25640D0A00000031303A346D
S31508002DA0303A3035000000004D6179203239203242
S31508002DB0303132002C7500082573204275696C6421
S31508002DC020446174653A0D0A0925732025730D0A96
S31508002DD0000000002573204275696C642044617404
S31508002DE0653A2025732025730D0A0000A7440600BE
S31508002DF041524D20436F6D70696C6572207665721D
S31508002E0073696F6E2025640D0A000000F81D012005
S31508002E10EC1D012000B5034641B1002101F038F947
S31508002E20002118465DF804EB01F04CB9012101F0C8
S31508002E3049F9012118465DF804EB01F029B90000AB
S31508002E4070B50022064D074C20211046FFF776F98B
S31508002E50024621462846BDE87040FFF76FB90000D4
S31508002E600000012000000000074A10608160116818
S31508002E70002008601168486011680448C860116835
S31508002E8003480861704700008C000120EFBEADDEE4
S31508002E900DF0B1BA2DE9F00F00268BB00146374682
S31508002EA0304632463346E84608F80230521C1F2A96
S31508002EB0FADB0022FF230DF1200B0BF80230521C1F
S31508002EC00A2AFADB00280FBF4FF001090BB0BDE84C
S31508002ED0F00F70474B880A7803EB010A022A39D0AB
S31508002EE003DA82B1012A06D115E0032A00F0CC8064
S31508002EF0FF2A00F0D580172051460028EAD00BB0EB
S31508002F00BDE8F00F70473E420FBF01200BB0BDE889
S31508002F10F00F7047F0E7002E18BF0220ECD1162BF1
S31508002F2006BF0A79122A0320E6D14A79012A18BF70
S31508002F300420E1D1CA7A082A18BF102A04D0202A08
S31508002F401CBF402A0520D7D1497D012914BF062078
S31508002F500126D1E7002F18BF0720CDD10A79092A03
S31508002F6072D1CA88121D93426ED14A79022A18BFB5
S31508002F700920C1D10A7A002A08BF0A20BCD04B7A98
S31508002F80012B88BF0B20B7D8CB7A03F08F03802B91
S31508002F9018BF0C20B0D10D31521ED5B24A78042A7A
S31508002FA001D00E20A8E70A78092A01D00D20A3E748
S31508002FB0CA780AB10F209FE70B79002B18BF0022A9
S31508002FC010D01BF802C0BCF1FF0F07D00A2A07DA97
S31508002FD08C78A44518BF521CF3D11A200A2A03DBA1
S31508002FE01B2089E7102087E791F802C009310BF802
S31508002FF002C04A78052A05D091F800C061444A788B
S31508003000052AF9D15A1ED2B22BB92EE04B78052BD8
S3150800301001D0122070E70B78072B01D011206BE73F
S315080030208B7803F07F03A3F1010CBCF11F0F01D3CA
S31508003030182061E791F803C01CF0030F02D01CF0BA
S31508003040C00F02D0132057E71CE0434413F801CC05
S31508003050BCF1000F01D019204EE703F8019CC91DE9
S315080030601300A2F10102D2B2D0D100287FF444AFF6
S315080030702A00A5F10103DDB290D1514508BF012709
S315080030803FF43AAF082037E70A79121D934218BF72
S3150800309014207FF431AF4979032918BF15202BE78F
S315080030A0097911F0800F08BF162025E710B582B000
S315080030B0044600216846FDF78FFE1C49002051F89A
S315080030C024108881062C11D2DFE804F003050709CD
S315080030D00B0D252008E0262006E0272004E03420F2
S315080030E002E0352000E0472000F0ACFC0121204634
S315080030F0FFF790FE0E48052C12D0002C04BF01687D
S3150800310021F0100105D00B4801684FF48032A24027
S31508003110914301606846FDF764FE02B0012010BDC8
S31508003120016821F020010160F4E7000088760008B4
S31508003130443802404038024070474FF04A407047D2
S3150800314010B50446C888002804BF94F84600052828
S3150800315029D1087810F00F0005D0012808BF10BD46
S31508003160022820D114E0488801281CD10A460221E9
S315080031702046FEF7A0FBB0B1C07A10F0200F12D09F
S31508003180B4F8500020F00200A4F85000062017E01A
S31508003190888810F07F00888005D094F858208242ED
S315080031A001D94A880AB1012010BD626D32F8103083
S315080031B023F0010322F81030888884F85900042087
S315080031C00021A4F864100149E16510BD891C0008B6
S315080031D000207047002070470023024A024903482E
S315080031E003F012BBD4000120A0000120901F01208B
S315080031F000B583B0DDF810C0CDE9003C002300F02F
S3150800320009F903B000BD4FF47A71A0FB01017047BC
S31508003210044951F82000008810F0800018BF0120EA
S31508003220704700008876000830B500F47F4183B007
S31508003230C4B2B1F5807F06D0B1F5007F10D0B1F5E4
S31508003240407F14D125E000210120CDE90001144872
S31508003250082300220169601EFEF708FD03B030BD91
S31508003260C0F3421000210546FEF72EFA10B103B04E
S31508003270002030BD2846FEF75AFB002804BF03B0DD
S3150800328030BD601E03B00222BDE830400121FEF7C2
S3150800329050BB03B0601EBDE83040FEF74CBF0000CF
S315080032A00C0001200249012008600020FEF7ACBC92
S315080032B0143C01400249022008600120FEF7A4BC24
S315080032C0143C01400249042008600220FEF79CBC19
S315080032D0143C01400249082008600320FEF794BC0C
S315080032E0143C01400249102008600420FEF78CBCFB
S315080032F0143C014070B50A49086800F47870086003
S315080033000849096805250840440914F0010F1CBF3F
S315080033102846FEF779FC6D1C6408F6D170BD0000DE
S31508003320143C0140003C01402DE9FF4F1E460309AD
S31508003330DFF8A8C000F00F000CEB8324012303FA82
S3150800334000F743004FF0030C0CFA03F583B04FF077
S31508003350000C022A08BF4FF0010C03D0012A08BF4F
S315080033604FF0020C0CFA03F299400491310A01FA63
S3150800337003F84107C90E4FEAD0090292C6F30310B3
S315080033800F2200FA01FB02FA01FA00216846FDF74E
S3150800339023FD20680499A84308432060E068029A40
S315080033A0A8431043E060A068A84340EA0800A0606C
S315080033B004EB8900016A21EA0A0141EA0B0101626C
S315080033C0606816F0010F14BF3843B843606068465A
S315080033D0FDF707FD07B0BDE8F08F000000000240CA
S315080033E001F090BD38B5054600240220009023461A
S315080033F0224621461E20FFF7FBFE1E20FFF794F902
S3150800340010B9601E01242860204638BD0020704788
S3150800341003F0B0BC2DE9F0411646DDE90642054643
S315080034201F46502805D200231946FFF77DFF032CB7
S3150800343002D90020BDE8F08123463A46314628469F
S31508003440BDE8F04100F000BA502828BF704710B513
S315080034500446FFF793F900231A4601212046FFF791
S3150800346063FF00232046BDE810401A46194600F0BF
S31508003470EBB9704770B50A49086800F47C400860E3
S31508003480084909680A250840840A14F0010F1CBF78
S315080034902846FEF7B9FB6D1C6408F6D170BD00001E
S315080034A0143C0140003C014070B5094D2C8814F0CD
S315080034B0200F03D02946002000F085FA14F0800F6B
S315080034C008BF70BD2946BDE87040002000F094BAD8
S315080034D00010014070B5094D2C8814F0200F03D058
S315080034E02946012000F06FFA14F0800F08BF70BD5E
S315080034F02946BDE87040012000F07EBA004400402D
S3150800350070B5094D2C8814F0200F03D029460220E7
S3150800351000F059FA14F0800F08BF70BD2946BDE8BF
S315080035207040022000F068BA0048004070B5094DA6
S315080035302C8814F0200F03D02946032000F043FA04
S3150800354014F0800F08BF70BD2946BDE870400320FF
S3150800355000F052BA004C004070B5094D2C8814F0A2
S31508003560200F03D02946042000F02DFA14F0800F0E
S3150800357008BF70BD2946BDE87040042000F03CBA7B
S315080035800050004070B5094D2C8814F0200F03D068
S315080035902946052000F017FA14F0800F08BF70BD01
S315080035A02946BDE87040052000F026BA00140140FF
S315080035B070B50C461546092828BF70BDDFE800F02F
S315080035C0051D101E262E381D4E0001211F20FFF74F
S315080035D03BFFBDE8704028A140F20150FDF7CFBD82
S315080035E0002C08BF70BD2068411C00291CBF44F68A
S315080035F020618142CCBF216070BD70BD2246BDE806
S31508003600704020A140F20150FDF7B9BD2246BDE841
S3150800361070401FA140F20150FDF7B1BD1FA140F255
S315080036200150FDF7ACFDBDE870401CA0FDF79ABD42
S3150800363034B11EA140F20150FDF7A1FD1BA005E023
S315080036401FA140F20150FDF79AFD1DA0FDF78AFD66
S315080036502048C068BDE87040FEF716BD002C08BFBC
S3150800366070BD22461CA140F20150FDF788FD44F0CA
S315080036700100286070BD000057616974696E670DA6
S315080036800000000057723A203078253038780D004F
S3150800369045723A203078253038780D0043686B201B
S315080036A07369676E6174757265200D005369676E7C
S315080036B0617475726520504153530D0A0D0A000056
S315080036C05369676E6174757265204641494C0D0AE7
S315080036D00D0A00000C0001205374617274696E674C
S315080036E0206170706C69636174696F6E2061742003
S315080036F03078253038780D0A000000000020704721
S3150800370010B500F47F410446C0B2B1F5807F0CD0F5
S31508003710B1F5007F0ED0B1F5407F1CBF002010BD6B
S31508003720401EBDE81040FFF7DDB9BDE81040401E59
S31508003730FEF79CBD401EFEF72AFAC4F34210BDE808
S315080037401040FEF716BB000010B5044684B008A06A
S31508003750FDF76DFF002206A1CDE900211346029070
S3150800376002220421204602F0DFFC04B0012010BD2D
S31508003770436F70797269676874204F6265726F6EFD
S31508003780206D6963726F73797374656D732C204944
S315080037906E632E000A4A02EB8002BFF35F8F116444
S315080037A000F01F020121914042094FF0E02000EB92
S315080037B08200C0F88012C0F800110120704700008E
S315080037C0004001202DE9F04104460E46D4E90210D6
S315080037D082B089680025E84601AF88473B464246DD
S315080037E0314603F009FEB8B1D4E902108968884762
S315080037F081690098102200EB800002EB80000958CE
S31508003800019800EB400051F82000C0B210280ABF0A
S3150800381003A00125FDF7A6FC284602B0BDE8F08105
S31508003820547279696E6720746F207772697465209F
S31508003830746F20626F6F747374726170207265673B
S31508003840696F6E0D0A0000002DE9F04F814600F001
S315080038500F05012000FA05F48A46A807000F0F2174
S3150800386001FA00F74FEA191101FA00F883B09346F6
S315080038701E4600216846FDF7AFFA2648C9F38101BE
S3150800388000EB8100224A2449BAF1000F2FD00368C1
S315080038903B4043450ED00B68234206D06846FDF7E9
S315080038A0A0FA03B00020BDE8F08F0368BB4343EAE3
S315080038B008030360194842F825A0022E40F825B0EF
S315080038C0174818BF032E02680CBF2243A2430260A2
S315080038D01448012E18BF032E02680CBF2243A243C8
S315080038E002601148046008682043086009E000681F
S315080038F03840404505D10868A0430860002042F8D2
S3150800390025006846FDF76DFA03B00120BDE8F08F83
S315080039104801012008380140003C01408801012087
S31508003920083C01400C3C0140143C01404A88002AEE
S3150800393001BF8A88002AC98801290FD190F8461044
S3150800394003290BD000F1480101660121A0F8641093
S31508003950A0F866100249C16500207047012070472B
S31508003960891C000870B5044688881546002804BFD7
S31508003970C888002806D194F84600032802D048884B
S31508003980012801D9012070BD10F0FF0084F8480015
S315080039900CBF0420052084F846002046FEF74CFAA2
S315080039A025B10020A4F864000148E065052070BD33
S315080039B0891C000803F0F0B90123036000200B609E
S315080039C0C2E90000704770B505460C460120FDF7B0
S315080039D0A5FB0220FDF7A2FBA088C1B22846FFF787
S315080039E0FFFC0120FDF7A4FB0220FDF783FBBDE8E1
S315080039F070400120FDF77EBB38B505460C46012010
S31508003A00FDF78CFB0220FDF789FB6946284600F086
S31508003A1012F9002819BF9DF80000A080A08920F09F
S31508003A20800008BFA0810220FDF782FB0220FDF777
S31508003A3061FB0120FDF75EFB38BD000000487047BA
S31508003A400CE0002000F01F01012202FA01F14009F2
S31508003A504FF0E02202EB8000C0F880110120704789
S31508003A602DE9F041164600EB46148046D4F80809BD
S31508003A700D4610F0010F1CBF0120C4F8080904F513
S31508003A801067D4F8000910F0004F18BFBDE8F081A0
S31508003A905EB305EB8600016900291CBF806A002811
S31508003AA02BD0012231462846FDF748FE01001CBFEF
S31508003AB0081D096821D000B341F40022C4F8102972
S31508003AC0D4F8002942F004423A6008EB063202F5BF
S31508003AD080520029D8BFBDE8F08150F8043B136036
S31508003AE0091F0029F9DCBDE8F081E96D29B12846EE
S31508003AF0884795F84410286CDDE7D4F8000940F0AB
S31508003B0000603860BDE8F081F8B5064615001C4629
S31508003B108C4615D06A4629466046FDF7D7FD01460C
S31508003B20001D0C6006EB053101F58051002CD8BF4D
S31508003B30F8BD0A68241F40F8042B002CF9DCF8BDF0
S31508003B400CF16800CCF8400081F84440EAE72DE91A
S31508003B50F041054688460120FDF7E0FA0220FDF708
S31508003B60DDFA6C6914F0100F14D0286A00F00F0201
S31508003B70C0F30A1300F4F010B0F5802F18BFB0F5A3
S31508003B80402F03D141462846FFF7BEFF6C6914F063
S31508003B90100FEAD114F4802F11D0D5F818084FF079
S31508003BA000070604360C0AD016F0010F04D03A4670
S31508003BB041462846FFF754FF7F1C7608F4D114F4D3
S31508003BC0002F10D0D5F818084FF00007060C0AD0B9
S31508003BD016F0010F04D03A464146284600F044F84C
S31508003BE07F1C7608F4D114F4805F06D04146284637
S31508003BF000F080F84FF48050686114F4006F06D026
S31508003C004146284600F078F94FF40060686114F0E0
S31508003C10004F06D04146284600F012F94FF0004002
S31508003C2068610220FDF766FABDE8F0410120FDF75C
S31508003C3061BA0020704701F0EBB941094FF0E02264
S31508003C4002EB8101D1F8001100F01F0021FA00F003
S31508003C5000F0010070470000024A52F820008180F7
S31508003C60704700008876000830B400EB4213D3F89A
S31508003C7008CB1CF0010F1CBF0124C3F8084B1CF02D
S31508003C80080F1CBF4FF0080CC3F808CBA2B101EB14
S31508003C90820C00EB4210DCF810C000F53060DCF84E
S31508003CA008C0BCF1000F1CBFD3F8001B41F000612F
S31508003CB013D0016030BC704791F8472042F40022C7
S31508003CC042F0C042C0F8102BD0F8003B43F0044342
S31508003CD0C0F8003B30BC00F0C9B8114491F8241074
S31508003CE041F40021C3F8101BD3F8001B41F004412E
S31508003CF0DFE700002DE9F0470C464FF0FF31416140
S31508003D00402141624FF04011816294F85820802387
S31508003D100021002AC4BF4FF0FF0C4FF0804515DD87
S31508003D2000EB810643F48002C6F8002100EB41123D
S31508003D304033C2F808C9C2F808CBC2F80059C2F81D
S31508003D40005B94F85820491C8A42E9DC4FF48661E6
S31508003D5001614FF40041C0F80019C0F8001B0026A5
S31508003D60C0F810694FF0C041C0F8101BB4F8B01085
S31508003D704FF001128B084FF001014FF0020C18BFEB
S31508003D80DFF89C802BD013F0030523D0671804EBCB
S31508003D90810997F8247048EA8545D9F828903D4363
S31508003DA0B9F1000F0AD045F0006500EB411745EA66
S31508003DB08155C7F8005942EA0C020BE047F400297E
S31508003DC000EB4117C7F8109B45F00445C7F8005BA0
S31508003DD042EA0C42491C9B084FEA4C0CD3D10125F8
S31508003DE0C0F810580921C0F81418C0F81C280D4945
S31508003DF0816100F50061D0F8000820F4FE600860D3
S31508003E00A91E0020FDF755FD0320E56484F8460049
S31508003E1084F845602046BDE8F047FEF70DB8000077
S31508003E200080001010180C80044951F82000008802
S31508003E3010F0400018BF012070470000887600087F
S31508003E4000F60402D0F8040820F00100106091F88A
S31508003E50B20081F846000846FDF7EEBF02494FF06A
S31508003E60A040FFF774BE00006402012070B5064644
S31508003E700D460846FEF7F8FB044604280ED2DFE88E
S31508003E8000F00D2E0B02D6F8001895F8452041EAE9
S31508003E900211C6F8001801E00020E865002229464C
S31508003EA03046FFF7DDFD052C18BF70BD012495F8D7
S31508003EB058000128D8BF70BD05EB840001690029A8
S31508003EC01CBF806A002804D0224629463046FFF7E0
S31508003ED0C7FD95F85800641CA042EDDC70BDD6F805
S31508003EE0001941F40011C6F80019D6F8001B41F470
S31508003EF00011C6F8001B70BD084691F8461080F8F8
S31508003F00B210062180F84610FDF796BF00207047CC
S31508003F102DE9F04704464888DFF83081060AC7B21B
S31508003F20C8880D46A4F866004FF00009E0B194F879
S31508003F304600032810D8E06C70B1012E18BFFCF7B4
S31508003F40C5F8C4F84C90B4F8660094F8471088424F
S31508003F5028BF0846A4F86600C4F86090A4F86490E0
S31508003F606878062807D055E0A4F864900020C4F8BD
S31508003F705C80BDE8F087012E04D0022E13D0032EF4
S31508003F8048D11EE02A4601212046FDF794FC002868
S31508003F903ED0011D2166B4F866100079814235D2FB
S31508003FA0A4F8641034E02A4602212046FDF783FC73
S31508003FB070B3011D2166B4F86610C0888142EFD33C
S31508003FC024E017B1052F14D109E021482066B4F87A
S31508003FD06600042828BF0420A4F8640018E01D49D8
S31508003FE0087830B12166B4F86610814238BF0846B1
S31508003FF0F2E72A4603212046FDF75DFC40B1011D84
S315080040002166B4F8661000798142C9D30146C7E72C
S31508004010206EB0B92A46FF212046FDF74CFC002841
S3150800402004BF0120BDE8F08700F10A012166408837
S31508004030B4F86610A0F10A02914228BF1146A4F806
S3150800404064100020C4F85C80BDE8F087891C00086D
S3150800405060000120A01501200C4910B551F8201068
S31508004060898A11F4007F0ED00B21012808BF002190
S3150800407002D0022808BF1D210846FEF755FB002876
S315080040801CBF002010BD012010BD00008876000866
S31508004090054A002952F82000818914BF41F0200101
S315080040A021F020018181704788760008044951F87B
S315080040B02000808910F0800018BF0120704700009A
S315080040C088760008054A002952F82000818914BF1D
S315080040D041F0800121F080018181704788760008CF
S315080040E07047FEE700F024BA024901480860FEE777
S315080040F00400FA050CED00E070B5284C254D264E57
S315080041002168302807D0402837D0306840F00400AE
S31508004110306030BF70BD002918BF8847286840F056
S3150800412004002860316840F205200843306030BF3B
S315080041301B48016841F480310160296821F00401B7
S315080041402960016811F4003FFBD0016841F08071D5
S315080041500160016811F0007FFBD012490A6842F03D
S3150800416002020A60016821F0010101606068002806
S3150800417008BF70BDBDE870400047002918BF8847D2
S31508004180286840F004002860306840F00600306077
S3150800419030BF70BD10ED00E0007000400400012043
S315080041A00038024008380240704700F047BA00F06D
S315080041B085BA00002DE9F041164E0446306830BB3A
S315080041C00125A5610021E561C4E9081104F1200271
S315080041D0111F081FFFF7F0FB0020C4E902000F4873
S315080041E00D49C922A1FB00C702FB0072C31701FBD8
S315080041F00321C4E900C10849C922A1FB00C7C317A6
S3150800420002FB007001FB0300C4E904C0356000200E
S31508004210BDE8F0819C00012000C0692A8C49020093
S3150800422030B583B005460C4600216846FCF7D4FD38
S315080042302846FDF7AFFC78B1856825EA0401002415
S3150800424081602046FDF7A6FC806858B16846FCF7F1
S31508004250C8FD03B0284630BD6846FCF7C2FD03B06A
S31508004260002030BD641C012CEBDB0420FDF7BCF9F3
S31508004270ECE70000F0B506462DED028B8BB0FDF796
S3150800428089FC0446002108A8FCF7A6FD002C55D099
S31508004290E06818B90021304600F0DAFA2FA020228B
S315080042A0694602F0E3FA314B002700281ABF0020BE
S315080042B0EC461F700FD003EB40021CF800109170FB
S315080042C0D77011B1401C2028F5DB022101EB400014
S315080042D0187003205870002202212046FDF7EBFAD9
S315080042E00546206850BB4DB394ED038A68212046E5
S315080042F0FBF7E7FF002084ED038AFF2204EB400169
S31508004300401C81F8382081F839200428F6DB6671CC
S31508004310012020602271E87A10F0400FB4F85000AE
S3150800432014BF40F0010020F00100A4F85000304608
S31508004330FDF7C2FD002818BF276007D008A8FCF7BC
S3150800434050FD0BB00020BDEC028BF0BD08A8FCF7B1
S3150800435048FD0BB00120BDEC028BF0BD5553425F02
S315080043604E414D455F434F4E46494700A015012033
S3150800437070B50C46C0F3421100F01F0682B0154610
S315080043800846FDF707FC00281CBF016800294AD02B
S31508004390042E48DAFF2D12D0691E032943D2FF2CBA
S315080043A002D0611E03293ED200EB460696F8381065
S315080043B0FF2904BF96F83910FF2934D102E0FF2CF3
S315080043C031D0EEE7FF2D03D000EB8501096951B323
S315080043D0FF2C03D000EB8401096921B3FF2D03D01C
S315080043E000EB8501896AF1B9FF2C03D000EB840143
S315080043F0896AC1B10021FF2D09D000EB410292F86C
S315080044003830AB421CBF92F83920AA420BD0FF2C99
S315080044100CD000EB410292F83830A3421CBF92F848
S315080044203920A24202D102B0002070BD491C0429DD
S31508004430E1DB00216846FCF7CFFC86F8385086F8A1
S3150800444039406846FCF7CDFC02B0012070BD30B596
S31508004450C0F3421100F01F0583B00846FDF79AFB2A
S3150800446004001CBF2068002801D0042D02DB03B01D
S31508004470002030BD00216846FCF7AEFC04EB450180
S31508004480002291F83800FF2806D004EB8000006966
S3150800449010B1026042608260FF2381F8383091F8DB
S315080044A03900FF2806D004EB8000006910B10260CD
S315080044B04260826081F839306846FCF792FC03B0A6
S315080044C0012030BD30B583B00546FDF763FB040017
S315080044D004BF03B030BD00216846FCF77DFC2068A8
S315080044E0002818BF002009D004EB400191F83820B5
S315080044F0FF2A04BF91F83910FF2905D06846FCF752
S3150800450070FC03B0002030BD401C0428ECDB002002
S3150800451020602846FEF716FA0448FCF7A6FC68460B
S31508004520FCF75FFC03B0012030BD0000A086010047
S315080045302DE9F74F8B4684B0C0F3421100F01F04F3
S3150800454008460091FDF726FB5FEA00091FD0042CF8
S315080045501DDA99F84600052819D109EB440090F8A8
S3150800456038A0BAF1FF0F12D009EB8A000190006952
S3150800457068B1002102A8FCF72FFC0024069EA0467D
S31508004580002E88BF09EB0A074AD924B115E007B0FF
S315080045900020BDE8F08F01980069D0E900218A4221
S315080045A002BF8268002A002405D001EB011100EB46
S315080045B0810000F10C04002C39D097F820002168FE
S315080045C00D1AAE4238BF3546211D01442A465846C3
S315080045D0FBF7C6FD97F82000761B2844C0B287F87B
S315080045E020002168AB44A844884216D1002287F8E7
S315080045F02020019814460069D0E900318B4204BF97
S315080046008368002B05D0491C082908BF0021C0E98A
S31508004610011251464846FDF7C5FA06988045B4D3B7
S3150800462002A8FCF7DEFB07B04046BDE8F08F012084
S3150800463000FA0AF10098FDF73CF9F1E770B5C0F306
S31508004640421100F01F050846FDF7A4FA040033D00E
S31508004650042D31DA94F8460005282BD104EB4500E1
S3150800466090F83950FF2D27D004EB8506306918B32A
S31508004670D0E90012914201D18068D8B12946204676
S31508004680FDF7ECFE0020FCF7C5FB58B1FFF736F83E
S3150800469040B10620FFF7D1FA00281CBF4FF4FA7084
S315080046A0FCF7FEFB3069D0E90012914204BF80682E
S315080046B00028E3D1012070BD002070BD2DE9F74F19
S315080046C08946C0F3421100F01F0484B0002508464D
S315080046D0FDF760FA070033D0042C31DA0698002873
S315080046E004BF07B0BDE8F08FB9F1000F28D097F8DE
S315080046F04600052824D107EB440090F839000290BB
S31508004700FF281DD007EB800003900069C0B1002187
S315080047106846FCF761FB02984FF0000A069E54466D
S3150800472007EB000B039800690268511C082908BFAB
S3150800473000218368002B18BF4FF0000811D104E050
S3150800474007B04FF0FF30BDE8F08F43688B4204BFD7
S3150800475001238360016002EB021100EB810000F186
S315080047600C08B8F1000F18D09BF82440B44228BFB3
S3150800477034462CB12246494608F10400FBF7F0FC02
S315080047809BF82400A04288BF4FF0010A361BA144BB
S315080047902544C8F80040002426E0641C642C09D986
S315080047A0069886422BD10398002100690160416072
S315080047B0816024E00120FCF7A7FC00BB6846FCF7F3
S315080047C014FB002804BF97F84600052817D1384679
S315080047D00299FDF743FE6846FCF70EFB3220FCF70C
S315080047E05FFB6846FCF70CFBBAF1000F9AD097F806
S315080047F04600052803D138460299FDF72FFE68467C
S31508004800FCF7EFFA07B02846BDE8F08F30B583B05D
S3150800481004460D4600216846FCF7DEFA2046FDF7F9
S31508004820B9F970B1846844EA05018160A1421CBFE8
S315080048300420FCF77DFC6846FCF7D3FA03B0204653
S3150800484030BD6846FCF7CDFA03B0002030BD000045
S315080048502DE9F0410D460024FDF79CF9060004BF3A
S315080048601C20BDE8F081306800281CBF1D20BDE86B
S31508004870F081002D08BF144D2846FEF70BFB0700F4
S3150800488018BFBDE8F081DFF84080F068404518BFE2
S3150800489002F023FE454508BFF56011D02978284661
S315080048A029B1418808440C4401780029F9D1241D0E
S315080048B0204602F014FE22462946F060FBF750FC1B
S315080048C03846BDE8F0810000787B000801600021C9
S315080048D041608160C160016141618161C1610162BC
S315080048E041628162C0E90B11C0E90D1170470000F1
S315080048F02DE9F04104460068069E0D46006890467C
S315080049001F46002808BF13A0016861604068A060C0
S31508004910002239463046FDF711FC2061286960619E
S315080049202068B0F850102183B0F85010491CA0F840
S315080049305010A88A608348F002006662C4E9070737
S3150800494000200246E0602021201DFDF7F7FBE0600D
S31508004950BDE8F0814D53706B7456310070B504464E
S31508004960C56800200246E0602021201DFDF7E6FB11
S31508004970A8420CBF01200020E56070BD10B50446B2
S31508004980D4E9081000B939B90022FDF7D7FB216927
S31508004990884204BF012010BD002010BD2DE9F0415A
S315080049A004460068069D0F46006890461E46002885
S315080049B008BF12A0016861604068A0600022314605
S315080049C02846FDF7BBFBC4E904072068B0F8501079
S315080049D02183B0F85010491CA0F8501000206083BD
S315080049E0C4F81C80E060C4E9086502462021201D41
S315080049F0FDF7A4FBE060BDE8F08100004D53706B45
S31508004A007456310030B50D4693B00446016802A8C5
S31508004A10FFF75CFF0020009044F2010045EA00021F
S31508004A200023194602A8FFF7B9FF02A9206801F07A
S31508004A30C0FB13B030BD0121816370472DE9F05FDB
S31508004A40071D0446B8464FF0020B4FF0060A4FF012
S31508004A500109A06B072880F0B780DFE800F09E0404
S31508004A600D415377A400204600F0BCF82020C4F876
S31508004A7038B0C4E90A80ECE7206804F12C02111F5B
S31508004A80D0F80CC04068036860469847002818BFED
S31508004A90E06A7DD0C0F12005002D1BDD082D34BF4E
S31508004AA02E46082632464AA1201DFBF72DFB88B163
S31508004AB0324649A1201DFBF727FB58B16A1E791C0F
S31508004AC03846FBF792FBA06A401EA062E06A401CCB
S31508004AD0E062DFE7082D28BF0320BAD3A063B8E752
S31508004AE0206804F12C02111FD0F80CC04068036836
S31508004AF060469847002850D0E06A002808BF04207E
S31508004B00A7D1EBE72046FFF729FFB0B12068214679
S31508004B10C368806802681846904770B1206AB0B3C7
S31508004B20606AB0B3FCF798F9C4E90C010520A063E4
S31508004B30606AA062206AE0628BE7E06910F0010F04
S31508004B402ED104212046FFF75DFF29E0FCF784F902
S31508004B50D4E90C2305460E46801A61EB0301FDF7DE
S31508004B60BFFF1F4A801A71F1000019D2C4E90C561A
S31508004B70206804F12C02111FD0F80CC040680368A5
S31508004B806046984720B1E06A00287FF462AF01E0EA
S31508004B9003E005E0C4F838A05BE70120BDE8F09F14
S31508004BA0C4F8389055E72046FFF7E8FE38B1206884
S31508004BB02146C3688068426818469047F0E708218E
S31508004BC02046FFF71FFFEBE70020BDE8F09F000037
S31508004BD04D536462675631004D53706B74563100FD
S31508004BE00087930310B50446406A002808BF10BD25
S31508004BF020682146C3688068826818469047002066
S31508004C00606210BD2DE9F04304465B4883B00D464B
S31508004C10D0F8100900287DD05848216908180AD00C
S31508004C20A0F58030B0F5FF5015D0534802F0CAFA07
S31508004C30042871D09CE0504802F0C4FA042869D1CF
S31508004C4001214D4802F012FB002863D101214A4890
S31508004C5002F0BAF969E0DFF82891D9F800000028CF
S31508004C60D8BFFBF733FADFF81C81D8F8000028B95B
S31508004C70FBF72CFAD8F80000002875D0D9F8000000
S31508004C80002871DDD8F800400025A07904280CD149
S31508004C90394802F097FA042812D0D9F80020364885
S31508004CA0D8F8001002F0BEFA0125D8F8000002F084
S31508004CB014FC0020C8F8000003B02846BDE8F083BD
S31508004CC004F5127200212C4802F061FA002814BF7C
S31508004CD00027012704F553720121274802F057FAE5
S31508004CE000280CBF012400240021234802F0BEFA44
S31508004CF0002814BF0126002601211F4802F0B6FA33
S31508004D00002818BF012037EA060108BF34EA000068
S31508004D10CBD1C2E72CE0FFE72946174802F0A6FAEE
S31508004D2030BB2946144802F04FF9002804BF03B0E7
S31508004D30BDE8F08304F11403D4E90212CDE90012A8
S31508004D400293D4E9002301460220FCF79FF9207656
S31508004D50012806D104F11400FCF79AF920760128F7
S31508004D60F8D010F0FF0F03D003B00020BDE8F083A1
S31508004D7003B00120BDE8F08310240120B0DFFFBF97
S31508004D80500001204C0001209DED000ADDED010ACE
S31508004D908360C0E9001280ED030AC0ED040A002111
S31508004DA04161F7210176704710B504461430FCF7C7
S31508004DB06BF9204610BD0000062824BF0020704766
S31508004DC02DE9F04104462DED028B84B00E461746B8
S31508004DD098469DED0C8A002102A80D9DFBF7FCFF65
S31508004DE004EB44002C4900EBC40001EBC000416908
S31508004DF011F4003F08D002A8FBF7F3FF012004B026
S31508004E00BDEC028BBDE8F0810021C0E90F144161B9
S31508004E10426942F0080242F40032426115F0080F76
S31508004E2003D0426942F48072426115F0100F03D034
S31508004E30426942F00402426115F0020F03D042694A
S31508004E4042F400624261C022426340220023836129
S31508004E508263C3614FF480730160104AC0E901138D
S31508004E6002EB0422C0E903120162C0E909130C4AE5
S31508004E70434602EB0422C0E90B128DED008A3A463E
S31508004E80314620460195FDF78DFC044602A8FBF73E
S31508004E90A8FF2046B3E70000B81F0120A00901209B
S31508004EA0A00F0120062824BF0020704710B582B045
S31508004EB0044600216846FBF78FFF04EB44001049BF
S31508004EC000EBC40001EBC000416911F4003F10D0AB
S31508004ED00021C0E90F14416921F4003141612046DF
S31508004EE0FEF7E4F804466846FBF77BFF02B0204667
S31508004EF010BD6846FBF775FF02B0012010BD000023
S31508004F00B81F0120062824BF0020704770B5054643
S31508004F100E4600EB4500354900EBC50001EBC00421
S31508004F2082B0606910F0040F03D0112E15D0132E2D
S31508004F3008D000216846FBF74FFFE26A216A002085
S31508004F40F2B90FE0FBF788FFA061E161606920F024
S31508004F500800606102B0012070BD606940F0080079
S31508004F60606130E04A1C2262A36A9A4214BF104666
S31508004F702062626A904204BF0120E062206B084406
S31508004F8020B3067004F1200002F0C2FA616B884271
S31508004F900FD3606910F4807F03D00121284600F002
S31508004FA0C1FA606910F4006F03D000212846FFF7A4
S31508004FB06FF86846FBF715FF0521284600F0D2FA78
S31508004FC00120FCF7B5F802B0012070BD0121284682
S31508004FD000F0C8FA06A002F075FA09A0FCF7C2F8B4
S31508004FE06846FBF7FEFE02B0002070BDB81F012020
S31508004FF00C427566666572204F56464C570D0A0078
S31508005000427566666572204F56464C570D0A000073
S31508005010062824BF0020704730B50D4600EB400136
S3150800502001EBC000244983B001EBC00400216846A7
S31508005030FBF7D2FE606910F0010F60690AD020F014
S3150800504001006061132028706846FBF7CAFE03B0AA
S31508005050012030BD10F0020F0BD0606920F002006D
S315080050606061112028706846FBF7BBFE03B001207B
S3150800507030BDD4E900200021904204BFE268002A2E
S3150800508008D0421C6260A3689A4208BF6160E1606A
S315080050902169014451B1087828700220FCF748F8C4
S315080050A06846FBF79EFE03B0012030BD6846FBF755
S315080050B098FE03B0002030BDB81F01202DE9F04747
S315080050C084B0814688461646062806D3FAF7FEFFB8
S315080050D004B04FF0FF30BDE8F087B8F1000F37D0C5
S315080050E009EB49004D4900EBC90001EBC0046069B2
S315080050F010F4803F2CD1606910F4003F28D00025B9
S31508005100AA46002E62D9002102A8FBF765FE721B8B
S315080051100092606A08BF574626D0216A884204BFB3
S31508005120E36A002B19D081429ABFA36A191A091A91
S315080051308A4298BF1146009101446162A26A91426F
S3150800514008BFC4F824A0C4F82CA0216B0F180BE0E4
S3150800515004B04FF0FF30BDE8F087CDF800A0C4F8E2
S3150800516024A05746C4F820A0002F47D0D4E9080148
S31508005170814247D9A26A0244521AA36B9A4218D8A6
S31508005180814245D9A26A1044401A009908449842B7
S315080051900FD9606910F4807F03D00121484600F0DA
S315080051A0A3F9606910F4006F03D001214846FEF7A1
S315080051B06FFF08EB05003946009AFAF7D1FF009809
S315080051C0054402A8FBF70DFEAE429CD800216846AE
S315080051D0FBF702FEC4F83CA0D4E90801884204BFE4
S315080051E0E06A002803D00521484600F0BBF9684666
S315080051F0FBF7F7FD04B02846BDE8F08702A8FBF7E1
S31508005200F0FDE3E7E26A002A14BFA26A421AB4E78D
S31508005210E26A002A14BFA06A401AB6E7B81F01203E
S3150800522070B584B00546062802D3FAF74FFF8AE020
S3150800523005EB4500504900EBC50001EBC004606969
S3150800524010F4803F7AD1606910F4003F76D0606927
S31508005250062610F0040F03D0606910F0080F72D00C
S315080052602846FEF7F9FE00286DD000216846FBF7B0
S31508005270B3FD6846FBF7B9FD90B92846FEF716FF59
S3150800528070B13046FEF7D9FC50B1D4E90001884226
S3150800529001D1E06898B3606910F4803F50D136E0D8
S315080052A0D4E90001884204BFE068002827D0606975
S315080052B010F4803F44D12846FEF7CEFEE8B32846D0
S315080052C0FDF7A6FF40B92846FEF7C6FEA8B328464E
S315080052D0FDF79EFF0028F6D002A92846FFF798FE9C
S315080052E09DF808102846FEF7B7FC6846FBF78AFDC6
S315080052F0D4E90001884204BFE0680028D7D168468F
S31508005300FBF76FFD606910F4803F1CD11EE028464C
S31508005310FEF7A2FE88B16846FBF76EFD4FF47A7079
S31508005320FBF7BEFD6846FBF76BFDD4E90001884232
S3150800533004BFE0680028AED1E1E701E018E002E02A
S315080053406846FBF74EFD04B0002070BD2846FDF701
S315080053505FFF20B92846FEF77FFE0028F6D12846CB
S31508005360FEF762FD20B92846FEF776FE0028F6D13C
S3150800537004B0012070BD0000B81F01202DE9F04FD0
S31508005380002585B081461746884606280FD227B3DA
S31508005390B8F1000F0BD009EB4900524900EBC900E0
S315080053A001EBC004606910F4803F07D015E0FAF7F6
S315080053B08DFE05B04FF0FF30BDE8F08F606910F440
S315080053C0003F0AD060694FF0010A10F0040F26D09A
S315080053D0606910F0080F05D021E005B04FF0FF30E6
S315080053E0BDE8F08FFCF764FDC0EB00101AEB8000F7
S315080053F018D0FCF75DFDC0EB001086004FF0000BDF
S31508005400FBF72AFDA269E369801A61EB0301301AEA
S315080054107BEB010006D2606940F008006061002657
S31508005420B3463FE005B00020BDE8F08F002102A892
S31508005430FBF7D2FC781B0090E2682168E2B9D8B184
S315080054406368994232BF5A1AD4F808C0ACEB010215
S31508005450904298BF02460092206810442060A268D5
S31508005460904208BFC4F800B02068984208BFC4F844
S315080054700CA02069084402E05846CDF800B038B1BF
S315080054804146009AFAF76CFE00980544804403E00A
S31508005490606910F4006F11D002A8FBF7A2FC761C15
S315080054A0022E01DABD42C1D300216846FBF794FCFF
S315080054B087B1606910F4803F08D00BE000214846A8
S315080054C000F050F802A8FBF78CFCEDE701214846EE
S315080054D0FEF7F8FD6846FBF784FC05B02846BDE8EC
S315080054E0F08F0000B81F012000EB40020C4B02EBC6
S315080054F0C00203EBC202536913F4803F18BF70471A
S31508005500536923EA41215161516911F4C06F18BFEB
