S315200000000CE000201D0000203100002031000020DF
S3152000001031000020310000203100002000F058BEC1
S31520000020DFF808D000F0B7FE00F048BFF8BF012087
S31520000030FEE76E2900F07882702900F0C9836629D0
S31520000040AFF300806529AFF300806729AFF3008006
S315200000506129AFF3008003681B0A28BF41F08001A5
S31520000060692900F02582642900F02282752900F092
S315200000701F826F2900F05483782900F09583E9299F
S3152000008000F0EC82E42900F0E982F52900F0E6820E
S31520000090EF2900F05183F82900F094830368DB09E7
S315200000A028BF41F08001632900F07E85732900F086
S315200000B08385E32900F08E85F32900F093850020BF
S315200000C07047000040BA7047C0BA704700BEFEE7CE
S315200000D0704770477CB515461A460C00009001D033
S315200000E02044401E074B7B4469460190284600F079
S315200000F036FA05461CB10020694600F043FA284628
S315200001007CBD0000A504000040EA010310B59B0752
S315200001100FD1042A0DD310C808C9121F9C42F8D04B
S3152000012020BA19BA884201D9012010BD4FF0FF30FC
S3152000013010BD1AB1D30703D0521C07E0002010BD12
S3152000014010F8013B11F8014B1B1B07D110F8013B9E
S3152000015011F8014B1B1B01D1921EF1D1184610BD7F
S31520000160032A40F2308010F0030C00F0158011F8BD
S31520000170013BBCF1020F624498BF11F801CB00F895
S31520000180013B38BF11F8013BA2F1040298BF00F8E9
S3152000019001CB38BF00F8013B11F0030300F0EA83DE
S315200001A0083AC0F0088051F8043B083A51F804CBCD
S315200001B0A0E80810F5E7121D5CBF51F8043B40F893
S315200001C0043BAFF30080D20724BF11F8013B11F89E
S315200001D001CB48BF11F8012B24BF00F8013B00F8E2
S315200001E001CB48BF00F8012B7047431A28BF9A421B
S315200001F07FF6B6AF032A1044114440F2268010F051
S31520000200030F1EBF11F8013D521E00F8013D10F0EC
S31520000210030F7FF4F6AF11F0030300F0F083083AE2
S31520000220C0F00B8051F8043D083A51F804CD40F84F
S31520000230043D40F804CDFFF7F3BF121D5CBF51F813
S31520000240043D40F8043DAFF30080D20724BF11F8E7
S31520000250013D11F801CD48BF11F8012C24BF00F84B
S31520000260013D00F801CD48BF00F8012C704702F08F
S31520000270FF0343EA032242EA024200F002B84FF0AB
S3152000028000020429C0F0128010F0030C00F01B803D
S31520000290CCF1040CBCF1020F18BF00F8012BA8BF4B
S315200002A020F8022BA1EB0C0100F00DB85FEAC17C0F
S315200002B024BF00F8012B00F8012B48BF00F8012BC2
S315200002C070474FF0000200B51346944696462039F3
S315200002D022BFA0E80C50A0E80C50B1F12001BFF4D9
S315200002E0F7AF090728BFA0E80C5048BF0CC05DF83F
S315200002F004EB890028BF40F8042B08BF704748BF8D
S3152000030020F8022B11F0804F18BF00F8012B704700
S3152000031010B5044610F0030F08BF11F0030F40F08C
S3152000032015804FF0013E121FC0F20E8051F8043B9B
S31520000330A3EB0E0C2CEA030C1CEACE1C08BF40F8DB
S31520000340043BF0D0A1F1040102F10402521E08DBA5
S3152000035011F8013B002B00F8013BF7D11146FFF7BE
S315200003608EFF204610BD00004FF0013C50F8042BB4
S3152000037051F8043B9A4221D1A2EB0C03934313EA92
S31520000380CC1317D150F8042B51F8043B9A4215D1BF
S31520000390A2EB0C03934313EACC130BD150F8042B96
S315200003A051F8043B9A4209D1A2EB0C03934313EA7A
S315200003B0CC13DBD04FF00000704700BFD01A01BA33
S315200003C0B1FA81F101F0180122FA01F0CB40C1F116
S315200003D02001DBB2C0B2C01A2CFA01F3D11A914324
S315200003E011EAC311E6D1704770B5044685690068E5
S315200003F0C10601D5302600E02026C00708D070BDF2
S31520000400D4E9012130469047206A00F1010020629C
S315200004106D1EF5D570BD70B5044685690068C007A8
S3152000042008D170BDD4E9012120209047206A00F12F
S31520000430010020626D1EF5D570BD09684A0501D5FB
S3152000044040B27047C905FCD500B2704709684A0515
S3152000045001D5C0B27047C905FCD580B2704770B5CA
S3152000046005460C46012A05D02868800600D5EA698B
S31520000470002302E0012305E05B1C934202D2E05CEC
S315200004800028F9D1A869E618C01AA861286A184474
S3152000049028622846FFF7A8FF04E0D5E9012114F8D1
S315200004A0010B9047B442F8D32846FFF7B4FF70BD3E
S315200004B02DE9F0410746002510687529394616A40E
S315200004C011D0FFF7BAFF002803DAC0F1000013A409
S315200004D007E039688A0701D511A402E0490704D547
S315200004E010A4012501E0FFF7B1FF00210A2307F13F
S315200004F0240607E0B0FBF3F203FB12003030705401
S315200005001046491C0028F5D12B4622463846BDE820
S31520000510F04100F0E3BA0000000000002D000000CA
S315200005202B0000002000000011680268006A5305B5
S3152000053001D508700BE0D30501D5088007E0130626
S3152000054003D5C217C1E9000201E052060860012066
S315200005507047000001694A1C02610878704700B59F
S315200005608FB0CDE901310021059105497944CDE9C6
S3152000057003101146684600F037F90FB000BD0000A1
S31520000580E5FFFFFF0A6802F8010B0A607047D1E910
S3152000059000239A4202D2531C0B6010707047000051
S315200005A02DE9FF5F04468A461546DFF8AC80F844FD
S315200005B00027D8E900103E46CDE9001011E03AF8B0
S315200005C016106A4602A800F011FB411C07D02168CC
S315200005D0890603D5E269391891420ED8074406F1F7
S315200005E001062068800602D5E069B84205DDAE42E4
S315200005F0E5DB3AF816000028E1D1A069C01BA0610E
S315200006002046FFF7F1FED8E90010CDE900100020C2
S3152000061016E03AF818106A4602A800F0E7FA814672
S31520000620401C0BD000250DF1080B05E0D4E9012173
S315200006301BF8050090476D1C4D45F7D308F10100C6
S31520000640B0428046E5DB206A384420622046FFF728
S31520000650E2FEBDE8FF9F0000967800002DE9F041FC
S315200006608046D21D22F007020026D2E90002F52993
S3152000067014A512D0002A06DA0023D0EB030063EB80
S31520000680020211A508E0D8F800108B0701D50FA5A6
S3152000069002E0490701D50EA501261146002408F1DE
S315200006A0240704E000F0D5F930323A55641C50EAAC
S315200006B00102F7D133462A4621464046BDE8F0419D
S315200006C000F00CBA000000002D0000002B000000F6
S315200006D02000000030B4002100F124040CE002F0D8
S315200006E0070505F130054FEAD20242EA4372655406
S315200006F001F101014FEAD30352EA0305EFD1046861
S31520000700002310A2250708D504F020040C4304D0AA
S31520000710C46901230CA2641EC46130BC00F0DEB99A
S3152000072010B5044621461068FFF790FE0246204683
S31520000730BDE810400023CDE7D21D22F00701D1E904
S315200007400023C7E70000000030000000F0B40F4689
S315200007500168090502D5234C7C4402E0214C7C44E7
S315200007600E34002100F124050BE002F00F064FEABB
S315200007701212A65D42EA03724FEA13136E5401F178
S31520000780010152EA0306F0D1224604680023240719
S3152000079004D5702F05D009B111320223F0BC00F028
S315200007A09DB910320123F9E770B504460D4621465E
S315200007B01068FFF74BFE024629462046BDE87040EA
S315200007C00023C3E7D21D22F00703D3E90023BDE7A8
S315200007D00368126843F0200303600823C3610023E3
S315200007E0B4E70000F47600002DE9F05F0446894660
S315200007F04FF0000ADFF878B1FB44C0F820A020466D
S31520000800E1688847002875D0252806D0D4E901213B
S315200008109047206A401C2062F1E700265F4620466A
S31520000820E16888472028054608DB312D06D207EBEC
S31520000830050010F8200C08B10643F0E7B00701D5F3
S3152000084026F00406C4F81CA00027C4F818A02A2DF8
S3152000085009D0284606F0F5FE38B304EB8708303D6C
S31520000860C8F8185019E059F8041B204604EB8702F3
S315200008709161E1688847012F054618D1E069002873
S3152000088020DA26F020061DE0D8F8180000EB8000BC
S3152000089005EB40003038C8F818002046E168884744
S315200008A0054606F0CEFE0028EED1012F0AD02E2DC9
S315200008B008D12046E16888477F1C0546022F46F06E
S315200008C02006C4DBA069002803DA404246F0010670
S315200008D0A061F00701D026F010066C2D0BD0682DF4
S315200008E009D04C2D39D06A2D35D0742D35D07A2D9E
S315200008F033D016E038E0E1682F4620468847B842D4
S31520000900054609D16C2F26D04FF48060E168064356
S3152000091020468847054604E06C2F1AD04FF4807095
S3152000092006430DB3A5F14100192802D8203546F417
S3152000093000664A462946204626604E46FFF779FB42
S3152000094080B101280BD0F61D26F0070000F108091A
S3152000095055E74020E4E78020D8E70020D6E706F1D7
S3152000096004094CE7284651E7206ABDE8F09F0000BD
S315200009707C76000010B5203AC0F00B80B1E8185004
S31520000980203AA0E81850B1E81850A0E81850BFF453
S31520000990F5AF5FEA027C24BFB1E81850A0E81850F2
S315200009A044BF18C918C0BDE810405FEA827C24BF46
S315200009B051F8043B40F8043B08BF7047D20728BFD4
S315200009C031F8023B48BF11F8012B28BF20F8023B23
S315200009D048BF00F8012B7047431A28BF9A427FF67A
S315200009E0C9AF104410F0030F11441EBF11F8013D8A
S315200009F0521E00F8013D10F0030F7FF4F6AF103AB7
S31520000A00C0F00A8010B531E91850103A20E9185084
S31520000A10BFF4F9AFBDE81040530724BF31E90810F1
S31520000A2020E9081044BF51F8043D40F8043D12F077
S31520000A30030F08BF7047D20728BF31F8023D48BFD1
S31520000A4011F8012C28BF20F8023D48BF00F8012CE0
S31520000A50704730B5B0F10A024FEA900E71F10003EB
S31520000A604EEA817EB0EB0E0061EB91014FEA101E3B
S31520000A704EEA017E10EB0E0041EB11114FEA102ECB
S31520000A804EEA016E10EB0E0041EB11214FEA104E9B
S31520000A904EEA014E10EB0E0041EB1141401841F198
S31520000AA000014FEAD00040EA41704FEAD10110EB35
S31520000AB080054FEA810444EA907444EB01046D19E1
S31520000AC044EB0404521BA3414FF0000348BF0A32F3
S31520000AD000D530BD401C41F1000130BD2DE9F04765
S31520000AE00D4604469246994600F124080168880678
S31520000AF004D5E06921F01001216000E00120A84220
S31520000B0002DDA0EB050700E00027A16907EB05023F
S31520000B1002EB0300A1EB0000A0612068C00602D40E
S31520000B202046FFF761FC002608E0D4E901211AF8E7
S31520000B3006009047206A401C761C20624E45F4DB56
S31520000B402068C0060AD52046FFF74EFC06E0D4E909
S31520000B50012130209047206A401C2062381EA7F1D0
S31520000B600107F4DC07E0D4E9012118F805009047D5
S31520000B70206A401C2062281EA5F10105F3DC2046D0
S31520000B80FFF749FC2068000602D50220BDE8F08761
S31520000B900120FBE710B5436913B1AFF3008001E0F4
S31520000BA0FFF75DFC012010BD126800F124010A70D8
S31520000BB000224A700122EDE711684FF0FF32E9E783
S31520000BC010B5436913B1AFF3008001E0FFF7E8FCED
S31520000BD0012010BD126800F1240182840022C28403
S31520000BE00122EDE711684FF0FF32E9E770B50546BF
S31520000BF00C46164600F01AF8036893F801010128FE
S31520000C0006D0FF2C0FD8185D68B101202C7070BD5E
S31520000C10D3F807013246214603442846BDE87040F2
S31520000C2003F2071318474FF0FF3070BD10B500F0E0
S31520000C3005F8001D10BD00BF716A0000004870470E
S31520000C40682B0120814208BF7047042A06D950F834
S31520000C50043B121F41F8043B042AF8D8002A08BF97
S31520000C60704710F8013B01F8013B521EF9D170473D
S31520000C700022042904D9091F40F8042B0429FAD894
S31520000C80002908BF704700F8012B491EFBD1704789
S31520000C9010B507480749084AFFF7D4FF074808490F
S31520000CA0084AFFF7CFFFBDE8104007480749DFE7AE
S31520000CB0A88800200000012000000000A88800204D
S31520000CC0000001203C0100003C010120C437000047
S31520000CD0FFF7A6B910B472B63348016841F4700123
S31520000CE00160324C012262603148016821F40271B0
S31520000CF001603048016841F4FE6101602E480168B8
S31520000D0041F001010160016811F0020FFBD0DFF80C
S31520000D10ACC00023CCF80030016821F0A06101604E
S31520000D20016841F480310160016811F4003FFBD075
S31520000D302168CCB22249112C0CBF40F2036440F248
S31520000D4003740C60204C1F492160016841F08071BA
S31520000D500160016811F0007FFBD049F20241CCF816
S31520000D600010DFF868C04FF48011CCF800100CF1A9
S31520000D7004010B60091D0B60154B4FF08051196063
S31520000D8089131B1D1960016821F0010101601148BA
S31520000D90026010BC704710B5FFF79CFF01F082F887
S31520000DA0BDE81040FFF774BF88ED00E0002004E0A6
S31520000DB014ED00E0FCED00E0003802400838024067
S31520000DC0003C0240083C40050438024030380240CE
S31520000DD04038024000380140EFF3108272B60260BC
S31520000DE07047016881F310887047EFF3058100682A
S31520000DF009B14FF001007047016881F310887047F0
S31520000E0072B670470168EFF3108281F3108882F37F
S31520000E1010887047EFF31080EFF3058180F0010012
S31520000E2009B14FF000007047EFF3108072B680F0E2
S31520000E3001007047EFF3108062B680F00100704722
S31520000E40EFF3108172B601607047016881F3108854
S31520000E507047000070477047144A13071168586A94
S31520000E60D2F800C08C45F9D1704730B583B004461E
S31520000E7000216846FFF7B0FFFFF7EEFF0546204644
S31520000E80FFF7E9FF032894BF0024C41EFFF7E4FF01
S31520000E90401BA042FAD96846FFF7A3FF03B030BD36
S31520000EA0C0EB0010C000401F00F020B92404004011
S31520000EB080684068704780688068704710B584B045
S31520000EC06FF0030032496844884228BF314A03D371
S31520000ED040F804298842FBD2304C2F4860603048C5
S31520000EE0A06000F0A1FB2F482F490844A1680844C0
S31520000EF0A06002F00DF8206000F072FC01F04CFBBF
S31520000F0000F074FC0020034600900222042127A052
S31520000F1000F028F92BA32EA2304931A000F022F9A7
S31520000F20364937A000F01EF901A902A800F070FB8F
S31520000F30DDE90110FFF7A3F938A006F0A5FB274944
S31520000F4037A006F0A1FB38A135A006F09DFB20A115
S31520000F5038A006F099FB1BA136A006F095FB0121CF
S31520000F604EF6602002F09EF90121022002F0A5FA39
S31520000F700121084602F094F901F0ACFE30A006F0FB
S31520000F8083FB38A006F064FB03F017F904B010BD0C
S31520000F90008001200DF0ADBA0000002034000120B1
S31520000FA0A8880000000000003C0100002E4E657459
S31520000FB04D46207625642E25642E25642E25640D27
S31520000FC00A00000031333A35343A34370000000045
S31520000FD04D6179203131203230313200F0760020D7
S31520000FE025732C204275696C6420446174653A0D22
S31520000FF00A0925732025730D0A000000A744060060
S3152000100041524D20436F6D70696C65722076657212
S3152000101073696F6E2025640D0A0000000C00000025
S31520001020252D3135730D0A004275696C64204461A3
S3152000103074653A002020252D3133730D0A000000F7
S315200010400C6D61696E2065786974656421213F3F66
S315200010503F2E202048616C74696E67204350550DE1
S315200010600A0000006D61696E2065786974656421E7
S31520001070213F3F3F2E202048616C74696E672043D4
S3152000108050550D0A000000000020704700207047D0
S315200010900020704710B501F01DFDBDE8104003F09B
S315200010A08CB8000004B02DE9FF0F6846EFF30581E8
S315200010B0FFF7F0BF81B000B52DE9FF5F6846EFF37B
S315200010C00381C163AFF3008010B582B004460021CE
S315200010D06846FFF781FE0021204601F0FBFC03F065
S315200010E06CF86846FFF77DFE02B010BD001FFDDCE0
S315200010F0F7460000034951F82020521E41F82020CF
S315200011007047000008020120034951F820000028FA
S31520001110CCBF01200020704708020120034951F866
S315200011202020521C41F82020704700000802012090
S3152000113010B582B0044600216846FFF74DFE074AE7
S31520001140116841EA04001060516800291CBF9068AC
S3152000115088476846FFF745FE02B010BD9000012083
S3152000116004F04AB80FB410B503A9029800F010F89D
S3152000117010BC5DF814FB04F0F1B804F09DB90FB46F
S3152000118010B504AA039900F05DFA10BC5DF814FBB3
S31520001190034603480A461946406900F053BA000040
S315200011A00C0001202DE9FF4F89B00546014603F0CA
S315200011B00F0B08AA01A805F0A7FB002800F09E81C6
S315200011C00198C26880688168104688470490019813
S315200011D003AC02AEC1688068D0F808C00846E04774
S315200011E033462246294606F0EAF9002868D00498B4
S315200011F0DDE90AA7816903984FF0010900EB800019
S3152000120001EB800001688068691AB1FBF0F200FBEF
S3152000121012100590002803DA00200590FEF756FFED
S31520001220049803994069884240F29C8104980423DB
S315200012308169039800EB800001EB80040298216904
S3152000124000EB400003EB80000A582168A06802FBEF
S315200012500012691AB1FBF0F605990792401A06901A
S31520001260002005906068B04217D90698504534BFD3
S315200012708046D046A06806900298226900EB40037B
S31520001280082101EB83015158B1422BD2401C029018
S31520001290E16881421AD8FEF719FFBAF1000F40F330
S315200012A06181B9F1000F00F05D8100200290039862
S315200012B00499401C039049698842B7D300F052B97B
S315200012C02946AA4806F0C4F900F02AB900EB4002E4
S315200012D00420216900EB8200A2680858216800FBDF
S315200012E002100790BBF1000F18BFBBF1010F08D009
S315200012F0BBF1020F4DD0BBF1030F00F0D08000F000
S31520001300EBB80498006810F0020F13D0BBF1000F61
S3152000131006D0424629463846FEF722FF00F0DCB8C2
S315200013200B9841460268284600F046FF0B99086054
S3152000133000F0D2B8BBF1000F05D1404606F0B1F956
S31520001340070000F0ED80019829464246D0F80C901F
S3152000135080683B46D0F80CC04846E0475FEA000963
S3152000136003D0BBF1000F07D0B6E0BBF1000F04BFDE
S31520001370384606F094F9AFE00B98414602683846A5
S3152000138000F01AFF01460B980160384606F087F9EF
S31520001390A2E02946019802F06DFA002804BF0DB09C
S315200013A0BDE8F08F2169029800EB400051F820102B
S315200013B06F4888430FD0A268206806FB02094D4576
S315200013C023D101984946D0F80CC08068036A60464C
S315200013D09847D0B912E0079885422CD16548006815
S315200013E0002818BF06F05BF900206249486040F6E5
S315200013F00C1006F056F95F4908603AE00198494614
S31520001400C3688068426A1846904701980021009177
S31520001410D0F80C90806842463B46D0F810C029464A
S315200014204846E0475FEA000956D14246294652A07F
S3152000143006F00EF950E04F490A984A68104440F6E3
S315200014400C12904215D906F02CF90090002804BF02
S315200014500DB0BDE8F08F4748426801680098FEF756
S315200014607FFE4448006806F01AF942490098086051
S3152000147006E040480068002804BF0DB0BDE8F08FA4
S315200014803C480A9A0168406808443946FEF768FED7
S31520001490384841680A980144364841601CE029468C
S315200014A0019802F0E7F9002804BF0DB0BDE8F08FDF
S315200014B02169029800EB400051F820102C488843FF
S315200014C00AD00198A2682168C368806806FB0211C9
S315200014D0426A184690478146AAEB080ABAF1000FDD
S315200014E040DDB9F1000F3DD0002F18BF47444544D9
S315200014F06068761CB0423FF6B8AED6E60A98291840
S315200015002948D0E9063018449D4228BFA84201D96F
S31520001510814209D90090294624A00A9A06F098F813
S315200015200DB00020BDE8F08FBBF1000F1AD0BBF143
S31520001530010F04BF2946DDE90A200AD0BBF1020FBC
S3152000154004BF2846DDE90A2103D0BBF1030F03D0EF
S3152000155008E0FEF705FE05E00A9919B1FF222846A4
S31520001560FEF785FE0DB00120BDE8F08FB077002094
S31520001570304001404C000120204661696C656420A2
S315200015805772697465536563746F72206174206C39
S315200015906F636174696F6E2025782C2073697A6574
S315200015A0202578200D0A00000C00012020496E76A7
S315200015B0616C696420616464726573732025782088
S315200015C0616E642072616E67652025782052616D98
S315200015D02053746172742025782C2052616D206509
S315200015E06E642025780D0A0010B582B004460021CD
S315200015F06846FFF7F1FB05490A6822EA04000860FD
S315200016006846FFF7EEFB02B010BD000090000120F7
S31520001610034A02600348801A001D086070470000D4
S3152000162000C00120F8FF012070470020704703F01A
S315200016308BB9014611F8012B002AFBD1081A401E4E
S315200016407047000070B51346ADF5007D04460A4686
S315200016504FF40071684600F0C1F804F47F41054656
S31520001660B1F5407F0FD006DCB1F5807F18BFB1F50C
S31520001670007F1FD107E06E46B1F5A06F11D0B1F5FE
S31520001680C06F17D105E002466946204600F051FD9D
S3152000169010E00A48016869B1002070553046884735
S315200016A008E00024002D05DD305D01F0ADFD641C51
S315200016B0A542F9DC0DF5007D284670BD48000120C5
S315200016C070477047002070470020704703F05EB9CE
S315200016D02DE9F04105000E46904601D0062E01DB8D
S315200016E0FEF7F4FC05EB8604206908B1606B08B1AF
S315200016F0FEF7ECFC2369186800F1010CBCF1080F19
S3152000170008BF4FF0000C01219A68002A18BF002755
S315200017100BD15A68624508BF996000EB001003EBB5
S31520001720800000F10C07C3F800C02069B140806832
S31520001730C8F800006879FFF77AFF3846BDE8F081DF
S3152000174070B504000D46164601D0062D01DBFEF7C6
S31520001750BDFC04EB8504206900281ABF606B0028B5
S31520001760FEF7B4FCA6B100202169D1E900329342EC
S3152000177002BF8B68002B70BD531C082B08BF0023AB
S31520001780C1E9013002EB021001EB80000C3070BD84
S315200017902069D0E900218A4207BF8268002A01EB2E
S315200017A0011100EB810008BF0020EFD170BD10B5FC
S315200017B094461A46002819BFBCF1000F00290120C3
S315200017C010BD541C00238C4282BF0370012010BD23
S315200017D083546146FEF79CFD002010BDFEF77ABCBF
S315200017E010B500F0E5FD012010BD000000B524482D
S315200017F083B0007904281CBF22A005F029FF05F03C
S3152000180009F904F0C9FD002001900090694601A85D
S3152000181000F06CFCDDE9001001F08EFB00F05EF9B3
S3152000182000F002FB00F07EFD00F052FB0020FFF7E7
S3152000183001FB04F0D1FF01F037FD04F0FDFFFFF7B7
S3152000184040FF05F0FDFBFFF73BFF05F0FAFB00F03C
S3152000185030F800F029F800F039FB00F0BFFF00F067
S31520001860DFF900F01DFB00F03FFC00F007FF00F061
S315200018709DFC00F01BF803B05DF804EB01F0C5BC3D
S315200018808C7E0020436F6E66696775726174696F1E
S315200018906E2076657273696F6E20213D20766572A3
S315200018A073696F6E0A000000002070474FF04A40AF
S315200018B070470120704702F01FBD30B4C068002475
S315200018C0002804BF30BC7047438803EB000C037824
S315200018D0012B18BF022B06D0032B09D0FF2B10D0CB
S315200018E030BC002070478B4204BF30BC70471AE0E2
S315200018F0032918D155884378EDB2AB4213D130BCB9
S31520001900704703791578AB420DD143795578AB42B0
S3152000191009D1C3885588AB4205D103899588AB4246
S3152000192004BF30BC7047002C08BF6046CCD030BC0A
S31520001930704702F005BD02F0A3BD10B40A22A0FB39
S31520001940023401FB02414FF0000C00FB0C1110BCCD
S315200019501846704700B583B04FF0000CCDF800C094
S31520001960CDF804C000F002F803B000BD2DE9F05F09
S315200019700546ADF5825D0DF580500026D0E91AA802
S31520001980D018144605EB010B02903046202206A9FA
S315200019900A54401CB0F5805FFADB5D4571D27FD2D8
S315200019A0B8F1000F05D028466D1C04AA0121C047B6
S315200019B003E015F8010B8DF8100000200090029826
S315200019C0844273D20098012101FA00F09DF810108C
S315200019D008420AD0AB4563D9B8F1000F53D0284648
S315200019E06D1C03AA0121C04751E05D4558D2B8F1CC
S315200019F0000F05D06F1C01AA01212846C04704E02C
S31520001A0015F8010B8DF804002F465F4548D2B8F132
S31520001A10000F05D07D1C05AA01213846C04703E0EA
S31520001A2038788DF814007D1C9DF8140000F00F0105
S31520001A30CF1C9DF804104FEA101001EB0020C0F3D4
S31520001A400B0000F110093ED0C9F30B0006A9C6F31E
S31520001A500B02085C8DF80400885402998C421FD230
S31520001A60BAF1000F08BF04F8010B04D02046641C0D
S31520001A7001AA0121D047761C09F101097F1EE3D175
S31520001A8021E029E00CE015F8010B8DF80C00C6F3D7
S31520001A900B0206A99DF80C00885402998C4206D3A5
S31520001AA04FF0FF300DF5825DBDE8F09F11E0BAF1F1
S31520001AB0000F08BF04F8010B04D02046641C03AABB
S31520001AC00121D047761C0098401C00900828FFF67C
S31520001AD076AF5D45FFF463AF0120E3E7014802F0EE
S31520001AE0D5BB0000302B012010B50120FFF716FBD7
S31520001AF00220FFF713FB4FF6FD7081070882FFF7E0
S31520001B00ABF9084AD2E90032C01A71EB020028BFAD
S31520001B1004F00CFC0220FFF7EDFABDE8104001208E
S31520001B20FFF7E8BA58000120F0B583B005460C4609
S31520001B30174600216846FFF74FF90026002C18BFEC
S31520001B4000240FD005EB8403196941B1586B30B9D5
S31520001B500E604E608E602146284600F029F8641CEF
S31520001B60062CEFDB002F18BF00210DD005EB8100DE
S31520001B700269002A1CBF406B002802D016605660FE
S31520001B809660491C0629F1DB6846FFF72AF903B05F
S31520001B90F0BD02F0E4BC0000022824BF00207047FC
S31520001BA035214843014901EB80007047640201203A
S31520001BB070B582B004000D4605D004EB850001699E
S31520001BC009B1406B10B102B0002070BD60790028C9
S31520001BD014BF114E4FF0A04600216846FFF7FCF8CF
S31520001BE006EB451000F53061D0F8002B12F0004FBF
S31520001BF00BD1621992F82E2042F40022C0F8102B45
S31520001C00D0F8000B40F0044008606846FFF7E9F87A
S31520001C1002B0012070BD0000000004400120704782
S31520001C207047000010B504460120FFF777FA02201E
S31520001C30FFF774FA104850F82430ABB10F4924F05E
S31520001C4003004058A107090FC8400D4900F00F00B6
S31520001C5051F824200B4901EB8021096944EA001040
S31520001C60E14001F0010198470220FFF743FABDE861
S31520001C7010400120FFF73EBA4801012008380140F4
S31520001C80880101200000024010B582B0DDE9044C35
S31520001C90CDE9004C03F020F902B010BD70B5044622
S31520001CA090F85F00B4F87C50A84238BF05462A4613
S31520001CB0A16FA06DFEF754FA84F85C50A06F002146
S31520001CC02844A067B4F87C00401BA4F87C0094F854
S31520001CD05F00A84218BFA4F87E100BD1B4F87E008E
S31520001CE0401B0004000CA4F87E001EBFAFF2530078
S31520001CF0606770BD616770BD30B50C461546002221
S31520001D000221FFF7DAFD002808BF30BD00F10D02E1
S31520001D1041880144206878B1904288BF81422ED9FB
S31520001D202B68934228BF994229D94278052A04BFB5
S31520001D300278072A23D10BE0002022602860206841
S31520001D4088421CD24378042B0BD0052B0ED010E0F2
S31520001D505A78042A01BF1A78092AC01D20600ED19C
S31520001D60EEE70278092A08BF286002E000780728F3
S31520001D7007D020680278104420608842E2D30020F1
S31520001D8030BD012030BD02F025BC704710B44FF0A5
S31520001D90FF3C019C0628C4F800C0C3F800C0C2F866
S31520001DA000C0C1F800C024BF10BC7047DFF828C0AF
S31520001DB003281CF800C0C1F800C00849095C11605E
S31520001DC024BF10BC70470649095C19600549085CA8
S31520001DD0206010BC704700003E7800204478002028
S31520001DE0387800203B78002000F47F4310B54FF070
S31520001DF0000CC0B2B3F5807F06D0B3F5007F07D0C4
S31520001E00B3F5407F0DD108E0401EFFF7A9F902E0A7
S31520001E10401E02F0D3F9844603E0401EFFF705FC7E
S31520001E208446604610BD00000349002008604860D3
S31520001E300249086001207047902D01209000012062
S31520001E4001490968084070479000012010B50446F2
S31520001E50007994F85E10884208BF10BD052804D189
S31520001E60012211462046FFF75FFE94F85E0020719E
S31520001E70072811D2DFE800F004080808080908003E
S31520001E800020A4F87C00606710BD20460022BDE833
S31520001E9010400121FFF748BEBDE81040FEF716B9F5
S31520001EA001207047084810B5016840F2FF1211431F
S31520001EB001600021372001F01EFB0021BDE8104003
S31520001EC01F2001F018BB00003038024005F000B892
S31520001ED0012070470048704740420F002DE9F04F1F
S31520001EE085B08046022822BF012005B0BDE8F08FCC
S31520001EF0B8F1000F14BF74487448016814BF41F04C
S31520001F00005141F0800101604FF03500704908FB17
S31520001F1000F001EB800414BF6E4D4FF0A0454FF04A
S31520001F2000016846FEF758FF0220C5F80408802005
S31520001F30A8606948E8604FF41020A863D5F8000827
S31520001F4040F00300C5F80008A86B40F40010A86311
S31520001F504FF0010A04F1C000C4F8D0A0E066B8F141
S31520001F60000F14BF0620042084F8700000220121EF
S31520001F702046FFF7A2FC002814BFC07A082084F868
S31520001F805F0094F8701001204FF000090129C8BFA6
S31520001F9040210BDD04EB8002C2F834902218401C4D
S31520001FA082F82E1094F870208242F3DC0026B8F1D5
S31520001FB0000F14BF03270027CDF8089003AA02A913
S31520001FC02046CDF80C90FFF797FE002818BFDFF8C3
S31520001FD00CB15CD0029894F87020807800F07F01D4
S31520001FE08A4254DD039A9278032A50D810F0800F43
S31520001FF01CBF04EB8100C0F834A002988088082812
S3152000200018BF102803D0202818BF40283FD16218B7
S3152000201082F82E008B2078430BEB800004EB8102A4
S31520002020C0F80090C0F80490C0F80890106102989B
S315200020307F1CC07800F00300012821D04900884089
S31520002040064303AA02A92046FFF756FE0028C1D15F
S31520002050EEB1A4F8CC604FF47A70FEF706FF0021AB
S31520002060404600F0D7F9B8F1000F4FF0000215D026
S315200020701B494D2001F0E6FB002219494C2014E0B3
S315200020806846FEF7AEFE05B00020BDE8F08F684634
S31520002090FEF7A7FE05B00120BDE8F08F11494320C9
S315200020A001F0D0FB00220F492A2001F0CBFB4FF094
S315200020B0FF3068614FF48050A861C5F83498A8684D
S315200020C040F00100A860DBE7303802403438024097
S315200020D06402012000000440400C00400C04012052
S315200020E0313F0020213F002001207047034A026033
S315200020F00348801A001D08607047000050410120E7
S31520002100F84F012000F47F41C0B2B1F5807F0AD09C
S31520002110B1F5007F0AD0B1F5407F1CBF0020704783
S31520002120401EFFF7CFBA401EFFF725B8401E02F02B
S31520002130A8B82DE9F0478846174600F47F444FF0AB
S3152000214000096425C6B22BE0B4F5807F06D0B4F52D
S31520002150007F09D0B4F5407F14D10BE0701E3A46BB
S315200021604146FFF70AF80AE0701E3A46414602F059
S315200021708AF804E0701E3A464146FFF7A5FA002881
S3152000218011DB09D10020FEF745FE60B100210122B6
S31520002190202000F057FC03E032253F1A804481447A
S315200021A00FB16D1ED0D24846BDE8F0874FF04A40A9
S315200021B070470120704700004B1E0029C8BF084900
S315200021C00CDD10F801CB8CEA126C51F82CC08CEA8D
S315200021D00222B3F1000CA3F10103F2DC1046704792
S315200021E064780020002808BF704770B550F8041C9A
S315200021F01B4DA0F11404A94205D01AA0A268FEF72F
S31520002200B1FFFEF757FFA268201F1158A94204D03C
S3152000221024A0FEF7A7FFFEF74DFF3249E1602068B4
S3152000222058B1C2688A4208D1A26883681A44A2605B
S3152000223000682060002818BF44606068002808BF36
S3152000224070BDC2688A4218BF70BD8168A2681144F9
S31520002250816021680160002918BF486070BD0000B8
S315200022600DF0B1BA53696D706C65486561705F5247
S31520002270656C656173653A204D656D6F7279206274
S315200022806C6F636B206865616420636F7272757012
S3152000229074696F6E3A202530387820253038780DCD
S315200022A00A00000053696D706C65486561705F5265
S315200022B0656C656173653A204D656D6F7279206234
S315200022C06C6F636B207461696C20636F72727570BA
S315200022D074696F6E3A202530387820253038780D8D
S315200022E00A000000EFBEADDE02F078BE10B504464F
S315200022F008461146502C28BF10BD03F00F02012AB4
S3152000230008BF032102D0002A18BF02210246204618
S3152000231001F072F800232046BDE810401A461946FF
S3152000232001F0D4BA10B51420002100F06BFA002079
S31520002330164A014622F81010401C0528FADB1448DC
S31520002340016000221349062001F07CFA002212497E
S31520002350072001F077FA00221049082001F072FACE
S3152000236000220F49092001F06DFA00220D490A20AA
S3152000237001F068FA00220C49172001F063FA0022C6
S315200023800A49282001F05EFA012010BD3C010120F7
S31520002390003C014075330020853300209533002012
S315200023A0A5330020B5330020C53300202535002075
S315200023B012494FF0FF30086048608860C1F800017C
S315200023C0C1F80401C1F808010E480D498160C160B9
S315200023D0016141618161C16201638163BFF35F8FE6
S315200023E00A4AC16308491160A2F10401086008483D
S315200023F0016841F4E02101607047000080E100E0BF
S31520002400A5100020004001200007FA050CED00E091
S3152000241024ED00E02DE9F04305468946352038496C
S31520002420684301EB800483B0B4F8CC00002804BFD5
S3152000243003B0BDE8F083002D0CBF4FF0A047314F0D
S3152000244000216846FEF7C8FC0026D4F8D0004FF0DD
S315200024500108B9F1000F28D0002849D1C4F8D0804E
S31520002460D7F8041841F00201C7F8041894F8700050
S315200024700125012813DD04EB8500016900291CBF15
S31520002480406B002806D0012229462046FFF758F93E
S315200024900028F8D194F870006D1CA842EBDC84F873
S315200024A05E602046FFF7D2FC22E008B3C4F8D06075
S315200024B0002D15BFC226A2261E200B2033464FF024
S315200024C000021146FFF712FF002D14BF1F200C201B
S315200024D0334600221146FFF709FFD7F8041821F0EA
S315200024E00201C7F8041884F85E802046FFF7AEFC88
S315200024F06846FEF776FC03B00120BDE8F0830000B5
S31520002500640201200000044070B582B0041E0D460E
S315200025101CBF94F87000A842DEBF002002B070BD38
S315200025206079002814BF1B4E4FF0A0460021684654
S31520002530FEF752FC04EB8500016900291CBF406BA5
S31520002540002812D0E06E30F8150010F0010F12D0DE
S31520002550012229462046FFF7F3F80028F8D16846DD
S31520002560FEF73FFC02B0012070BD6846FEF739FC3D
S3152000257002B0002070BD6846FEF737FC18B1214630
S31520002580304601F023FB2A462146304601F0AAFABE
S31520002590E5E7000000000440214830B44FF0FF3149
S315200025A00A0CC0E900121F48016841F003010160CE
S315200025B01D484FF0010CC0F808C0042340040380D6
S315200025C02021818000210181022282810183818351
S315200025D03B22028541634A1EC262A0F814C0134AF8
S315200025E01380131D1980124C17232380231D198055
S315200025F0104B19801B1D4FF6FF7119600E49A1F86B
S3152000260000C0118841F001011180018841F00101CB
S315200026100180002230BC09491C2001F013B90000BA
S315200026205800012040380240002004E00004004009
S31520002630080400402804004014040040E91A002041
S3152000264070B582B004460D4600216846FEF7C4FBED
S3152000265009484FF08046C0E900457463FEF7FCFB4D
S31520002660001B71EB050024BF0220B0826846FEF7EE
S31520002670B8FB02B070BD0000580001204FF0774033
S31520002680704700001A4910B51B300A6820F0030174
S31520002690002A18BF174825D0D36883421FD19368D4
S315200026A08B421CD301F1280083420DD910461A18FB
S315200026B0521A0368C2E900300260002B18BF5A6024
S315200026C0916083685B1A836062B10B48D0600B48C7
S315200026D010619168131FC85002F1140010BD1268D2
S315200026E0002AD9D106A0FEF73DFD002010BD00002E
S315200026F08C000120EFBEADDE5EBEADDE0DF0B1BAC0
S31520002700202020204D656D6F72793A204F55544F09
S31520002710464D454D4F525921212025640D0A000072
S3152000272090F85C10002904BF02207047816D4A781A
S315200027300A2A13D2DFE802F005071209120B121239
S315200027400D0F00F00DB800F063BD00F05BBA00F08D
S3152000275033BA01F02DB9012201F046B901F042BC8D
S3152000276081B00022ADF800204A88002A04BFCA881A
S31520002770022A24D190F85E30032B20D00A7812F05A
S315200027800F0208BF00F168011CD0012A02D0022ADC
S3152000279005D014E0052B08BF694610D112E0042BA2
S315200027A001D18A885AB98A8802F07F028A8090F8F5
S315200027B070108A423CBFC16E01EB420102D3012058
S315200027C001B0704781670221A0F87C100249416759
S315200027D0002001B0704700009D1C0020012070479A
S315200027E0502824BF002070470109054A02EB8121A9
S315200027F0096900F00F0021FA00F000F0010070478F
S31520002800000002400022134610B5121A73EB010293
S315200028100BDA42F21072821A71F1000105DA00F029
S315200028205AFD03490860012010BD002010BD00009C
S3152000283000000120502828BF7047020900F00F0031
S31520002840054B03EB8222012303FA00F080B2002914
S3152000285014BF108350837047000002400628B2BF81
S31520002860032A002070472DE9F04387B004468946A5
S3152000287090461F46002102A80F9EFEF7ADFA544847
S315200028805449052C50F82450534804BF0A6842F096
S3152000289020020ED0002C04BF0A6842F0100208D095
S315200028A04E4801684FF48032A240114301604C48E3
S315200028B000E00A6000EB6900B0FBF9F028810C20EB
S315200028C0092F08BF41F20C00B8F1000F06D040F4E2
S315200028D08060B8F1010F08BF40F40070A881012F75
S315200028E008BF002738032882002016F0040F18BFDF
S315200028F04FF4007016F0020F18BF40F48070A882C3
S3152000290004A8009001AB06AA05A92046FFF73EFAC7
S315200029107220032CA8BF8220C3B21F4600220221A8
S315200029200598FFF7E3FC3B46012200210698FFF7B6
S31520002930DDFC16F0040F02D00198401C1CD00022AA
S315200029403B4611460198FFF7D1FC16F0020F02D044
S315200029500498401C10D03B46012200210498FFF722
S31520002960C5FC0021204600F0BDFA062C24D2DFE863
S3152000297004F00A0E12161A1E02A8FEF732FA07B043
S315200029800020BDE8F08300221649252012E000220F
S31520002990154926200EE00022144927200AE00022AD
S315200029A01349342006E000221249352002E0002295
S315200029B01149472000F046FFA88940F40050A8811D
S315200029C002A8FEF70EFA07B00120BDE8F08300004A
S315200029D04C78002044380240008793034038024058
S315200029E080C3C9015935002085350020B135002026
S315200029F0DD350020093600203536002010B50400CC
S31520002A0004D04C2001F060F84D2003E02A2001F08C
S31520002A105BF8432001F058F801212046FFF7FAFC25
S31520002A20002C14BF05480648016814BF21F0005148
S31520002A3021F080010160002010BD000030380240E6
S31520002A40343802402DE9F041804684B00F461046C6
S31520002A5000F041FC04460D46002102A8FEF7BCF911
S31520002A60FEF7FAF904194D4101263846FFF7E8F931
S31520002A7038B1044602A8FEF7B4F904B02046BDE8F2
S31520002A80F081FEF7E9F9001B71EB050006D302A8D9
S31520002A90FEF7A7F904B00020BDE8F0811EB10220A0
S31520002AA0FEF732FB60B10020CDE9007001264246D8
S31520002AB02046294603F07AFC02A8FEF7A3F9D4E7BC
S31520002AC002A8FEF799F903F0AFFF064602A8FEF723
S31520002AD097F9CAE730B583B0054600220120CDE933
S31520002AE000020C4608234FF4E1311046FFF7CCF8DC
S31520002AF024B1214611A000F0D3F802E014A000F082
S31520002B00CFF816A0E96B00F0CBF818A0A96B00F05F
S31520002B10C7F81AA0696B00F0C3F805F140011BA0A5
S31520002B2000F0BEF80024214655F824201BA000F012
S31520002B30B7F8641C0C2CF6DD03B030BD4558434570
S31520002B405054494F4E203078253032783A0D0A00BD
S31520002B504552524F523A0D0A000000002020637061
S31520002B6073723D3078253038780D0A002020706346
S31520002B7020203D3078253038780D0A0020206C72D0
S31520002B8020203D3078253038780D0A0020207370BB
S31520002B9020203D3078253038780D0A0020207225F7
S31520002BA0303264203D3078253038780D0A00000018
S31520002BB0FEF7C3BE0120704710B5044648887F281B
S31520002BC09CBF8A88002A04BFC988002903D194F8AB
S31520002BD05E10052901D3012010BD10F0FF0084F8F6
S31520002BE05D000CBF0320042084F85E002046FFF71A
S31520002BF02DF90020A4F87C0001486067032010BD51
S31520002C009D1C002010B50446C888002832D194F8AF
S31520002C105E20032A2ED0087810F00F0005D0012858
S31520002C2008BF10BD022825D114E04888012821D1EB
S31520002C300A4602212046FEF740FED8B1C07A10F09F
S31520002C40200F05D0B4F8680040F00200A4F8680010
S31520002C5006201CE0042A01D1888858B9888800F00B
S31520002C607F00888000281CBF94F87020824201D9FA
S31520002C704A880AB1012010BDE26E32F8103043F0C6
S31520002C80010322F81030888884F87100042000217E
S31520002C90A4F87C100149616710BD00009D1C00202E
S31520002CA00FB4FF2110B5C0B043AB6846429AFEF779
S31520002CB095FD04460020FEF75EFA2246694600206E
S31520002CC0FEF75BFA0020FEF756FA40B010BC5DF81E
S31520002CD014FB00002DE9F04188B044F620600290F4
S31520002CE003A906A8FEF794FC0399069800F024F998
S31520002CF0544C5548616802F0FFFC02A9534804F081
S31520002D004DFB002818BF012028B902A800F0D0FBEF
S31520002D10002800F06F8001F0B3FA00250095022309
S31520002D2004224BA140F201500195FEF728FA4FA04C
S31520002D30009051A3534A54A140F20150FEF71FFAC6
S31520002D40606800F0D9FA00221146104600F088FC8F
S31520002D50E068FFF7D7F90023022204213CA0009562
S31520002D60FEF700FA41A344A246494EA0FEF7FAF91F
S31520002D70524953A0FEF7F6F9E068FFF7C3F90120A0
S31520002D80049004A80090082301220021534803F050
S31520002D90B3FAFEF761F8DFF8488106460F4685212B
S31520002DA02020029AFFF74EFE040018BFFEF71CFCF7
S31520002DB014F0800F04D0002202A9012000F050FC5C
S31520002DC014F0050F1CBF204802F083FE1E48D0F8E1
S31520002DD0040810F0020F1BD020F00200C8F80000F3
S31520002DE0002202A9022000F03BFCFEF735F8064639
S31520002DF00F46D4E7144803F013F8002804BF4FF019
S31520002E00FF30029087D001F0DBF908B0BDE8F081F1
S31520002E100298411CC3D000F05EFA04460D46FEF728
S31520002E201BF8821B61EB0700A11A75EB0000B6D2D6
S31520002E3000221146072000F013FC034802F0F0FFA1
S31520002E40ADE700000C000120B0210120D82F012081
S31520002E5054696E79426F6F746572207625642E25CB
S31520002E60642E25642E25640D0A00000031333A3481
S31520002E70353A3331000000004D617920313120325E
S31520002E8030313200F07600202573204275696C645B
S31520002E9020446174653A0D0A0925732025730D0AAD
S31520002EA0000000002573204275696C64204461741B
S31520002EB0653A2025732025730D0A0000A7440600D5
S31520002EC041524D20436F6D70696C65722076657234
S31520002ED073696F6E2025640D0A000000C029012049
S31520002EE0B429012000B5034641B1002101F03CF987
S31520002EF0002118465DF804EB01F050B9012101F0DC
S31520002F004DF9012118465DF804EB01F02DB90000BA
S31520002F1070B50022064D074C20211046FFF74CF9CC
S31520002F20024621462846BDE87040FFF745B9000015
S31520002F300000012000000000074A1060816011682F
S31520002F40002008601168486011680448C86011684C
S31520002F5003480861704700008C000120EFBEADDEFB
S31520002F600DF0B1BA2DE9F00F00268BB00146374699
S31520002F70304632463346E84608F80230521C1F2AAD
S31520002F80FADB0022FF230DF1200B0BF80230521C36
S31520002F900A2AFADB00280FBF4FF001090BB0BDE863
S31520002FA0F00F70474B880A7803EB010A022A39D0C2
S31520002FB003DA82B1012A06D115E0032A00F0CC807B
S31520002FC0FF2A00F0D580172051460028EAD00BB002
S31520002FD0BDE8F00F70473E420FBF01200BB0BDE8A1
S31520002FE0F00F7047F0E7002E18BF0220ECD1162B09
S31520002FF006BF0A79122A0320E6D14A79012A18BF88
S315200030000420E1D1CA7A082A18BF102A04D0202A1F
S315200030101CBF402A0520D7D1497D012914BF06208F
S315200030200126D1E7002F18BF0720CDD10A79092A1A
S3152000303072D1CA88121D93426ED14A79022A18BFCC
S315200030400920C1D10A7A002A08BF0A20BCD04B7AAF
S31520003050012B88BF0B20B7D8CB7A03F08F03802BA8
S3152000306018BF0C20B0D10D31521ED5B24A78042A91
S3152000307001D00E20A8E70A78092A01D00D20A3E75F
S31520003080CA780AB10F209FE70B79002B18BF0022C0
S3152000309010D01BF802C0BCF1FF0F07D00A2A07DAAE
S315200030A08C78A44518BF521CF3D11A200A2A03DBB8
S315200030B01B2089E7102087E791F802C009310BF819
S315200030C002C04A78052A05D091F800C061444A78A2
S315200030D0052AF9D15A1ED2B22BB92EE04B78052BF0
S315200030E001D0122070E70B78072B01D011206BE757
S315200030F08B7803F07F03A3F1010CBCF11F0F01D3E2
S31520003100182061E791F803C01CF0030F02D01CF0D1
S31520003110C00F02D0132057E71CE0434413F801CC1C
S31520003120BCF1000F01D019204EE703F8019CC91D00
S315200031301300A2F10102D2B2D0D100287FF444AF0D
S315200031402A00A5F10103DDB290D1514508BF012720
S315200031503FF43AAF082037E70A79121D934218BF89
S3152000316014207FF431AF4979032918BF15202BE7A6
S31520003170097911F0800F08BF162025E710B582B017
S31520003180044600216846FDF727FE1C49002051F819
S3152000319024108881062C11D2DFE804F003050709E4
S315200031A00B0D252008E0262006E0272004E0342009
S315200031B002E0352000E0472000F086FC0121204671
S315200031C0FFF790FE0E48052C12D0002C04BF016894
S315200031D021F0100105D00B4801684FF48032A2403F
S315200031E0914301606846FDF7FCFD02B0012010BD49
S315200031F0016821F020010160F4E700004C780020EE
S31520003200443802404038024070474FF04A407047E9
S3152000321010B50446C888002804BF94F85E00052827
S3152000322029D1087810F00F0005D0012808BF10BD5D
S31520003230022820D114E0488801281CD10A46022100
S315200032402046FEF73AFBB0B1C07A10F0200F12D01C
S31520003250B4F8680020F00200A4F86800062017E001
S31520003260888810F07F00888005D094F870208242EC
S3152000327001D94A880AB1012010BDE26E32F8103019
S3152000328023F0010322F81030888884F87100042086
S315200032900021A4F87C100149616710BD9D1C002007
S315200032A000207047002070470023024A0249034845
S315200032B003F078BBD4000120A0000120582B012068
S315200032C000B583B0DDF810C0CDE9003C002300F046
S315200032D0F8F803B000BD4FF47A71A0FB01017047E6
S315200032E0044951F82000008810F0800018BF012002
S315200032F0704700004C78002030B500F47F4183B041
S31520003300C4B2B1F5807F06D0B1F5007F10D0B1F5FB
S31520003310407F14D125E000210120CDE90001144889
S31520003320082300220169601EFEF7AEFC03B030BD03
S31520003330C0F3421000210546FEF7C8F910B103B0CC
S31520003340002030BD2846FEF7F4FA002804BF03B05B
S3152000335030BD601E03B00222BDE830400121FEF7D9
S31520003360EABA03B0601EBDE83040FEF722BF000077
S315200033700C0001200249012008600020FEF752BC03
S31520003380143C01400249022008600120FEF74ABC95
S31520003390143C01400249042008600220FEF742BC8A
S315200033A0143C01400249082008600320FEF73ABC7D
S315200033B0143C01400249102008600420FEF732BC6C
S315200033C0143C014070B50A49086800F4787008601A
S315200033D00849096805250840440914F0010F1CBF57
S315200033E02846FEF71FFC6D1C6408F6D170BD000050
S315200033F0143C0140003C01402DE9FF4F1F46DFF8F9
S31520003400A8C003090CEB832400F00F0C012000FA5E
S315200034100CF84FEA4C00032303FA00F5002683B08C
S31520003420022A08BF012602D0012A08BF022606FA70
S3152000343000F281400491390A01FA00F64FEA4C70F5
S31520003440C00E0F2101FA00F9C7F3031101FA00FBA0
S3152000345002924FEADC0A00216846FDF7BDFC20688F
S315200034600499A84308432060E068029AA8431043C1
S31520003470E060A068A8433043A06004EB8A00016A9C
S3152000348021EA090141EA0B010162606817F0010F88
S3152000349014BF40EA080020EA080060606846FDF78D
S315200034A0A0FC07B0BDE8F08F0000024001F0C6BDC9
S315200034B001218A1E0260084670470020704703F0EB
S315200034C03DBD2DE9F0411646DDE9064205461F467B
S315200034D0502805D200231946FFF78EFF032C02D968
S315200034E00020BDE8F08123463A4631462846BDE80D
S315200034F0F04100F0EBB9502828BF704710B50446BC
S31520003500FFF798F900231A4601212046FFF774FF9A
S3152000351000232046BDE810401A46194600F0D6B9C9
S315200035207047000070B50A49086800F47C400860BE
S31520003530084909680A250840840A14F0010F1CBFAF
S315200035402846FEF76FFB6D1C6408F6D170BD00009F
S31520003550143C0140003C014070B5094D2C8814F004
S31520003560200F03D02946002000F06FFA14F0800FB8
S3152000357008BF70BD2946BDE87040002000F07EBA25
S315200035800010014070B5094D2C8814F0200F03D08F
S315200035902946012000F059FA14F0800F08BF70BDAB
S315200035A02946BDE87040012000F068BA004400407A
S315200035B070B5094D2C8814F0200F03D0294602201F
S315200035C000F043FA14F0800F08BF70BD2946BDE80D
S315200035D07040022000F052BA0048004070B5094DF4
S315200035E02C8814F0200F03D02946032000F02DFA52
S315200035F014F0800F08BF70BD2946BDE87040032037
S3152000360000F03CBA004C004070B5094D2C8814F0EF
S31520003610200F03D02946042000F017FA14F0800F5B
S3152000362008BF70BD2946BDE87040042000F026BAC8
S315200036300050004070B5094D2C8814F0200F03D09F
S315200036402946052000F001FA14F0800F08BF70BD4E
S315200036502946BDE87040052000F010BA001401404C
S3152000366070B50C461546092828BF70BDDFE800F066
S31520003670051D101E262E381D4E0001213720FFF76E
S315200036803AFFBDE8704028A140F20150FDF777BD12
S31520003690002C08BF70BD2068411C00291CBF44F6C1
S315200036A020618142CCBF216070BD70BD2246BDE83D
S315200036B0704020A140F20150FDF761BD2246BDE8D1
S315200036C070401FA140F20150FDF759BD1FA140F2E5
S315200036D00150FDF754FDBDE870401CA0FDF742BD2A
S315200036E034B11EA140F20150FDF749FD1BA005E0B3
S315200036F01FA140F20150FDF742FD1DA0FDF732FD4E
S315200037002048C068BDE87040FEF7FCBC002C08BF0E
S3152000371070BD22461CA140F20150FDF730FD44F059
S315200037200100286070BD000057616974696E670DDD
S315200037300000000057723A203078253038780D0086
S3152000374045723A203078253038780D0043686B2052
S315200037507369676E6174757265200D005369676EB3
S31520003760617475726520504153530D0A0D0A00008D
S315200037705369676E6174757265204641494C0D0A1E
S315200037800D0A00000C0001205374617274696E6783
S31520003790206170706C69636174696F6E206174203A
S315200037A03078253038780D0A000000000020704758
S315200037B010B500F47F420446C1B2B2F5807F0CD02A
S315200037C0B2F5007F0ED0B2F5407F1CBF002010BDA1
S315200037D0481EBDE81040FFF7EDB9BDE81040481E71
S315200037E0FEF782BD481EFEF7D4F9C4F34210BDE8A9
S315200037F01040FEF7C8BA000010B5044684B008A0F1
S31520003800FDF717FF002206A1CDE9002113460290FD
S3152000381002220421204602F025FD04B0012010BD1D
S31520003820436F70797269676874204F6265726F6E34
S31520003830206D6963726F73797374656D732C20497B
S315200038406E632E000A4A02EB8002BFF35F8F11647B
S3152000385000F01F020121914042094FF0E02000EBC9
S315200038608200C0F88012C0F80011012070470000C5
S31520003870004001202DE9F04104460E46D4E902100D
S3152000388082B0D1F808C000256F460DF10408E04744
S3152000389043463A46314603F092FE90B1D4E90210EF
S315200038A08968884781690098102200EB800002EB26
S315200038B0800001250958019800EB400051F82000AE
S315200038C0C0B202B02846BDE8F08100002DE9F04FD5
S315200038D0814600F00F05012000FA05F48A46A80764
S315200038E0000F0F2101FA00F74FEA191101FA00F82B
S315200038F083B093461E4600216846FDF76DFA26489A
S31520003900C9F3810100EB8100224A2449BAF1000F54
S315200039102FD003683B4043450ED00B68234206D088
S315200039206846FDF75EFA03B00020BDE8F08F036815
S31520003930BB4343EA08030360194842F825A0022E38
S3152000394040F825B0174818BF032E02680CBF224343
S31520003950A24302601448012E18BF032E02680CBF32
S315200039602243A2430260114804600868204308608D
S3152000397009E000683840404505D10868A043086042
S31520003980002042F825006846FDF72BFA03B00120F7
S31520003990BDE8F08F4801012008380140003C014075
S315200039A088010120083C01400C3C0140143C0140A8
S315200039B04A88002A01BF8A88002AC98801290FD18E
S315200039C090F85E1003290BD000F160018167012178
S315200039D0A0F87C10A0F87E100249416700207047AD
S315200039E0012070479D1C002070B504468888154626
S315200039F0002804BFC888002806D194F85E00032852
S31520003A0002D04888012801D9012070BD10F0FF009E
S31520003A1084F860000CBF0420052084F85E00204650
S31520003A20FEF714FA25B10020A4F87C00014860674F
S31520003A30052070BD9D1C002003F092BA012303606F
S31520003A4000200B60C2E90000704770B505460C46A1
S31520003A500120FDF763FB0220FDF760FBA1882846C5
S31520003A60C9B2FFF723FD0120FDF762FB0220FDF717
S31520003A7041FBBDE870400120FDF73CBB38B505464B
S31520003A800C460120FDF74AFB0220FDF747FB69465D
S31520003A90284600F033F9002819BF9DF80000A080C1
S31520003AA0A08920F0800008BFA0810220FDF740FBFE
S31520003AB00220FDF71FFB0120FDF71CFB38BD00008F
S31520003AC0004870470CE0002000F01F01012202FA96
S31520003AD001F140094FF0E02202EB8000C0F880118E
S31520003AE0012070472DE9F041154600EB451480462C
S31520003AF0D4F808090E4610F0010F1CBF0120C4F8A7
S31520003B00080904F51067D4F8000910F0004F18BF13
S31520003B10BDE8F0815DB306EB8500016900291CBF75
S31520003B20406B00282BD0012229463046FDF708FE9F
S31520003B3000281CBF011D006821D001B340F40022DB
S31520003B40C4F81029D4F8002942F004423A6008EB60
S31520003B50053202F580520028D8BFBDE8F08151F821
S31520003B60043B1360001F0028F9DCBDE8F081716F6B
S31520003B7029B13046884796F85C00B16DDDE7D4F868
S31520003B80000940F000603860BDE8F081F8B50646CF
S31520003B90084615001C4613D06A462946FDF798FDAF
S31520003BA0011D046006EB053000F58050002CD8BFBF
S31520003BB0F8BD0268241F41F8042B002CF9DCF8BD5F
S31520003BC000F18001816580F85C40EBE72DE9F0414A
S31520003BD0054688460120FDF7A1FA0220FDF79EFA48
S31520003BE06C6914F0100F14D0286A00F00F02C0F38D
S31520003BF00A1300F4F010B0F5802F18BFB0F5402F4F
S31520003C0003D141462846FFF7C1FF6C6914F0100F17
S31520003C10EAD114F4802F11D0D5F818084FF00007F8
S31520003C200604360C0AD016F0010F04D03A46414657
S31520003C302846FFF757FF7F1C7608F4D114F4002F8F
S31520003C4010D0D5F818084FF00007060C0AD016F049
S31520003C50010F04D03A464146284600F067F87F1CFB
S31520003C607608F4D114F4805F06D04146284600F049
S31520003C70A3F84FF48050686114F4006F06D04146D3
S31520003C80284600F0A3F94FF40060686114F0004F55
S31520003C9006D04146284600F035F94FF000406861CD
S31520003CA014F0020F4FF0A0401CBF0221416114F016
S31520003CB0040F03D041684FF0FF31416014F0804F6C
S31520003CC01CBF4FF08041416114F0080F1CBF082132
S31520003CD0416114F4005F04D0064909684FF400518D
S31520003CE041610220FDF706FABDE8F0410120FDF70B
S31520003CF001BA0000080800500020704701F026BADB
S31520003D0041094FF0E02202EB8101D1F8001100F0C9
S31520003D101F0021FA00F000F001007047024A52F815
S31520003D2020008180704700004C78002030B400EBE2
S31520003D304213D3F808CB1CF0010F1CBF0124C3F893
S31520003D40084B1CF0080F1CBF4FF0080CC3F808CB1B
S31520003D50A2B101EB820C00EB4210DCF810C000F59A
S31520003D603060DCF808C0BCF1000F1CBFD3F8001B84
S31520003D7041F0006113D0016030BC704791F85F209C
S31520003D8042F4002242F0C042C0F8102BD0F8003B8B
S31520003D9043F00443C0F8003B30BC00F0D1B81144D6
S31520003DA091F82E1041F40021C3F8101BD3F8001B04
S31520003DB041F00441DFE700002DE9F0470C464FF0C3
S31520003DC0FF314161402141624FF04011816294F8F8
S31520003DD0702080230021002AC4BF4FF0FF0C4FF033
S31520003DE0804515DD00EB810643F48002C6F80021EC
S31520003DF000EB41124033C2F808C9C2F808CBC2F81A
S31520003E000059C2F8005B94F87020491C8A42E9DC0C
S31520003E104FF4866101614FF40041C0F80019C0F8E3
S31520003E20001B0026C0F810694FF0C041C0F8101BD7
S31520003E30B4F8CC204FF0011193084FF001024FF057
S31520003E40020C18BFDFF89C802BD013F0030523D07B
S31520003E50A71804EB820997F82E7048EA8545D9F809
S31520003E6034903D43B9F1000F0AD045F0006500EBD0
S31520003E70421745EA8255C7F8005941EA0C010BE082
S31520003E8047F4002900EB4217C7F8109B45F004457C
S31520003E90C7F8005B41EA0C41521C9B084FEA4C0CC8
S31520003EA0D3D10125C0F810580922C0F81428C0F82B
S31520003EB01C180D49816100F50061D0F8000820F436
S31520003EC0FE600860A91E0020FDF7F5FC032065664C
S31520003ED084F85E0084F85D602046BDE8F047FDF773
S31520003EE0B5BF00000080001016180CC0044951F818
S31520003EF02000008810F0400018BF01207047000005
S31520003F004C78002000F60402D0F8040820F00100C6
S31520003F10106091F8CE0081F85E000846FDF796BF46
S31520003F2002494FF0A040FFF751BE00006402012075
S31520003F3001490248FFF74ABE380301200000044029
S31520003F4070B506460D460846FEF7EAFB0446042CE5
S31520003F500ED2DFE804F00D2E0B02D6F8001895F8E5
S31520003F605D2041EA0211C6F8001801E000206867CA
S31520003F70002229463046FFF7B5FD052C18BF70BD37
S31520003F80012495F870000128D8BF70BD05EB840088
S31520003F90016900291CBF406B002804D0224629460F
S31520003FA03046FFF79FFD95F87000641CA042EDDCBB
S31520003FB070BDD6F8001941F40011C6F80019D6F8DC
S31520003FC0001B41F40011C6F8001B70BD084691F88D
S31520003FD05E1080F8CE10062180F85E10FDF736BF01
S31520003FE0002070472DE9F047044648884D4F050AC2
S31520003FF000F0FF08C8880E46A4F87E004FF000099E
S31520004000E0B194F85E00032810D8606E70B1012DDF
S3152000401018BFFCF75BF8C4F86490B4F87E0094F8F7
S315200040205F10884228BF0846A4F87E00C4F878901E
S31520004030A4F87C907078062806D058E0A4F87C90E6
S3152000404000206767BDE8F087012D04D0022D13D02C
S31520004050032D4CD11EE0324601212046FDF72DFCD2
S31520004060002842D0011DA167B4F87E100079814254
S3152000407038D2A4F87C1038E0324602212046FDF7DB
S315200040801CFC88B3011DA167B4F87E10C08881424C
S31520004090EFD327E0B8F1000F03D0B8F1050F14D104
S315200040A009E02148A067B4F87E00042828BF042030
S315200040B0A4F87C0019E01D49087830B1A167B4F84E
S315200040C07E10814238BF0846F2E732460321204659
S315200040D0FDF7F3FB40B1011DA167B4F87E1000790E
S315200040E08142C6D30146C4E7FFE7A06FB0B9324686
S315200040F0FF212046FDF7E1FB002804BF0120BDE893
S31520004100F08700F10A01A1674088B4F87E10A0F17B
S315200041100A02914228BF1146A4F87C100020676746
S31520004120BDE8F0879D1C0020600001206C21012045
S315200041300C4910B551F82010898A11F4007F0ED051
S315200041400B21012808BF002102D0022808BF1D210B
S315200041500846FEF745FB00281CBF002010BD0120A5
S3152000416010BD00004C780020054A002952F8200096
S31520004170818914BF41F0200121F0200181817047FF
S315200041804C780020044951F82000808910F08000E6
S3152000419018BF0120704700004C780020054A0029EE
S315200041A052F82000818914BF41F0800121F080015E
S315200041B0818170474C7800207047FEE700F056BAA0
S315200041C0024901480860FEE70400FA050CED00E00C
S315200041D070B5284C254D264E2168302807D040281A
S315200041E037D0306840F00400306030BF70BD002901
S315200041F018BF8847286840F004002860316840F2DC
S3152000420005200843306030BF1B48016841F48031E7
S315200042100160296821F004012960016811F4003F3A
S31520004220FBD0016841F080710160016811F0007FC8
S31520004230FBD012490A6842F002020A60016821F0A6
S31520004240010101606068002808BF70BDBDE87040AC
S315200042500047002918BF8847286840F004002860D6
S31520004260306840F00600306030BF70BD10ED00E0D1
S315200042700070004004000120003802400838024047
S31520004280704700F079BA00F0B7BA00002DE9F04186
S31520004290164E0446306830BB0125A5610021E56134
S315200042A0C4E9081104F12002111F081FFFF7C6FBFD
S315200042B00020C4E902000F480D49C922A1FB00C70E
S315200042C002FB0072C31701FB0321C4E900C10849A0
S315200042D0C922A1FB00C7C31702FB007001FB030024
S315200042E0C4E904C035600020BDE8F0819C000120AF
S315200042F000C0692A8C49020030B583B004460D46B9
S3152000430000216846FCF768FD2046FDF745FC28B1EC
S31520004310846834EA0501816006D00AE06846FCF725
S3152000432060FD03B0002030BD002C1CBF0420FDF72B
S315200043305BF96846FCF755FD03B0204630BD00000A
S315200043402DE9F0438BB00546FDF726FC04460021F7
S3152000435008A8FCF741FD002C68D0434F206860B1C7
S31520004360786800F47F41B1F5007F06D1C0F3421092
S31520004370A84204BF284600F02DF9E06818B90021AC
S31520004380284600F003FB39A02022694602F03CFBB8
S315200043903A4B002600281ABF0020EC461E700FD08C
S315200043A003EB40021CF800109170D67011B1401C2E
S315200043B02028F5DB022101EB4000187003205870FD
S315200043C0002202212046FDF778FA8046206868BB45
S315200043D0B8F1000F2AD080212046D4F80C90FBF7A4
S315200043E070FF0020FF22C4F80C9004EB4001401C13
S315200043F081F84C2081F84D200628F6DB65710120D6
S315200044002060227198F80B0010F0400FB4F8680075
S3152000441014BF40F0010020F00100A4F868002846EF
S31520004420FDF75CFD002818BF266006D008A8FCF71B
S31520004430D8FC0BB00020BDE8F083786800F47F41FB
S31520004440B1F5007F04BFC0F34211A94205D1C0B225
S31520004450401E02220121FDF76EFA08A8FCF7C1FCD6
S315200044600BB00120BDE8F0830C0001205553425FBC
S315200044704E414D455F434F4E464947006C21012032
S3152000448070B50C46C0F3421100F01F0682B01546E7
S315200044900846FDF781FB00281CBF016800294AD089
S315200044A0062E48DAFF2D12D0691E052943D2FF2C8D
S315200044B002D0611E05293ED200EB460696F84C1026
S315200044C0FF2904BF96F84D10FF2934D102E0FF2CB6
S315200044D031D0EEE7FF2D03D000EB8501096951B3FA
S315200044E0FF2C03D000EB8401096921B3FF2D03D0F3
S315200044F000EB8501496BF1B9FF2C03D000EB840159
S31520004500496BC1B10021FF2D09D000EB410292F881
S315200045104C30AB421CBF92F84D20AA420BD0FF2C48
S315200045200CD000EB410292F84C30A3421CBF92F80B
S315200045304D20A24202D102B0002070BD491C06299E
S31520004540E1DB00216846FCF747FC86F84C5086F8EC
S315200045504D406846FCF745FC02B0012070BD30B5E1
S31520004560C0F3421100F01F0583B00846FDF714FB87
S3152000457004001CBF2068002801D0062D02DB03B0F2
S31520004580002030BD00216846FCF726FC04EB4501DF
S31520004590002291F84C00FF2806D004EB8000006929
S315200045A010B1026042608260FF2381F84C3091F89E
S315200045B04D00FF2806D004EB8000006910B1026090
S315200045C04260826081F84D306846FCF70AFC03B0F1
S315200045D0012030BDF0B583B00546FDF7DDFA0400B5
S315200045E004BF03B0F0BD00216846FCF7F5FB206848
S315200045F0C8B11C4800214268D6B202F47F40C2F3FB
S315200046004213A6F1010CB0F5007F04BFAB428C45E6
S315200046100FD004EB410292F84C70FF2F04BF92F8A2
S315200046204D20FF2A05D06846FCF7DBFB03B00020AF
S31520004630F0BD491C0629E6DBB0F5007F02BFAB4280
S315200046406046FDF7A6FA002020602846FEF7D6F938
S315200046500548FCF70AFC6846FCF7C3FB03B00120BB
S31520004660F0BD00000C000120A08601002DE9F74FC7
S315200046708B4684B0C0F3421100F01F040846009117
S31520004680FDF78AFA5FEA00091FD0062C1DDA99F891
S315200046905E00052819D109EB440090F84CA0BAF128
S315200046A0FF0F12D009EB8A000190006968B1002142
S315200046B002A8FCF791FB0024069EA046002E88BF88
S315200046C009EB0A074AD924B115E007B00020BDE856
S315200046D0F08F01980069D0E900218A4202BF8268E2
S315200046E0002A002405D001EB011100EB810000F126
S315200046F00C04002C39D097F8280021680D1AAE42F8
S3152000470038BF3546211D01442A465846FBF728FD69
S3152000471097F82800761B2844C0B287F8280021681D
S31520004720AB44A844884216D1002287F82820019855
S3152000473014460069D0E900318B4204BF8368002B00
S3152000474005D0491C082908BF0021C0E9011251469D
S315200047504846FDF72DFA06988045B4D302A8FCF703
S3152000476040FB07B04046BDE8F08F012000FA0AF171
S315200047700098FDF7A0F8F1E770B5C0F3421100F0FC
S315200047801F050846FDF708FA040033D0062D31DA56
S3152000479094F85E0005282BD104EB450090F84D5087
S315200047A0FF2D27D004EB8506306918B3D0E9001217
S315200047B0914201D18068D8B129462046FDF7A4FE52
S315200047C00020FCF727FB58B1FEF7F0FF40B106208A
S315200047D0FFF796FA00281CBF4FF4FA70FCF760FB2F
S315200047E03269D2E90001884204BF90680028E3D1EB
S315200047F0012070BD002070BD2DE9F74F8946C0F31A
S31520004800421100F01F0484B000250846FDF7C4F9C4
S31520004810070033D0062C31DA0698002804BF07B0EB
S31520004820BDE8F08FB9F1000F28D097F85E00052873
S3152000483024D107EB440090F84D000290FF281DD0AC
S3152000484007EB800003900069C0B100216846FCF7A1
S31520004850C3FA02984FF0000A069E544607EB000B57
S31520004860039800690268511C082908BF0021836843
S31520004870002B18BF4FF0000811D104E007B04FF00D
S31520004880FF30BDE8F08F43688B4204BF012383606D
S31520004890016002EB021100EB810000F10C08B8F177
S315200048A0000F18D09BF82E40B44228BF34462CB1B6
S315200048B02246494608F10400FBF752FC9BF82E00DD
S315200048C0A04288BF4FF0010A361BA1442544C8F8F0
S315200048D00040002426E0641C642C09D906988642F0
S315200048E02BD103980021006901604160816024E09A
S315200048F00120FCF709FC00BB6846FCF776FA002885
S3152000490004BF97F85E00052817D138460299FDF7AF
S31520004910FBFD6846FCF770FA3220FCF7C1FA6846C0
S31520004920FCF76EFABAF1000F9AD097F85E000528C8
S3152000493003D138460299FDF7E7FD6846FCF751FAA0
S3152000494007B02846BDE8F08F30B583B004460D4643
S3152000495000216846FCF740FA2046FDF71DF970B1A4
S31520004960846844EA05018160A1421CBF0420FCF74B
S31520004970DFFB6846FCF735FA03B0204630BD6846B3
S31520004980FCF72FFA03B0002030BD00002DE9F041DE
S315200049900E460025FDF700F9070004BF1C20BDE8E0
S315200049A0F081002E08BF144E3046FEF7DBFA5FEA90
S315200049B0000818BFBDE8F0810F4CF868A04218BF68
S315200049C002F06DFEA64208BFFE6011D03078344654
S315200049D028B160880444054420780028F9D12C1D8C
S315200049E0204602F05EFE22463146F860FBF7B8FB11
S315200049F04046BDE8F08100003C7D0020016000219A
S31520004A0041608160C160016141618161C161016272
S31520004A1041628162C0E90B11C0E90D1170470000A7
S31520004A202DE9F04104460068069E0D460068904632
S31520004A301F46002808BF13A0016861604068A06077
S31520004A40002239463046FDF7B7FB206128696061B0
S31520004A502068B0F850102183B0F85010491CA0F8F7
S31520004A605010A88A608348F002006662C4E90707EE
S31520004A7000200246E0602021201DFDF79DFBE0601E
S31520004A80BDE8F0814D53706B7456310070B5044605
S31520004A90C56800200246E0602021201DFDF78CFB22
S31520004AA0A8420CBF01200020E56070BD10B5044669
S31520004AB0D4E9081000B939B90022FDF77DFB216938
S31520004AC0884204BF012010BD002010BD2DE9F04111
S31520004AD004460068069D8846006817461E4600283C
S31520004AE008BF11A0016861604068A06000223146BD
S31520004AF02846FDF761FBC4E904082068B0F8501089
S31520004B002183B0F85010491CA0F850100020608373
S31520004B10E761E060C4E9086502462021201DFDF713
S31520004B204BFBE060BDE8F0814D53706B745631004D
S31520004B3030B50D4693B00446016802A8FFF75EFF24
S31520004B400020009044F2010045EA000200231946A5
S31520004B5002A8FFF7BBFF02A9206801F0C8FB13B02B
S31520004B6030BD0121816370472DE9F05F071D0446A2
S31520004B70B9464FF0020B4FF0060A4FF00108A06B22
S31520004B80072880F0B780DFE800F09E040D415377B8
S31520004B90A400204600F0BCF82020C4F838B0C4E9B0
S31520004BA00A90ECE7206804F12C02111FD0F80CC003
S31520004BB04068036860469847002818BFE06A7DD0A1
S31520004BC0C0F12005002D1BDD082D34BF2E460826FA
S31520004BD032464AA1201DFBF797FA88B1324649A1F1
S31520004BE0201DFBF791FA58B16A1E791C3846FBF74F
S31520004BF0FCFAA06A401EA062E06A401CE062DFE781
S31520004C00082D28BF0320BAD3A063B8E7206804F193
S31520004C102C02111FD0F80CC04068036860469847E4
S31520004C20002850D0E06A002808BF0420A7D1EBE76F
S31520004C302046FFF72BFFB0B120682146C368806865
S31520004C4002681846904770B1206AB0B3606AB0B364
S31520004C50FCF702F9C4E90C010520A063606AA06292
S31520004C60206AE0628BE7E06910F0010F2ED1042163
S31520004C702046FFF75DFF29E0FCF7EEF8D4E90C2388
S31520004C8005460E46801A61EB0301FDF791FF1F4A88
S31520004C90801A71F1000019D2C4E90C56206804F17B
S31520004CA02C02111FD0F80CC0406803686046984754
S31520004CB020B1E06A00287FF462AF01E003E005E05E
S31520004CC0C4F838A05BE70120BDE8F09FC4F838801F
S31520004CD055E72046FFF7EAFE38B120682146C3682B
S31520004CE08068426818469047F0E708212046FFF77B
S31520004CF01FFFEBE70020BDE8F09F00004D536462E4
S31520004D00675631004D53706B7456310000879303FC
S31520004D1010B50446406A002808BF10BD2068214609
S31520004D20C36880688268184690470020606210BD7C
S31520004D302DE9F04304465B4883B00D46D0F81009B0
S31520004D4000287DD05848216908180AD0A0F580305F
S31520004D50B0F5FF5015D0534802F016FB042871D049
S31520004D609CE0504802F010FB042869D101214D48EF
S31520004D7002F05FFB002863D101214A4802F006FABF
S31520004D8069E0DFF82891D9F800000028D8BFFBF7A2
S31520004D909DF9DFF81C81D8F8000028B9FBF796F9B1
S31520004DA0D8F80000002875D0D9F80000002871DD59
S31520004DB0D8F800400027A07904280CD1394802F001
S31520004DC0E3FA042812D0D9F800203648D8F8001083
S31520004DD002F00AFB0127D8F8000002F060FC002050
S31520004DE0C8F8000003B03846BDE8F08304F5127217
S31520004DF000212C4802F0ADFA002814BF0025012519
S31520004E0004F553720121274802F0A3FA00280CBFAB
S31520004E10012400240021234802F00BFB002814BFA4
S31520004E200126002601211F4802F003FB002818BF97
S31520004E30012035EA060108BF34EA0000CBD1C2E7DB
S31520004E402CE0FFE72946174802F0F3FA30BB294643
S31520004E50144802F09BF9002804BF03B0BDE8F08394
S31520004E6004F11403D4E90212CDE900120293D4E925
S31520004E70002301460220FCF709F92076012806D1F5
S31520004E8004F11400FCF704F920760128F8D010F07C
S31520004E90FF0F03D003B00020BDE8F08303B001204C
S31520004EA0BDE8F083D82F0120B0DFFFBF50000120DE
S31520004EB04C00012010B4DDE9014C80E81E100021D1
S31520004EC04161F721017610BC704710B504461430B5
S31520004ED0FCF7DAF8204610BD062824BF00207047CC
S31520004EE02DE9F04385B00446DDE90C650F46904672
S31520004EF09946002102A8FBF76FFF04EB44003449D2
S31520004F0000EBC40001EBC00CDCF8140010F4003FE9
S31520004F1006D002A8FBF765FF05B00120BDE8F083A7
S31520004F200020CCE90F04CCF81400DCF8141041F072
S31520004F30080141F40031CCF8141015F0080F05D003
S31520004F40DCF8141041F48071CCF8141015F0100F11
S31520004F5005D0DCF8141041F00401CCF8141015F03B
S31520004F60020F05D0DCF8141041F40061CCF81410BF
S31520004F70C021CCF8341040210022CCF81820CCF8DF
S31520004F803810CCF81C204FF48072CCF80000114960
S31520004F90CCE9010201EB0421CCE90301CCF8200085
S31520004FA0CCE909020C494B4601EB0421CCE90B0163
S31520004FB0CDE90065424639462046FDF74FFC0446BA
S31520004FC002A8FBF70EFF05B02046BDE8F0830000DF
S31520004FD0802B01206C1501206C1B0120062824BF84
S31520004FE00020704710B582B0044600216846FBF7C2
S31520004FF0F3FE04EB4400104900EBC40001EBC001B2
S31520005000486910F4003F10D00020C1E90F04486918
S3152000501020F4003048612046FEF7B0F80446684682
S31520005020FBF7DFFE02B0204610BD6846FBF7D9FE2F
S3152000503002B0012010BD0000802B0120062824BFCD
S315200050400020704770B505460E4600EB45003649F0
S3152000505000EBC50001EBC00482B0606910F0040FBC
S3152000506003D0112E15D0132E08D000216846FBF749
S31520005070B3FE236AE06A002200BB0FE0FBF7ECFEDA
S31520005080A061E161606920F00800606102B0012042
S3152000509070BD606940F00800606132E003F1010CE8
S315200050A0C4F820C0A06A844508BF2262D4E908015A
S315200050B0884204BF0120E062206BC21822B316701A
S315200050C004F1200002F006FB616B88420FD3606971
S315200050D010F4807F03D00121284600F0C1FA6069D0
S315200050E010F4006F03D000212846FFF73DF86846EC
S315200050F0FBF777FE0521284600F0D2FA0120FCF7BF
S3152000510017F802B0012070BD0121284600F0C8FA28
S3152000511006A002F0B9FA09A0FCF724F86846FBF7C6
S3152000512060FE02B0002070BD802B01200C42756607
S31520005130666572204F56464C570D0A0042756666C4
S315200051406572204F56464C570D0A0000062824BF8C
S315200051500020704730B50D4600EB400101EBC00042
S31520005160244983B001EBC00400216846FBF734FED6
S31520005170606910F0010F60690AD020F001006061BB
S31520005180132028706846FBF72CFE03B0012030BDA3
S3152000519010F0020F0BD0606920F002006061112030
S315200051A028706846FBF71DFE03B0012030BDD4E908
S315200051B000200021904204BFE268002A08D0421C49
S315200051C06260A3689A4208BF6160E1602169014478
S315200051D051B1087828700220FBF7AAFF6846FBF732
S315200051E000FE03B0012030BD6846FBF7FAFD03B090
S315200051F0002030BD802B01202DE9F04784B0824667
S3152000520088461646062806D3FAF760FF04B04FF004
S31520005210FF30BDE8F087B8F1000F37D00AEB4A001F
S315200052204D4900EBCA0001EBC004606910F4803FD1
S315200052302CD1606910F4003F28D00025A946002E05
S3152000524062D9002102A8FBF7C7FD721B0092616A92
S3152000525008BF4F4626D0206A814204BFE36A002B4E
S3152000526019D088429ABFA36A581A401A824298BF18
S315200052701046009008446062A26A904208BFC4F8B3
S315200052802490C4F82C90206B47180BE004B04FF004
S31520005290FF30BDE8F087CDF80090C4F824904F4643
S315200052A0C4F82090002F47D0D4E90801814247D97D
S315200052B0A26A0244521AA36B9A4218D8814245D94F
S315200052C0A26A1044401A0099084498420FD960698E
S315200052D010F4807F03D00121504600F0A3F96069C5
S315200052E010F4006F03D001215046FEF73DFF08EB76
S315200052F005003946009AFAF733FF0098054402A8BC
S31520005300FBF76FFDAE429CD800216846FBF764FD93
S31520005310C4F83C90D4E90801884204BFE06A00281A
S3152000532003D00521504600F0BBF96846FBF759FD2E
S3152000533004B02846BDE8F08702A8FBF752FDE3E754
S31520005340E26A002A14BFA26A421AB4E7E26A002A75
S3152000535014BFA06A401AB6E7802B012070B584B02E
S315200053600546062802D3FAF7B1FE8AE005EB45008A
S31520005370504900EBC50001EBC004606910F4803F82
S315200053807AD1606910F4003F76D06069062610F065
S31520005390040F03D0606910F0080F72D02846FEF77C
S315200053A0C7FE00286DD000216846FBF715FD68462C
S315200053B0FBF71BFD90B92846FEF7E4FE70B1304698
S315200053C0FEF79EFC50B1D4E90001884201D1E06885
S315200053D098B3606910F4803F50D136E0D4E90001DB
S315200053E0884204BFE068002827D0606910F4803F17
S315200053F044D12846FEF79CFEE8B32846FDF770FF09
S3152000540040B92846FEF794FEA8B32846FDF768FF64
S315200054100028F6D002A92846FFF798FE9DF8081026
S315200054202846FEF77BFC6846FBF7ECFCD4E9000136
S31520005430884204BFE0680028D7D16846FBF7D1FC34
S31520005440606910F4803F1CD11EE02846FEF770FEEE
S3152000545088B16846FBF7D0FC4FF47A70FBF720FD45
S315200054606846FBF7CDFCD4E90001884204BFE0681A
S315200054700028AED1E1E701E018E002E06846FBF73C
S31520005480B0FC04B0002070BD2846FDF729FF20B9E6
S315200054902846FEF74DFE0028F6D12846FEF726FDC3
S315200054A020B92846FEF744FE0028F6D104B0012094
S315200054B070BD0000802B01202DE9F04F002585B01E
S315200054C081461746884606280FD227B3B8F1000F23
S315200054D00BD009EB4900524900EBC90001EBC0048F
S315200054E0606910F4803F07D015E0FAF7EFFD05B0AC
S315200054F04FF0FF30BDE8F08F606910F4003F0AD00E
S3152000550060694FF0010B10F0040F26D0606910F08F
